{
	"contracts/DecentralizedCharity.sol": {
		"DecentralizedCharity": {
			"abi": [
				{
					"anonymous": false,
					"inputs": [
						{
							"indexed": true,
							"internalType": "uint256",
							"name": "auctionId",
							"type": "uint256"
						},
						{
							"indexed": true,
							"internalType": "address",
							"name": "charity",
							"type": "address"
						},
						{
							"indexed": false,
							"internalType": "uint256",
							"name": "startTime",
							"type": "uint256"
						},
						{
							"indexed": false,
							"internalType": "uint256",
							"name": "endTime",
							"type": "uint256"
						}
					],
					"name": "AuctionCreated",
					"type": "event"
				},
				{
					"anonymous": false,
					"inputs": [
						{
							"indexed": true,
							"internalType": "uint256",
							"name": "auctionId",
							"type": "uint256"
						},
						{
							"indexed": true,
							"internalType": "address",
							"name": "winner",
							"type": "address"
						},
						{
							"indexed": false,
							"internalType": "uint256",
							"name": "amount",
							"type": "uint256"
						}
					],
					"name": "AuctionFinalized",
					"type": "event"
				},
				{
					"anonymous": false,
					"inputs": [
						{
							"indexed": true,
							"internalType": "uint256",
							"name": "auctionId",
							"type": "uint256"
						},
						{
							"indexed": true,
							"internalType": "address",
							"name": "bidder",
							"type": "address"
						},
						{
							"indexed": false,
							"internalType": "uint256",
							"name": "amount",
							"type": "uint256"
						}
					],
					"name": "BidPlaced",
					"type": "event"
				},
				{
					"anonymous": false,
					"inputs": [
						{
							"indexed": true,
							"internalType": "address",
							"name": "charityAddress",
							"type": "address"
						},
						{
							"indexed": true,
							"internalType": "address",
							"name": "owner",
							"type": "address"
						},
						{
							"indexed": false,
							"internalType": "string",
							"name": "name",
							"type": "string"
						}
					],
					"name": "CharityRegistered",
					"type": "event"
				},
				{
					"anonymous": false,
					"inputs": [
						{
							"indexed": true,
							"internalType": "address",
							"name": "donor",
							"type": "address"
						},
						{
							"indexed": true,
							"internalType": "address",
							"name": "charity",
							"type": "address"
						},
						{
							"indexed": false,
							"internalType": "uint256",
							"name": "amount",
							"type": "uint256"
						},
						{
							"indexed": false,
							"internalType": "uint256",
							"name": "timestamp",
							"type": "uint256"
						}
					],
					"name": "DonationReceived",
					"type": "event"
				},
				{
					"inputs": [],
					"name": "auctionCount",
					"outputs": [
						{
							"internalType": "uint256",
							"name": "",
							"type": "uint256"
						}
					],
					"stateMutability": "view",
					"type": "function"
				},
				{
					"inputs": [
						{
							"internalType": "uint256",
							"name": "",
							"type": "uint256"
						}
					],
					"name": "auctions",
					"outputs": [
						{
							"internalType": "address",
							"name": "charity",
							"type": "address"
						},
						{
							"internalType": "uint256",
							"name": "startTime",
							"type": "uint256"
						},
						{
							"internalType": "uint256",
							"name": "endTime",
							"type": "uint256"
						},
						{
							"internalType": "address",
							"name": "highestBidder",
							"type": "address"
						},
						{
							"internalType": "uint256",
							"name": "highestBid",
							"type": "uint256"
						},
						{
							"internalType": "bool",
							"name": "finalized",
							"type": "bool"
						}
					],
					"stateMutability": "view",
					"type": "function"
				},
				{
					"inputs": [
						{
							"internalType": "uint256",
							"name": "_auctionId",
							"type": "uint256"
						}
					],
					"name": "bid",
					"outputs": [],
					"stateMutability": "payable",
					"type": "function"
				},
				{
					"inputs": [
						{
							"internalType": "address",
							"name": "",
							"type": "address"
						}
					],
					"name": "charities",
					"outputs": [
						{
							"internalType": "address payable",
							"name": "owner",
							"type": "address"
						},
						{
							"internalType": "string",
							"name": "name",
							"type": "string"
						},
						{
							"internalType": "bool",
							"name": "registered",
							"type": "bool"
						},
						{
							"internalType": "uint256",
							"name": "totalDonations",
							"type": "uint256"
						},
						{
							"internalType": "uint256",
							"name": "donationCount",
							"type": "uint256"
						}
					],
					"stateMutability": "view",
					"type": "function"
				},
				{
					"inputs": [
						{
							"internalType": "uint256",
							"name": "_startTime",
							"type": "uint256"
						},
						{
							"internalType": "uint256",
							"name": "_endTime",
							"type": "uint256"
						}
					],
					"name": "createAuction",
					"outputs": [],
					"stateMutability": "nonpayable",
					"type": "function"
				},
				{
					"inputs": [
						{
							"internalType": "address",
							"name": "_charity",
							"type": "address"
						}
					],
					"name": "donate",
					"outputs": [],
					"stateMutability": "payable",
					"type": "function"
				},
				{
					"inputs": [
						{
							"internalType": "uint256",
							"name": "",
							"type": "uint256"
						}
					],
					"name": "donations",
					"outputs": [
						{
							"internalType": "address",
							"name": "donor",
							"type": "address"
						},
						{
							"internalType": "address",
							"name": "charity",
							"type": "address"
						},
						{
							"internalType": "uint256",
							"name": "amount",
							"type": "uint256"
						},
						{
							"internalType": "uint256",
							"name": "timestamp",
							"type": "uint256"
						}
					],
					"stateMutability": "view",
					"type": "function"
				},
				{
					"inputs": [
						{
							"internalType": "address",
							"name": "",
							"type": "address"
						}
					],
					"name": "donorDonationCount",
					"outputs": [
						{
							"internalType": "uint256",
							"name": "",
							"type": "uint256"
						}
					],
					"stateMutability": "view",
					"type": "function"
				},
				{
					"inputs": [
						{
							"internalType": "address",
							"name": "",
							"type": "address"
						}
					],
					"name": "donorTotalDonated",
					"outputs": [
						{
							"internalType": "uint256",
							"name": "",
							"type": "uint256"
						}
					],
					"stateMutability": "view",
					"type": "function"
				},
				{
					"inputs": [
						{
							"internalType": "uint256",
							"name": "_auctionId",
							"type": "uint256"
						}
					],
					"name": "finalizeAuction",
					"outputs": [],
					"stateMutability": "nonpayable",
					"type": "function"
				},
				{
					"inputs": [
						{
							"internalType": "address",
							"name": "_charity",
							"type": "address"
						}
					],
					"name": "getCharityMetrics",
					"outputs": [
						{
							"internalType": "uint256",
							"name": "totalDonated",
							"type": "uint256"
						},
						{
							"internalType": "uint256",
							"name": "donationCount",
							"type": "uint256"
						}
					],
					"stateMutability": "view",
					"type": "function"
				},
				{
					"inputs": [
						{
							"internalType": "uint256",
							"name": "_index",
							"type": "uint256"
						}
					],
					"name": "getDonation",
					"outputs": [
						{
							"internalType": "address",
							"name": "donor",
							"type": "address"
						},
						{
							"internalType": "address",
							"name": "charity",
							"type": "address"
						},
						{
							"internalType": "uint256",
							"name": "amount",
							"type": "uint256"
						},
						{
							"internalType": "uint256",
							"name": "timestamp",
							"type": "uint256"
						}
					],
					"stateMutability": "view",
					"type": "function"
				},
				{
					"inputs": [],
					"name": "getDonationsCount",
					"outputs": [
						{
							"internalType": "uint256",
							"name": "",
							"type": "uint256"
						}
					],
					"stateMutability": "view",
					"type": "function"
				},
				{
					"inputs": [
						{
							"internalType": "address",
							"name": "_donor",
							"type": "address"
						}
					],
					"name": "getDonorMetrics",
					"outputs": [
						{
							"internalType": "uint256",
							"name": "totalDonated",
							"type": "uint256"
						},
						{
							"internalType": "uint256",
							"name": "donationCount",
							"type": "uint256"
						}
					],
					"stateMutability": "view",
					"type": "function"
				},
				{
					"inputs": [
						{
							"internalType": "string",
							"name": "_name",
							"type": "string"
						}
					],
					"name": "registerCharity",
					"outputs": [],
					"stateMutability": "nonpayable",
					"type": "function"
				}
			],
			"devdoc": {
				"kind": "dev",
				"methods": {
					"bid(uint256)": {
						"params": {
							"_auctionId": "The ID of the auction"
						}
					},
					"createAuction(uint256,uint256)": {
						"params": {
							"_endTime": "Unix timestamp for auction end",
							"_startTime": "Unix timestamp for auction start"
						}
					},
					"donate(address)": {
						"params": {
							"_charity": "The address of the charity to donate to"
						}
					},
					"finalizeAuction(uint256)": {
						"params": {
							"_auctionId": "The ID of the auction"
						}
					},
					"getCharityMetrics(address)": {
						"params": {
							"_charity": "Address of the charity"
						},
						"returns": {
							"donationCount": "Number of donations",
							"totalDonated": "Total wei received"
						}
					},
					"getDonation(uint256)": {
						"params": {
							"_index": "The donation index (0-based)"
						},
						"returns": {
							"amount": "The amount donated (in wei)",
							"charity": "The address of the charity",
							"donor": "The address of the donor",
							"timestamp": "The block timestamp when donated"
						}
					},
					"getDonationsCount()": {
						"returns": {
							"_0": "The count of donations"
						}
					},
					"getDonorMetrics(address)": {
						"params": {
							"_donor": "Address of the donor"
						},
						"returns": {
							"donationCount": "Number of donations",
							"totalDonated": "Total wei donated"
						}
					},
					"registerCharity(string)": {
						"params": {
							"_name": "The human-readable name of the charity"
						}
					}
				},
				"title": "Decentralized Charity Platform with Auctions & Metrics",
				"version": 1
			},
			"evm": {
				"assembly": "    /* \"contracts/DecentralizedCharity.sol\":241:7349  contract DecentralizedCharity {\r... */\n  mstore(0x40, 0x80)\n  callvalue\n  dup1\n  iszero\n  tag_1\n  jumpi\n  0x00\n  dup1\n  revert\ntag_1:\n  pop\n  dataSize(sub_0)\n  dup1\n  dataOffset(sub_0)\n  0x00\n  codecopy\n  0x00\n  return\nstop\n\nsub_0: assembly {\n        /* \"contracts/DecentralizedCharity.sol\":241:7349  contract DecentralizedCharity {\r... */\n      mstore(0x40, 0x80)\n      jumpi(tag_1, lt(calldatasize, 0x04))\n      shr(0xe0, calldataload(0x00))\n      dup1\n      0x5894d2a3\n      gt\n      tag_17\n      jumpi\n      dup1\n      0xc93527d8\n      gt\n      tag_18\n      jumpi\n      dup1\n      0xc93527d8\n      eq\n      tag_13\n      jumpi\n      dup1\n      0xe8083863\n      eq\n      tag_14\n      jumpi\n      dup1\n      0xef07a81f\n      eq\n      tag_15\n      jumpi\n      dup1\n      0xf8626af8\n      eq\n      tag_16\n      jumpi\n      jump(tag_1)\n    tag_18:\n      dup1\n      0x5894d2a3\n      eq\n      tag_9\n      jumpi\n      dup1\n      0x99b9b463\n      eq\n      tag_10\n      jumpi\n      dup1\n      0xa5b7b135\n      eq\n      tag_11\n      jumpi\n      dup1\n      0xc6121902\n      eq\n      tag_12\n      jumpi\n      jump(tag_1)\n    tag_17:\n      dup1\n      0x2ad71573\n      gt\n      tag_19\n      jumpi\n      dup1\n      0x2ad71573\n      eq\n      tag_5\n      jumpi\n      dup1\n      0x454a2ab3\n      eq\n      tag_6\n      jumpi\n      dup1\n      0x53ba78d9\n      eq\n      tag_7\n      jumpi\n      dup1\n      0x571a26a0\n      eq\n      tag_8\n      jumpi\n      jump(tag_1)\n    tag_19:\n      dup1\n      0x362a95\n      eq\n      tag_2\n      jumpi\n      dup1\n      0x0121683f\n      eq\n      tag_3\n      jumpi\n      dup1\n      0x2478239a\n      eq\n      tag_4\n      jumpi\n    tag_1:\n      0x00\n      dup1\n      revert\n        /* \"contracts/DecentralizedCharity.sol\":2242:2999  function donate(address _charity) external payable {\r... */\n    tag_2:\n      tag_20\n      0x04\n      dup1\n      calldatasize\n      sub\n      dup2\n      add\n      swap1\n      tag_21\n      swap2\n      swap1\n      tag_22\n      jump\t// in\n    tag_21:\n      tag_23\n      jump\t// in\n    tag_20:\n      stop\n        /* \"contracts/DecentralizedCharity.sol\":3188:3804  function createAuction(uint256 _startTime, uint256 _endTime) external {\r... */\n    tag_3:\n      callvalue\n      dup1\n      iszero\n      tag_24\n      jumpi\n      0x00\n      dup1\n      revert\n    tag_24:\n      pop\n      tag_25\n      0x04\n      dup1\n      calldatasize\n      sub\n      dup2\n      add\n      swap1\n      tag_26\n      swap2\n      swap1\n      tag_27\n      jump\t// in\n    tag_26:\n      tag_28\n      jump\t// in\n    tag_25:\n      stop\n        /* \"contracts/DecentralizedCharity.sol\":807:851  mapping(address => Charity) public charities */\n    tag_4:\n      callvalue\n      dup1\n      iszero\n      tag_29\n      jumpi\n      0x00\n      dup1\n      revert\n    tag_29:\n      pop\n      tag_30\n      0x04\n      dup1\n      calldatasize\n      sub\n      dup2\n      add\n      swap1\n      tag_31\n      swap2\n      swap1\n      tag_22\n      jump\t// in\n    tag_31:\n      tag_32\n      jump\t// in\n    tag_30:\n      mload(0x40)\n      tag_33\n      swap6\n      swap5\n      swap4\n      swap3\n      swap2\n      swap1\n      tag_34\n      jump\t// in\n    tag_33:\n      mload(0x40)\n      dup1\n      swap2\n      sub\n      swap1\n      return\n        /* \"contracts/DecentralizedCharity.sol\":1138:1165  uint256 public auctionCount */\n    tag_5:\n      callvalue\n      dup1\n      iszero\n      tag_35\n      jumpi\n      0x00\n      dup1\n      revert\n    tag_35:\n      pop\n      tag_36\n      tag_37\n      jump\t// in\n    tag_36:\n      mload(0x40)\n      tag_38\n      swap2\n      swap1\n      tag_39\n      jump\t// in\n    tag_38:\n      mload(0x40)\n      dup1\n      swap2\n      sub\n      swap1\n      return\n        /* \"contracts/DecentralizedCharity.sol\":3911:4550  function bid(uint256 _auctionId) external payable {\r... */\n    tag_6:\n      tag_40\n      0x04\n      dup1\n      calldatasize\n      sub\n      dup2\n      add\n      swap1\n      tag_41\n      swap2\n      swap1\n      tag_42\n      jump\t// in\n    tag_41:\n      tag_43\n      jump\t// in\n    tag_40:\n      stop\n        /* \"contracts/DecentralizedCharity.sol\":950:1002  mapping(address => uint256) public donorTotalDonated */\n    tag_7:\n      callvalue\n      dup1\n      iszero\n      tag_44\n      jumpi\n      0x00\n      dup1\n      revert\n    tag_44:\n      pop\n      tag_45\n      0x04\n      dup1\n      calldatasize\n      sub\n      dup2\n      add\n      swap1\n      tag_46\n      swap2\n      swap1\n      tag_22\n      jump\t// in\n    tag_46:\n      tag_47\n      jump\t// in\n    tag_45:\n      mload(0x40)\n      tag_48\n      swap2\n      swap1\n      tag_39\n      jump\t// in\n    tag_48:\n      mload(0x40)\n      dup1\n      swap2\n      sub\n      swap1\n      return\n        /* \"contracts/DecentralizedCharity.sol\":1088:1131  mapping(uint256 => Auction) public auctions */\n    tag_8:\n      callvalue\n      dup1\n      iszero\n      tag_49\n      jumpi\n      0x00\n      dup1\n      revert\n    tag_49:\n      pop\n      tag_50\n      0x04\n      dup1\n      calldatasize\n      sub\n      dup2\n      add\n      swap1\n      tag_51\n      swap2\n      swap1\n      tag_42\n      jump\t// in\n    tag_51:\n      tag_52\n      jump\t// in\n    tag_50:\n      mload(0x40)\n      tag_53\n      swap7\n      swap6\n      swap5\n      swap4\n      swap3\n      swap2\n      swap1\n      tag_54\n      jump\t// in\n    tag_53:\n      mload(0x40)\n      dup1\n      swap2\n      sub\n      swap1\n      return\n        /* \"contracts/DecentralizedCharity.sol\":7124:7346  function getDonorMetrics(address _donor)\r... */\n    tag_9:\n      callvalue\n      dup1\n      iszero\n      tag_55\n      jumpi\n      0x00\n      dup1\n      revert\n    tag_55:\n      pop\n      tag_56\n      0x04\n      dup1\n      calldatasize\n      sub\n      dup2\n      add\n      swap1\n      tag_57\n      swap2\n      swap1\n      tag_22\n      jump\t// in\n    tag_57:\n      tag_58\n      jump\t// in\n    tag_56:\n      mload(0x40)\n      tag_59\n      swap3\n      swap2\n      swap1\n      tag_60\n      jump\t// in\n    tag_59:\n      mload(0x40)\n      dup1\n      swap2\n      sub\n      swap1\n      return\n        /* \"contracts/DecentralizedCharity.sol\":1821:2115  function registerCharity(string calldata _name) external {\r... */\n    tag_10:\n      callvalue\n      dup1\n      iszero\n      tag_61\n      jumpi\n      0x00\n      dup1\n      revert\n    tag_61:\n      pop\n      tag_62\n      0x04\n      dup1\n      calldatasize\n      sub\n      dup2\n      add\n      swap1\n      tag_63\n      swap2\n      swap1\n      tag_64\n      jump\t// in\n    tag_63:\n      tag_65\n      jump\t// in\n    tag_62:\n      stop\n        /* \"contracts/DecentralizedCharity.sol\":6607:6921  function getCharityMetrics(address _charity)\r... */\n    tag_11:\n      callvalue\n      dup1\n      iszero\n      tag_66\n      jumpi\n      0x00\n      dup1\n      revert\n    tag_66:\n      pop\n      tag_67\n      0x04\n      dup1\n      calldatasize\n      sub\n      dup2\n      add\n      swap1\n      tag_68\n      swap2\n      swap1\n      tag_22\n      jump\t// in\n    tag_68:\n      tag_69\n      jump\t// in\n    tag_67:\n      mload(0x40)\n      tag_70\n      swap3\n      swap2\n      swap1\n      tag_60\n      jump\t// in\n    tag_70:\n      mload(0x40)\n      dup1\n      swap2\n      sub\n      swap1\n      return\n        /* \"contracts/DecentralizedCharity.sol\":1009:1062  mapping(address => uint256) public donorDonationCount */\n    tag_12:\n      callvalue\n      dup1\n      iszero\n      tag_71\n      jumpi\n      0x00\n      dup1\n      revert\n    tag_71:\n      pop\n      tag_72\n      0x04\n      dup1\n      calldatasize\n      sub\n      dup2\n      add\n      swap1\n      tag_73\n      swap2\n      swap1\n      tag_22\n      jump\t// in\n    tag_73:\n      tag_74\n      jump\t// in\n    tag_72:\n      mload(0x40)\n      tag_75\n      swap2\n      swap1\n      tag_39\n      jump\t// in\n    tag_75:\n      mload(0x40)\n      dup1\n      swap2\n      sub\n      swap1\n      return\n        /* \"contracts/DecentralizedCharity.sol\":5561:5664  function getDonationsCount() external view returns (uint256) {\r... */\n    tag_13:\n      callvalue\n      dup1\n      iszero\n      tag_76\n      jumpi\n      0x00\n      dup1\n      revert\n    tag_76:\n      pop\n      tag_77\n      tag_78\n      jump\t// in\n    tag_77:\n      mload(0x40)\n      tag_79\n      swap2\n      swap1\n      tag_39\n      jump\t// in\n    tag_79:\n      mload(0x40)\n      dup1\n      swap2\n      sub\n      swap1\n      return\n        /* \"contracts/DecentralizedCharity.sol\":4678:5457  function finalizeAuction(uint256 _auctionId) external {\r... */\n    tag_14:\n      callvalue\n      dup1\n      iszero\n      tag_80\n      jumpi\n      0x00\n      dup1\n      revert\n    tag_80:\n      pop\n      tag_81\n      0x04\n      dup1\n      calldatasize\n      sub\n      dup2\n      add\n      swap1\n      tag_82\n      swap2\n      swap1\n      tag_42\n      jump\t// in\n    tag_82:\n      tag_83\n      jump\t// in\n    tag_81:\n      stop\n        /* \"contracts/DecentralizedCharity.sol\":5989:6397  function getDonation(uint256 _index)\r... */\n    tag_15:\n      callvalue\n      dup1\n      iszero\n      tag_84\n      jumpi\n      0x00\n      dup1\n      revert\n    tag_84:\n      pop\n      tag_85\n      0x04\n      dup1\n      calldatasize\n      sub\n      dup2\n      add\n      swap1\n      tag_86\n      swap2\n      swap1\n      tag_42\n      jump\t// in\n    tag_86:\n      tag_87\n      jump\t// in\n    tag_85:\n      mload(0x40)\n      tag_88\n      swap5\n      swap4\n      swap3\n      swap2\n      swap1\n      tag_89\n      jump\t// in\n    tag_88:\n      mload(0x40)\n      dup1\n      swap2\n      sub\n      swap1\n      return\n        /* \"contracts/DecentralizedCharity.sol\":888:915  Donation[] public donations */\n    tag_16:\n      callvalue\n      dup1\n      iszero\n      tag_90\n      jumpi\n      0x00\n      dup1\n      revert\n    tag_90:\n      pop\n      tag_91\n      0x04\n      dup1\n      calldatasize\n      sub\n      dup2\n      add\n      swap1\n      tag_92\n      swap2\n      swap1\n      tag_42\n      jump\t// in\n    tag_92:\n      tag_93\n      jump\t// in\n    tag_91:\n      mload(0x40)\n      tag_94\n      swap5\n      swap4\n      swap3\n      swap2\n      swap1\n      tag_89\n      jump\t// in\n    tag_94:\n      mload(0x40)\n      dup1\n      swap2\n      sub\n      swap1\n      return\n        /* \"contracts/DecentralizedCharity.sol\":2242:2999  function donate(address _charity) external payable {\r... */\n    tag_23:\n        /* \"contracts/DecentralizedCharity.sol\":2304:2321  Charity storage c */\n      0x00\n        /* \"contracts/DecentralizedCharity.sol\":2324:2333  charities */\n      dup1\n        /* \"contracts/DecentralizedCharity.sol\":2324:2343  charities[_charity] */\n      0x00\n        /* \"contracts/DecentralizedCharity.sol\":2334:2342  _charity */\n      dup4\n        /* \"contracts/DecentralizedCharity.sol\":2324:2343  charities[_charity] */\n      0xffffffffffffffffffffffffffffffffffffffff\n      and\n      0xffffffffffffffffffffffffffffffffffffffff\n      and\n      dup2\n      mstore\n      0x20\n      add\n      swap1\n      dup2\n      mstore\n      0x20\n      add\n      0x00\n      keccak256\n        /* \"contracts/DecentralizedCharity.sol\":2304:2343  Charity storage c = charities[_charity] */\n      swap1\n      pop\n        /* \"contracts/DecentralizedCharity.sol\":2362:2363  c */\n      dup1\n        /* \"contracts/DecentralizedCharity.sol\":2362:2374  c.registered */\n      0x02\n      add\n      0x00\n      swap1\n      sload\n      swap1\n      0x0100\n      exp\n      swap1\n      div\n      0xff\n      and\n        /* \"contracts/DecentralizedCharity.sol\":2354:2401  require(c.registered, \"Charity not registered\") */\n      tag_96\n      jumpi\n      mload(0x40)\n      0x08c379a000000000000000000000000000000000000000000000000000000000\n      dup2\n      mstore\n      0x04\n      add\n      tag_97\n      swap1\n      tag_98\n      jump\t// in\n    tag_97:\n      mload(0x40)\n      dup1\n      swap2\n      sub\n      swap1\n      revert\n    tag_96:\n        /* \"contracts/DecentralizedCharity.sol\":2432:2433  0 */\n      0x00\n        /* \"contracts/DecentralizedCharity.sol\":2420:2429  msg.value */\n      callvalue\n        /* \"contracts/DecentralizedCharity.sol\":2420:2433  msg.value > 0 */\n      gt\n        /* \"contracts/DecentralizedCharity.sol\":2412:2472  require(msg.value > 0, \"Donation must be greater than zero\") */\n      tag_99\n      jumpi\n      mload(0x40)\n      0x08c379a000000000000000000000000000000000000000000000000000000000\n      dup2\n      mstore\n      0x04\n      add\n      tag_100\n      swap1\n      tag_101\n      jump\t// in\n    tag_100:\n      mload(0x40)\n      dup1\n      swap2\n      sub\n      swap1\n      revert\n    tag_99:\n        /* \"contracts/DecentralizedCharity.sol\":2513:2522  donations */\n      0x01\n        /* \"contracts/DecentralizedCharity.sol\":2528:2586  Donation(msg.sender, _charity, msg.value, block.timestamp) */\n      mload(0x40)\n      dup1\n      0x80\n      add\n      0x40\n      mstore\n      dup1\n        /* \"contracts/DecentralizedCharity.sol\":2537:2547  msg.sender */\n      caller\n        /* \"contracts/DecentralizedCharity.sol\":2528:2586  Donation(msg.sender, _charity, msg.value, block.timestamp) */\n      0xffffffffffffffffffffffffffffffffffffffff\n      and\n      dup2\n      mstore\n      0x20\n      add\n        /* \"contracts/DecentralizedCharity.sol\":2549:2557  _charity */\n      dup5\n        /* \"contracts/DecentralizedCharity.sol\":2528:2586  Donation(msg.sender, _charity, msg.value, block.timestamp) */\n      0xffffffffffffffffffffffffffffffffffffffff\n      and\n      dup2\n      mstore\n      0x20\n      add\n        /* \"contracts/DecentralizedCharity.sol\":2559:2568  msg.value */\n      callvalue\n        /* \"contracts/DecentralizedCharity.sol\":2528:2586  Donation(msg.sender, _charity, msg.value, block.timestamp) */\n      dup2\n      mstore\n      0x20\n      add\n        /* \"contracts/DecentralizedCharity.sol\":2570:2585  block.timestamp */\n      timestamp\n        /* \"contracts/DecentralizedCharity.sol\":2528:2586  Donation(msg.sender, _charity, msg.value, block.timestamp) */\n      dup2\n      mstore\n      pop\n        /* \"contracts/DecentralizedCharity.sol\":2513:2587  donations.push(Donation(msg.sender, _charity, msg.value, block.timestamp)) */\n      swap1\n      dup1\n      0x01\n      dup2\n      sload\n      add\n      dup1\n      dup3\n      sstore\n      dup1\n      swap2\n      pop\n      pop\n      0x01\n      swap1\n      sub\n      swap1\n      0x00\n      mstore\n      keccak256(0x00, 0x20)\n      swap1\n      0x04\n      mul\n      add\n      0x00\n      swap1\n      swap2\n      swap1\n      swap2\n      swap1\n      swap2\n      pop\n      0x00\n      dup3\n      add\n      mload\n      dup2\n      0x00\n      add\n      exp(0x0100, 0x00)\n      dup2\n      sload\n      dup2\n      0xffffffffffffffffffffffffffffffffffffffff\n      mul\n      not\n      and\n      swap1\n      dup4\n      0xffffffffffffffffffffffffffffffffffffffff\n      and\n      mul\n      or\n      swap1\n      sstore\n      pop\n      0x20\n      dup3\n      add\n      mload\n      dup2\n      0x01\n      add\n      exp(0x0100, 0x00)\n      dup2\n      sload\n      dup2\n      0xffffffffffffffffffffffffffffffffffffffff\n      mul\n      not\n      and\n      swap1\n      dup4\n      0xffffffffffffffffffffffffffffffffffffffff\n      and\n      mul\n      or\n      swap1\n      sstore\n      pop\n      0x40\n      dup3\n      add\n      mload\n      dup2\n      0x02\n      add\n      sstore\n      0x60\n      dup3\n      add\n      mload\n      dup2\n      0x03\n      add\n      sstore\n      pop\n      pop\n        /* \"contracts/DecentralizedCharity.sol\":2618:2627  msg.value */\n      callvalue\n        /* \"contracts/DecentralizedCharity.sol\":2598:2599  c */\n      dup2\n        /* \"contracts/DecentralizedCharity.sol\":2598:2614  c.totalDonations */\n      0x03\n      add\n      0x00\n        /* \"contracts/DecentralizedCharity.sol\":2598:2627  c.totalDonations += msg.value */\n      dup3\n      dup3\n      sload\n      tag_103\n      swap2\n      swap1\n      tag_104\n      jump\t// in\n    tag_103:\n      swap3\n      pop\n      pop\n      dup2\n      swap1\n      sstore\n      pop\n        /* \"contracts/DecentralizedCharity.sol\":2657:2658  1 */\n      0x01\n        /* \"contracts/DecentralizedCharity.sol\":2638:2639  c */\n      dup2\n        /* \"contracts/DecentralizedCharity.sol\":2638:2653  c.donationCount */\n      0x04\n      add\n      0x00\n        /* \"contracts/DecentralizedCharity.sol\":2638:2658  c.donationCount += 1 */\n      dup3\n      dup3\n      sload\n      tag_105\n      swap2\n      swap1\n      tag_104\n      jump\t// in\n    tag_105:\n      swap3\n      pop\n      pop\n      dup2\n      swap1\n      sstore\n      pop\n        /* \"contracts/DecentralizedCharity.sol\":2702:2711  msg.value */\n      callvalue\n        /* \"contracts/DecentralizedCharity.sol\":2669:2686  donorTotalDonated */\n      0x02\n        /* \"contracts/DecentralizedCharity.sol\":2669:2698  donorTotalDonated[msg.sender] */\n      0x00\n        /* \"contracts/DecentralizedCharity.sol\":2687:2697  msg.sender */\n      caller\n        /* \"contracts/DecentralizedCharity.sol\":2669:2698  donorTotalDonated[msg.sender] */\n      0xffffffffffffffffffffffffffffffffffffffff\n      and\n      0xffffffffffffffffffffffffffffffffffffffff\n      and\n      dup2\n      mstore\n      0x20\n      add\n      swap1\n      dup2\n      mstore\n      0x20\n      add\n      0x00\n      keccak256\n      0x00\n        /* \"contracts/DecentralizedCharity.sol\":2669:2711  donorTotalDonated[msg.sender] += msg.value */\n      dup3\n      dup3\n      sload\n      tag_106\n      swap2\n      swap1\n      tag_104\n      jump\t// in\n    tag_106:\n      swap3\n      pop\n      pop\n      dup2\n      swap1\n      sstore\n      pop\n        /* \"contracts/DecentralizedCharity.sol\":2756:2757  1 */\n      0x01\n        /* \"contracts/DecentralizedCharity.sol\":2722:2740  donorDonationCount */\n      0x03\n        /* \"contracts/DecentralizedCharity.sol\":2722:2752  donorDonationCount[msg.sender] */\n      0x00\n        /* \"contracts/DecentralizedCharity.sol\":2741:2751  msg.sender */\n      caller\n        /* \"contracts/DecentralizedCharity.sol\":2722:2752  donorDonationCount[msg.sender] */\n      0xffffffffffffffffffffffffffffffffffffffff\n      and\n      0xffffffffffffffffffffffffffffffffffffffff\n      and\n      dup2\n      mstore\n      0x20\n      add\n      swap1\n      dup2\n      mstore\n      0x20\n      add\n      0x00\n      keccak256\n      0x00\n        /* \"contracts/DecentralizedCharity.sol\":2722:2757  donorDonationCount[msg.sender] += 1 */\n      dup3\n      dup3\n      sload\n      tag_107\n      swap2\n      swap1\n      tag_104\n      jump\t// in\n    tag_107:\n      swap3\n      pop\n      pop\n      dup2\n      swap1\n      sstore\n      pop\n        /* \"contracts/DecentralizedCharity.sol\":2815:2824  bool sent */\n      0x00\n        /* \"contracts/DecentralizedCharity.sol\":2830:2831  c */\n      dup2\n        /* \"contracts/DecentralizedCharity.sol\":2830:2837  c.owner */\n      0x00\n      add\n      0x00\n      swap1\n      sload\n      swap1\n      0x0100\n      exp\n      swap1\n      div\n      0xffffffffffffffffffffffffffffffffffffffff\n      and\n        /* \"contracts/DecentralizedCharity.sol\":2830:2842  c.owner.call */\n      0xffffffffffffffffffffffffffffffffffffffff\n      and\n        /* \"contracts/DecentralizedCharity.sol\":2850:2859  msg.value */\n      callvalue\n        /* \"contracts/DecentralizedCharity.sol\":2830:2864  c.owner.call{value: msg.value}(\"\") */\n      mload(0x40)\n      tag_108\n      swap1\n      tag_109\n      jump\t// in\n    tag_108:\n      0x00\n      mload(0x40)\n      dup1\n      dup4\n      sub\n      dup2\n      dup6\n      dup8\n      gas\n      call\n      swap3\n      pop\n      pop\n      pop\n      returndatasize\n      dup1\n      0x00\n      dup2\n      eq\n      tag_112\n      jumpi\n      mload(0x40)\n      swap2\n      pop\n      and(add(returndatasize, 0x3f), not(0x1f))\n      dup3\n      add\n      0x40\n      mstore\n      returndatasize\n      dup3\n      mstore\n      returndatasize\n      0x00\n      0x20\n      dup5\n      add\n      returndatacopy\n      jump(tag_111)\n    tag_112:\n      0x60\n      swap2\n      pop\n    tag_111:\n      pop\n        /* \"contracts/DecentralizedCharity.sol\":2814:2864  (bool sent, ) = c.owner.call{value: msg.value}(\"\") */\n      pop\n      swap1\n      pop\n        /* \"contracts/DecentralizedCharity.sol\":2883:2887  sent */\n      dup1\n        /* \"contracts/DecentralizedCharity.sol\":2875:2907  require(sent, \"Transfer failed\") */\n      tag_113\n      jumpi\n      mload(0x40)\n      0x08c379a000000000000000000000000000000000000000000000000000000000\n      dup2\n      mstore\n      0x04\n      add\n      tag_114\n      swap1\n      tag_115\n      jump\t// in\n    tag_114:\n      mload(0x40)\n      dup1\n      swap2\n      sub\n      swap1\n      revert\n    tag_113:\n        /* \"contracts/DecentralizedCharity.sol\":2954:2962  _charity */\n      dup3\n        /* \"contracts/DecentralizedCharity.sol\":2925:2991  DonationReceived(msg.sender, _charity, msg.value, block.timestamp) */\n      0xffffffffffffffffffffffffffffffffffffffff\n      and\n        /* \"contracts/DecentralizedCharity.sol\":2942:2952  msg.sender */\n      caller\n        /* \"contracts/DecentralizedCharity.sol\":2925:2991  DonationReceived(msg.sender, _charity, msg.value, block.timestamp) */\n      0xffffffffffffffffffffffffffffffffffffffff\n      and\n      0xce9409ee3dc10e35de83dda0f830e4a13935452188fe71a956b850ecb839425f\n        /* \"contracts/DecentralizedCharity.sol\":2964:2973  msg.value */\n      callvalue\n        /* \"contracts/DecentralizedCharity.sol\":2975:2990  block.timestamp */\n      timestamp\n        /* \"contracts/DecentralizedCharity.sol\":2925:2991  DonationReceived(msg.sender, _charity, msg.value, block.timestamp) */\n      mload(0x40)\n      tag_116\n      swap3\n      swap2\n      swap1\n      tag_60\n      jump\t// in\n    tag_116:\n      mload(0x40)\n      dup1\n      swap2\n      sub\n      swap1\n      log3\n        /* \"contracts/DecentralizedCharity.sol\":2242:2999  function donate(address _charity) external payable {\r... */\n      pop\n      pop\n      pop\n      jump\t// out\n        /* \"contracts/DecentralizedCharity.sol\":3188:3804  function createAuction(uint256 _startTime, uint256 _endTime) external {\r... */\n    tag_28:\n        /* \"contracts/DecentralizedCharity.sol\":3269:3286  Charity storage c */\n      0x00\n        /* \"contracts/DecentralizedCharity.sol\":3289:3298  charities */\n      dup1\n        /* \"contracts/DecentralizedCharity.sol\":3289:3310  charities[msg.sender] */\n      0x00\n        /* \"contracts/DecentralizedCharity.sol\":3299:3309  msg.sender */\n      caller\n        /* \"contracts/DecentralizedCharity.sol\":3289:3310  charities[msg.sender] */\n      0xffffffffffffffffffffffffffffffffffffffff\n      and\n      0xffffffffffffffffffffffffffffffffffffffff\n      and\n      dup2\n      mstore\n      0x20\n      add\n      swap1\n      dup2\n      mstore\n      0x20\n      add\n      0x00\n      keccak256\n        /* \"contracts/DecentralizedCharity.sol\":3269:3310  Charity storage c = charities[msg.sender] */\n      swap1\n      pop\n        /* \"contracts/DecentralizedCharity.sol\":3329:3330  c */\n      dup1\n        /* \"contracts/DecentralizedCharity.sol\":3329:3341  c.registered */\n      0x02\n      add\n      0x00\n      swap1\n      sload\n      swap1\n      0x0100\n      exp\n      swap1\n      div\n      0xff\n      and\n        /* \"contracts/DecentralizedCharity.sol\":3321:3368  require(c.registered, \"Charity not registered\") */\n      tag_118\n      jumpi\n      mload(0x40)\n      0x08c379a000000000000000000000000000000000000000000000000000000000\n      dup2\n      mstore\n      0x04\n      add\n      tag_119\n      swap1\n      tag_98\n      jump\t// in\n    tag_119:\n      mload(0x40)\n      dup1\n      swap2\n      sub\n      swap1\n      revert\n    tag_118:\n        /* \"contracts/DecentralizedCharity.sol\":3400:3408  _endTime */\n      dup2\n        /* \"contracts/DecentralizedCharity.sol\":3387:3397  _startTime */\n      dup4\n        /* \"contracts/DecentralizedCharity.sol\":3387:3408  _startTime < _endTime */\n      lt\n        /* \"contracts/DecentralizedCharity.sol\":3379:3432  require(_startTime < _endTime, \"Invalid time window\") */\n      tag_120\n      jumpi\n      mload(0x40)\n      0x08c379a000000000000000000000000000000000000000000000000000000000\n      dup2\n      mstore\n      0x04\n      add\n      tag_121\n      swap1\n      tag_122\n      jump\t// in\n    tag_121:\n      mload(0x40)\n      dup1\n      swap2\n      sub\n      swap1\n      revert\n    tag_120:\n        /* \"contracts/DecentralizedCharity.sol\":3462:3477  block.timestamp */\n      timestamp\n        /* \"contracts/DecentralizedCharity.sol\":3451:3459  _endTime */\n      dup3\n        /* \"contracts/DecentralizedCharity.sol\":3451:3477  _endTime > block.timestamp */\n      gt\n        /* \"contracts/DecentralizedCharity.sol\":3443:3503  require(_endTime > block.timestamp, \"End must be in future\") */\n      tag_123\n      jumpi\n      mload(0x40)\n      0x08c379a000000000000000000000000000000000000000000000000000000000\n      dup2\n      mstore\n      0x04\n      add\n      tag_124\n      swap1\n      tag_125\n      jump\t// in\n    tag_124:\n      mload(0x40)\n      dup1\n      swap2\n      sub\n      swap1\n      revert\n    tag_123:\n        /* \"contracts/DecentralizedCharity.sol\":3541:3693  Auction(\r... */\n      mload(0x40)\n      dup1\n      0xc0\n      add\n      0x40\n      mstore\n      dup1\n        /* \"contracts/DecentralizedCharity.sol\":3563:3573  msg.sender */\n      caller\n        /* \"contracts/DecentralizedCharity.sol\":3541:3693  Auction(\r... */\n      0xffffffffffffffffffffffffffffffffffffffff\n      and\n      dup2\n      mstore\n      0x20\n      add\n        /* \"contracts/DecentralizedCharity.sol\":3588:3598  _startTime */\n      dup5\n        /* \"contracts/DecentralizedCharity.sol\":3541:3693  Auction(\r... */\n      dup2\n      mstore\n      0x20\n      add\n        /* \"contracts/DecentralizedCharity.sol\":3613:3621  _endTime */\n      dup4\n        /* \"contracts/DecentralizedCharity.sol\":3541:3693  Auction(\r... */\n      dup2\n      mstore\n      0x20\n      add\n        /* \"contracts/DecentralizedCharity.sol\":3644:3645  0 */\n      0x00\n        /* \"contracts/DecentralizedCharity.sol\":3541:3693  Auction(\r... */\n      0xffffffffffffffffffffffffffffffffffffffff\n      and\n      dup2\n      mstore\n      0x20\n      add\n        /* \"contracts/DecentralizedCharity.sol\":3661:3662  0 */\n      0x00\n        /* \"contracts/DecentralizedCharity.sol\":3541:3693  Auction(\r... */\n      dup2\n      mstore\n      0x20\n      add\n        /* \"contracts/DecentralizedCharity.sol\":3677:3682  false */\n      0x00\n        /* \"contracts/DecentralizedCharity.sol\":3541:3693  Auction(\r... */\n      iszero\n      iszero\n      dup2\n      mstore\n      pop\n        /* \"contracts/DecentralizedCharity.sol\":3516:3524  auctions */\n      0x04\n        /* \"contracts/DecentralizedCharity.sol\":3516:3538  auctions[auctionCount] */\n      0x00\n        /* \"contracts/DecentralizedCharity.sol\":3525:3537  auctionCount */\n      sload(0x05)\n        /* \"contracts/DecentralizedCharity.sol\":3516:3538  auctions[auctionCount] */\n      dup2\n      mstore\n      0x20\n      add\n      swap1\n      dup2\n      mstore\n      0x20\n      add\n      0x00\n      keccak256\n        /* \"contracts/DecentralizedCharity.sol\":3516:3693  auctions[auctionCount] = Auction(\r... */\n      0x00\n      dup3\n      add\n      mload\n      dup2\n      0x00\n      add\n      exp(0x0100, 0x00)\n      dup2\n      sload\n      dup2\n      0xffffffffffffffffffffffffffffffffffffffff\n      mul\n      not\n      and\n      swap1\n      dup4\n      0xffffffffffffffffffffffffffffffffffffffff\n      and\n      mul\n      or\n      swap1\n      sstore\n      pop\n      0x20\n      dup3\n      add\n      mload\n      dup2\n      0x01\n      add\n      sstore\n      0x40\n      dup3\n      add\n      mload\n      dup2\n      0x02\n      add\n      sstore\n      0x60\n      dup3\n      add\n      mload\n      dup2\n      0x03\n      add\n      exp(0x0100, 0x00)\n      dup2\n      sload\n      dup2\n      0xffffffffffffffffffffffffffffffffffffffff\n      mul\n      not\n      and\n      swap1\n      dup4\n      0xffffffffffffffffffffffffffffffffffffffff\n      and\n      mul\n      or\n      swap1\n      sstore\n      pop\n      0x80\n      dup3\n      add\n      mload\n      dup2\n      0x04\n      add\n      sstore\n      0xa0\n      dup3\n      add\n      mload\n      dup2\n      0x05\n      add\n      exp(0x0100, 0x00)\n      dup2\n      sload\n      dup2\n      0xff\n      mul\n      not\n      and\n      swap1\n      dup4\n      iszero\n      iszero\n      mul\n      or\n      swap1\n      sstore\n      pop\n      swap1\n      pop\n      pop\n        /* \"contracts/DecentralizedCharity.sol\":3738:3748  msg.sender */\n      caller\n        /* \"contracts/DecentralizedCharity.sol\":3709:3771  AuctionCreated(auctionCount, msg.sender, _startTime, _endTime) */\n      0xffffffffffffffffffffffffffffffffffffffff\n      and\n        /* \"contracts/DecentralizedCharity.sol\":3724:3736  auctionCount */\n      sload(0x05)\n        /* \"contracts/DecentralizedCharity.sol\":3709:3771  AuctionCreated(auctionCount, msg.sender, _startTime, _endTime) */\n      0xc9050d42180a61cb0d9ebb8ad118b62fe6eab12cf12ff752c4a0cc7da9ddf627\n        /* \"contracts/DecentralizedCharity.sol\":3750:3760  _startTime */\n      dup6\n        /* \"contracts/DecentralizedCharity.sol\":3762:3770  _endTime */\n      dup6\n        /* \"contracts/DecentralizedCharity.sol\":3709:3771  AuctionCreated(auctionCount, msg.sender, _startTime, _endTime) */\n      mload(0x40)\n      tag_126\n      swap3\n      swap2\n      swap1\n      tag_60\n      jump\t// in\n    tag_126:\n      mload(0x40)\n      dup1\n      swap2\n      sub\n      swap1\n      log3\n        /* \"contracts/DecentralizedCharity.sol\":3782:3794  auctionCount */\n      0x05\n      0x00\n        /* \"contracts/DecentralizedCharity.sol\":3782:3796  auctionCount++ */\n      dup2\n      sload\n      dup1\n      swap3\n      swap2\n      swap1\n      tag_127\n      swap1\n      tag_128\n      jump\t// in\n    tag_127:\n      swap2\n      swap1\n      pop\n      sstore\n      pop\n        /* \"contracts/DecentralizedCharity.sol\":3188:3804  function createAuction(uint256 _startTime, uint256 _endTime) external {\r... */\n      pop\n      pop\n      pop\n      jump\t// out\n        /* \"contracts/DecentralizedCharity.sol\":807:851  mapping(address => Charity) public charities */\n    tag_32:\n      mstore(0x20, 0x00)\n      dup1\n      0x00\n      mstore\n      keccak256(0x00, 0x40)\n      0x00\n      swap2\n      pop\n      swap1\n      pop\n      dup1\n      0x00\n      add\n      0x00\n      swap1\n      sload\n      swap1\n      0x0100\n      exp\n      swap1\n      div\n      0xffffffffffffffffffffffffffffffffffffffff\n      and\n      swap1\n      dup1\n      0x01\n      add\n      dup1\n      sload\n      tag_129\n      swap1\n      tag_130\n      jump\t// in\n    tag_129:\n      dup1\n      0x1f\n      add\n      0x20\n      dup1\n      swap2\n      div\n      mul\n      0x20\n      add\n      mload(0x40)\n      swap1\n      dup2\n      add\n      0x40\n      mstore\n      dup1\n      swap3\n      swap2\n      swap1\n      dup2\n      dup2\n      mstore\n      0x20\n      add\n      dup3\n      dup1\n      sload\n      tag_131\n      swap1\n      tag_130\n      jump\t// in\n    tag_131:\n      dup1\n      iszero\n      tag_132\n      jumpi\n      dup1\n      0x1f\n      lt\n      tag_133\n      jumpi\n      0x0100\n      dup1\n      dup4\n      sload\n      div\n      mul\n      dup4\n      mstore\n      swap2\n      0x20\n      add\n      swap2\n      jump(tag_132)\n    tag_133:\n      dup3\n      add\n      swap2\n      swap1\n      0x00\n      mstore\n      keccak256(0x00, 0x20)\n      swap1\n    tag_134:\n      dup2\n      sload\n      dup2\n      mstore\n      swap1\n      0x01\n      add\n      swap1\n      0x20\n      add\n      dup1\n      dup4\n      gt\n      tag_134\n      jumpi\n      dup3\n      swap1\n      sub\n      0x1f\n      and\n      dup3\n      add\n      swap2\n    tag_132:\n      pop\n      pop\n      pop\n      pop\n      pop\n      swap1\n      dup1\n      0x02\n      add\n      0x00\n      swap1\n      sload\n      swap1\n      0x0100\n      exp\n      swap1\n      div\n      0xff\n      and\n      swap1\n      dup1\n      0x03\n      add\n      sload\n      swap1\n      dup1\n      0x04\n      add\n      sload\n      swap1\n      pop\n      dup6\n      jump\t// out\n        /* \"contracts/DecentralizedCharity.sol\":1138:1165  uint256 public auctionCount */\n    tag_37:\n      sload(0x05)\n      dup2\n      jump\t// out\n        /* \"contracts/DecentralizedCharity.sol\":3911:4550  function bid(uint256 _auctionId) external payable {\r... */\n    tag_43:\n        /* \"contracts/DecentralizedCharity.sol\":3972:3989  Auction storage a */\n      0x00\n        /* \"contracts/DecentralizedCharity.sol\":3992:4000  auctions */\n      0x04\n        /* \"contracts/DecentralizedCharity.sol\":3992:4012  auctions[_auctionId] */\n      0x00\n        /* \"contracts/DecentralizedCharity.sol\":4001:4011  _auctionId */\n      dup4\n        /* \"contracts/DecentralizedCharity.sol\":3992:4012  auctions[_auctionId] */\n      dup2\n      mstore\n      0x20\n      add\n      swap1\n      dup2\n      mstore\n      0x20\n      add\n      0x00\n      keccak256\n        /* \"contracts/DecentralizedCharity.sol\":3972:4012  Auction storage a = auctions[_auctionId] */\n      swap1\n      pop\n        /* \"contracts/DecentralizedCharity.sol\":4050:4051  a */\n      dup1\n        /* \"contracts/DecentralizedCharity.sol\":4050:4061  a.startTime */\n      0x01\n      add\n      sload\n        /* \"contracts/DecentralizedCharity.sol\":4031:4046  block.timestamp */\n      timestamp\n        /* \"contracts/DecentralizedCharity.sol\":4031:4061  block.timestamp >= a.startTime */\n      lt\n      iszero\n        /* \"contracts/DecentralizedCharity.sol\":4031:4093  block.timestamp >= a.startTime && block.timestamp <= a.endTime */\n      dup1\n      iszero\n      tag_136\n      jumpi\n      pop\n        /* \"contracts/DecentralizedCharity.sol\":4084:4085  a */\n      dup1\n        /* \"contracts/DecentralizedCharity.sol\":4084:4093  a.endTime */\n      0x02\n      add\n      sload\n        /* \"contracts/DecentralizedCharity.sol\":4065:4080  block.timestamp */\n      timestamp\n        /* \"contracts/DecentralizedCharity.sol\":4065:4093  block.timestamp <= a.endTime */\n      gt\n      iszero\n        /* \"contracts/DecentralizedCharity.sol\":4031:4093  block.timestamp >= a.startTime && block.timestamp <= a.endTime */\n    tag_136:\n        /* \"contracts/DecentralizedCharity.sol\":4023:4116  require(block.timestamp >= a.startTime && block.timestamp <= a.endTime, \"Auction not active\") */\n      tag_137\n      jumpi\n      mload(0x40)\n      0x08c379a000000000000000000000000000000000000000000000000000000000\n      dup2\n      mstore\n      0x04\n      add\n      tag_138\n      swap1\n      tag_139\n      jump\t// in\n    tag_138:\n      mload(0x40)\n      dup1\n      swap2\n      sub\n      swap1\n      revert\n    tag_137:\n        /* \"contracts/DecentralizedCharity.sol\":4147:4148  a */\n      dup1\n        /* \"contracts/DecentralizedCharity.sol\":4147:4159  a.highestBid */\n      0x04\n      add\n      sload\n        /* \"contracts/DecentralizedCharity.sol\":4135:4144  msg.value */\n      callvalue\n        /* \"contracts/DecentralizedCharity.sol\":4135:4159  msg.value > a.highestBid */\n      gt\n        /* \"contracts/DecentralizedCharity.sol\":4127:4175  require(msg.value > a.highestBid, \"Bid too low\") */\n      tag_140\n      jumpi\n      mload(0x40)\n      0x08c379a000000000000000000000000000000000000000000000000000000000\n      dup2\n      mstore\n      0x04\n      add\n      tag_141\n      swap1\n      tag_142\n      jump\t// in\n    tag_141:\n      mload(0x40)\n      dup1\n      swap2\n      sub\n      swap1\n      revert\n    tag_140:\n        /* \"contracts/DecentralizedCharity.sol\":4262:4263  0 */\n      0x00\n        /* \"contracts/DecentralizedCharity.sol\":4235:4264  a.highestBidder != address(0) */\n      0xffffffffffffffffffffffffffffffffffffffff\n      and\n        /* \"contracts/DecentralizedCharity.sol\":4235:4236  a */\n      dup2\n        /* \"contracts/DecentralizedCharity.sol\":4235:4250  a.highestBidder */\n      0x03\n      add\n      0x00\n      swap1\n      sload\n      swap1\n      0x0100\n      exp\n      swap1\n      div\n      0xffffffffffffffffffffffffffffffffffffffff\n      and\n        /* \"contracts/DecentralizedCharity.sol\":4235:4264  a.highestBidder != address(0) */\n      0xffffffffffffffffffffffffffffffffffffffff\n      and\n      eq\n        /* \"contracts/DecentralizedCharity.sol\":4231:4407  if (a.highestBidder != address(0)) {\r... */\n      tag_143\n      jumpi\n        /* \"contracts/DecentralizedCharity.sol\":4282:4295  bool refunded */\n      0x00\n        /* \"contracts/DecentralizedCharity.sol\":4301:4302  a */\n      dup2\n        /* \"contracts/DecentralizedCharity.sol\":4301:4316  a.highestBidder */\n      0x03\n      add\n      0x00\n      swap1\n      sload\n      swap1\n      0x0100\n      exp\n      swap1\n      div\n      0xffffffffffffffffffffffffffffffffffffffff\n      and\n        /* \"contracts/DecentralizedCharity.sol\":4301:4321  a.highestBidder.call */\n      0xffffffffffffffffffffffffffffffffffffffff\n      and\n        /* \"contracts/DecentralizedCharity.sol\":4329:4330  a */\n      dup3\n        /* \"contracts/DecentralizedCharity.sol\":4329:4341  a.highestBid */\n      0x04\n      add\n      sload\n        /* \"contracts/DecentralizedCharity.sol\":4301:4346  a.highestBidder.call{value: a.highestBid}(\"\") */\n      mload(0x40)\n      tag_144\n      swap1\n      tag_109\n      jump\t// in\n    tag_144:\n      0x00\n      mload(0x40)\n      dup1\n      dup4\n      sub\n      dup2\n      dup6\n      dup8\n      gas\n      call\n      swap3\n      pop\n      pop\n      pop\n      returndatasize\n      dup1\n      0x00\n      dup2\n      eq\n      tag_147\n      jumpi\n      mload(0x40)\n      swap2\n      pop\n      and(add(returndatasize, 0x3f), not(0x1f))\n      dup3\n      add\n      0x40\n      mstore\n      returndatasize\n      dup3\n      mstore\n      returndatasize\n      0x00\n      0x20\n      dup5\n      add\n      returndatacopy\n      jump(tag_146)\n    tag_147:\n      0x60\n      swap2\n      pop\n    tag_146:\n      pop\n        /* \"contracts/DecentralizedCharity.sol\":4281:4346  (bool refunded, ) = a.highestBidder.call{value: a.highestBid}(\"\") */\n      pop\n      swap1\n      pop\n        /* \"contracts/DecentralizedCharity.sol\":4369:4377  refunded */\n      dup1\n        /* \"contracts/DecentralizedCharity.sol\":4361:4395  require(refunded, \"Refund failed\") */\n      tag_148\n      jumpi\n      mload(0x40)\n      0x08c379a000000000000000000000000000000000000000000000000000000000\n      dup2\n      mstore\n      0x04\n      add\n      tag_149\n      swap1\n      tag_150\n      jump\t// in\n    tag_149:\n      mload(0x40)\n      dup1\n      swap2\n      sub\n      swap1\n      revert\n    tag_148:\n        /* \"contracts/DecentralizedCharity.sol\":4231:4407  if (a.highestBidder != address(0)) {\r... */\n      pop\n    tag_143:\n        /* \"contracts/DecentralizedCharity.sol\":4434:4443  msg.value */\n      callvalue\n        /* \"contracts/DecentralizedCharity.sol\":4419:4420  a */\n      dup2\n        /* \"contracts/DecentralizedCharity.sol\":4419:4431  a.highestBid */\n      0x04\n      add\n        /* \"contracts/DecentralizedCharity.sol\":4419:4443  a.highestBid = msg.value */\n      dup2\n      swap1\n      sstore\n      pop\n        /* \"contracts/DecentralizedCharity.sol\":4472:4482  msg.sender */\n      caller\n        /* \"contracts/DecentralizedCharity.sol\":4454:4455  a */\n      dup2\n        /* \"contracts/DecentralizedCharity.sol\":4454:4469  a.highestBidder */\n      0x03\n      add\n      0x00\n        /* \"contracts/DecentralizedCharity.sol\":4454:4482  a.highestBidder = msg.sender */\n      0x0100\n      exp\n      dup2\n      sload\n      dup2\n      0xffffffffffffffffffffffffffffffffffffffff\n      mul\n      not\n      and\n      swap1\n      dup4\n      0xffffffffffffffffffffffffffffffffffffffff\n      and\n      mul\n      or\n      swap1\n      sstore\n      pop\n        /* \"contracts/DecentralizedCharity.sol\":4520:4530  msg.sender */\n      caller\n        /* \"contracts/DecentralizedCharity.sol\":4498:4542  BidPlaced(_auctionId, msg.sender, msg.value) */\n      0xffffffffffffffffffffffffffffffffffffffff\n      and\n        /* \"contracts/DecentralizedCharity.sol\":4508:4518  _auctionId */\n      dup3\n        /* \"contracts/DecentralizedCharity.sol\":4498:4542  BidPlaced(_auctionId, msg.sender, msg.value) */\n      0x0e54eff26401bf69b81b26f60bd85ef47f5d85275c1d268d84f68d6897431c47\n        /* \"contracts/DecentralizedCharity.sol\":4532:4541  msg.value */\n      callvalue\n        /* \"contracts/DecentralizedCharity.sol\":4498:4542  BidPlaced(_auctionId, msg.sender, msg.value) */\n      mload(0x40)\n      tag_151\n      swap2\n      swap1\n      tag_39\n      jump\t// in\n    tag_151:\n      mload(0x40)\n      dup1\n      swap2\n      sub\n      swap1\n      log3\n        /* \"contracts/DecentralizedCharity.sol\":3911:4550  function bid(uint256 _auctionId) external payable {\r... */\n      pop\n      pop\n      jump\t// out\n        /* \"contracts/DecentralizedCharity.sol\":950:1002  mapping(address => uint256) public donorTotalDonated */\n    tag_47:\n      mstore(0x20, 0x02)\n      dup1\n      0x00\n      mstore\n      keccak256(0x00, 0x40)\n      0x00\n      swap2\n      pop\n      swap1\n      pop\n      sload\n      dup2\n      jump\t// out\n        /* \"contracts/DecentralizedCharity.sol\":1088:1131  mapping(uint256 => Auction) public auctions */\n    tag_52:\n      mstore(0x20, 0x04)\n      dup1\n      0x00\n      mstore\n      keccak256(0x00, 0x40)\n      0x00\n      swap2\n      pop\n      swap1\n      pop\n      dup1\n      0x00\n      add\n      0x00\n      swap1\n      sload\n      swap1\n      0x0100\n      exp\n      swap1\n      div\n      0xffffffffffffffffffffffffffffffffffffffff\n      and\n      swap1\n      dup1\n      0x01\n      add\n      sload\n      swap1\n      dup1\n      0x02\n      add\n      sload\n      swap1\n      dup1\n      0x03\n      add\n      0x00\n      swap1\n      sload\n      swap1\n      0x0100\n      exp\n      swap1\n      div\n      0xffffffffffffffffffffffffffffffffffffffff\n      and\n      swap1\n      dup1\n      0x04\n      add\n      sload\n      swap1\n      dup1\n      0x05\n      add\n      0x00\n      swap1\n      sload\n      swap1\n      0x0100\n      exp\n      swap1\n      div\n      0xff\n      and\n      swap1\n      pop\n      dup7\n      jump\t// out\n        /* \"contracts/DecentralizedCharity.sol\":7124:7346  function getDonorMetrics(address _donor)\r... */\n    tag_58:\n        /* \"contracts/DecentralizedCharity.sol\":7215:7235  uint256 totalDonated */\n      0x00\n        /* \"contracts/DecentralizedCharity.sol\":7237:7258  uint256 donationCount */\n      dup1\n        /* \"contracts/DecentralizedCharity.sol\":7284:7301  donorTotalDonated */\n      0x02\n        /* \"contracts/DecentralizedCharity.sol\":7284:7309  donorTotalDonated[_donor] */\n      0x00\n        /* \"contracts/DecentralizedCharity.sol\":7302:7308  _donor */\n      dup5\n        /* \"contracts/DecentralizedCharity.sol\":7284:7309  donorTotalDonated[_donor] */\n      0xffffffffffffffffffffffffffffffffffffffff\n      and\n      0xffffffffffffffffffffffffffffffffffffffff\n      and\n      dup2\n      mstore\n      0x20\n      add\n      swap1\n      dup2\n      mstore\n      0x20\n      add\n      0x00\n      keccak256\n      sload\n        /* \"contracts/DecentralizedCharity.sol\":7311:7329  donorDonationCount */\n      0x03\n        /* \"contracts/DecentralizedCharity.sol\":7311:7337  donorDonationCount[_donor] */\n      0x00\n        /* \"contracts/DecentralizedCharity.sol\":7330:7336  _donor */\n      dup6\n        /* \"contracts/DecentralizedCharity.sol\":7311:7337  donorDonationCount[_donor] */\n      0xffffffffffffffffffffffffffffffffffffffff\n      and\n      0xffffffffffffffffffffffffffffffffffffffff\n      and\n      dup2\n      mstore\n      0x20\n      add\n      swap1\n      dup2\n      mstore\n      0x20\n      add\n      0x00\n      keccak256\n      sload\n        /* \"contracts/DecentralizedCharity.sol\":7276:7338  return (donorTotalDonated[_donor], donorDonationCount[_donor]) */\n      swap2\n      pop\n      swap2\n      pop\n        /* \"contracts/DecentralizedCharity.sol\":7124:7346  function getDonorMetrics(address _donor)\r... */\n      swap2\n      pop\n      swap2\n      jump\t// out\n        /* \"contracts/DecentralizedCharity.sol\":1821:2115  function registerCharity(string calldata _name) external {\r... */\n    tag_65:\n        /* \"contracts/DecentralizedCharity.sol\":1898:1907  charities */\n      0x00\n        /* \"contracts/DecentralizedCharity.sol\":1898:1919  charities[msg.sender] */\n      dup1\n        /* \"contracts/DecentralizedCharity.sol\":1908:1918  msg.sender */\n      caller\n        /* \"contracts/DecentralizedCharity.sol\":1898:1919  charities[msg.sender] */\n      0xffffffffffffffffffffffffffffffffffffffff\n      and\n      0xffffffffffffffffffffffffffffffffffffffff\n      and\n      dup2\n      mstore\n      0x20\n      add\n      swap1\n      dup2\n      mstore\n      0x20\n      add\n      0x00\n      keccak256\n        /* \"contracts/DecentralizedCharity.sol\":1898:1930  charities[msg.sender].registered */\n      0x02\n      add\n      0x00\n      swap1\n      sload\n      swap1\n      0x0100\n      exp\n      swap1\n      div\n      0xff\n      and\n        /* \"contracts/DecentralizedCharity.sol\":1897:1930  !charities[msg.sender].registered */\n      iszero\n        /* \"contracts/DecentralizedCharity.sol\":1889:1961  require(!charities[msg.sender].registered, \"Charity already registered\") */\n      tag_154\n      jumpi\n      mload(0x40)\n      0x08c379a000000000000000000000000000000000000000000000000000000000\n      dup2\n      mstore\n      0x04\n      add\n      tag_155\n      swap1\n      tag_156\n      jump\t// in\n    tag_155:\n      mload(0x40)\n      dup1\n      swap2\n      sub\n      swap1\n      revert\n    tag_154:\n        /* \"contracts/DecentralizedCharity.sol\":1996:2043  Charity(payable(msg.sender), _name, true, 0, 0) */\n      mload(0x40)\n      dup1\n      0xa0\n      add\n      0x40\n      mstore\n      dup1\n        /* \"contracts/DecentralizedCharity.sol\":2012:2022  msg.sender */\n      caller\n        /* \"contracts/DecentralizedCharity.sol\":1996:2043  Charity(payable(msg.sender), _name, true, 0, 0) */\n      0xffffffffffffffffffffffffffffffffffffffff\n      and\n      dup2\n      mstore\n      0x20\n      add\n        /* \"contracts/DecentralizedCharity.sol\":2025:2030  _name */\n      dup4\n      dup4\n        /* \"contracts/DecentralizedCharity.sol\":1996:2043  Charity(payable(msg.sender), _name, true, 0, 0) */\n      dup1\n      dup1\n      0x1f\n      add\n      0x20\n      dup1\n      swap2\n      div\n      mul\n      0x20\n      add\n      mload(0x40)\n      swap1\n      dup2\n      add\n      0x40\n      mstore\n      dup1\n      swap4\n      swap3\n      swap2\n      swap1\n      dup2\n      dup2\n      mstore\n      0x20\n      add\n      dup4\n      dup4\n      dup1\n      dup3\n      dup5\n      calldatacopy\n      0x00\n      dup2\n      dup5\n      add\n      mstore\n      not(0x1f)\n      0x1f\n      dup3\n      add\n      and\n      swap1\n      pop\n      dup1\n      dup4\n      add\n      swap3\n      pop\n      pop\n      pop\n      pop\n      pop\n      pop\n      pop\n      dup2\n      mstore\n      0x20\n      add\n        /* \"contracts/DecentralizedCharity.sol\":2032:2036  true */\n      0x01\n        /* \"contracts/DecentralizedCharity.sol\":1996:2043  Charity(payable(msg.sender), _name, true, 0, 0) */\n      iszero\n      iszero\n      dup2\n      mstore\n      0x20\n      add\n        /* \"contracts/DecentralizedCharity.sol\":2038:2039  0 */\n      0x00\n        /* \"contracts/DecentralizedCharity.sol\":1996:2043  Charity(payable(msg.sender), _name, true, 0, 0) */\n      dup2\n      mstore\n      0x20\n      add\n        /* \"contracts/DecentralizedCharity.sol\":2041:2042  0 */\n      0x00\n        /* \"contracts/DecentralizedCharity.sol\":1996:2043  Charity(payable(msg.sender), _name, true, 0, 0) */\n      dup2\n      mstore\n      pop\n        /* \"contracts/DecentralizedCharity.sol\":1972:1981  charities */\n      0x00\n        /* \"contracts/DecentralizedCharity.sol\":1972:1993  charities[msg.sender] */\n      dup1\n        /* \"contracts/DecentralizedCharity.sol\":1982:1992  msg.sender */\n      caller\n        /* \"contracts/DecentralizedCharity.sol\":1972:1993  charities[msg.sender] */\n      0xffffffffffffffffffffffffffffffffffffffff\n      and\n      0xffffffffffffffffffffffffffffffffffffffff\n      and\n      dup2\n      mstore\n      0x20\n      add\n      swap1\n      dup2\n      mstore\n      0x20\n      add\n      0x00\n      keccak256\n        /* \"contracts/DecentralizedCharity.sol\":1972:2043  charities[msg.sender] = Charity(payable(msg.sender), _name, true, 0, 0) */\n      0x00\n      dup3\n      add\n      mload\n      dup2\n      0x00\n      add\n      exp(0x0100, 0x00)\n      dup2\n      sload\n      dup2\n      0xffffffffffffffffffffffffffffffffffffffff\n      mul\n      not\n      and\n      swap1\n      dup4\n      0xffffffffffffffffffffffffffffffffffffffff\n      and\n      mul\n      or\n      swap1\n      sstore\n      pop\n      0x20\n      dup3\n      add\n      mload\n      dup2\n      0x01\n      add\n      swap1\n      dup1\n      mload\n      swap1\n      0x20\n      add\n      swap1\n      tag_157\n      swap3\n      swap2\n      swap1\n      tag_158\n      jump\t// in\n    tag_157:\n      pop\n      0x40\n      dup3\n      add\n      mload\n      dup2\n      0x02\n      add\n      exp(0x0100, 0x00)\n      dup2\n      sload\n      dup2\n      0xff\n      mul\n      not\n      and\n      swap1\n      dup4\n      iszero\n      iszero\n      mul\n      or\n      swap1\n      sstore\n      pop\n      0x60\n      dup3\n      add\n      mload\n      dup2\n      0x03\n      add\n      sstore\n      0x80\n      dup3\n      add\n      mload\n      dup2\n      0x04\n      add\n      sstore\n      swap1\n      pop\n      pop\n        /* \"contracts/DecentralizedCharity.sol\":2089:2099  msg.sender */\n      caller\n        /* \"contracts/DecentralizedCharity.sol\":2059:2107  CharityRegistered(msg.sender, msg.sender, _name) */\n      0xffffffffffffffffffffffffffffffffffffffff\n      and\n        /* \"contracts/DecentralizedCharity.sol\":2077:2087  msg.sender */\n      caller\n        /* \"contracts/DecentralizedCharity.sol\":2059:2107  CharityRegistered(msg.sender, msg.sender, _name) */\n      0xffffffffffffffffffffffffffffffffffffffff\n      and\n      0x3023a2350309e23b2e61b93cf130ad4b879e3fd7ef00de1a39331f0cfd6bf4bc\n        /* \"contracts/DecentralizedCharity.sol\":2101:2106  _name */\n      dup5\n      dup5\n        /* \"contracts/DecentralizedCharity.sol\":2059:2107  CharityRegistered(msg.sender, msg.sender, _name) */\n      mload(0x40)\n      tag_159\n      swap3\n      swap2\n      swap1\n      tag_160\n      jump\t// in\n    tag_159:\n      mload(0x40)\n      dup1\n      swap2\n      sub\n      swap1\n      log3\n        /* \"contracts/DecentralizedCharity.sol\":1821:2115  function registerCharity(string calldata _name) external {\r... */\n      pop\n      pop\n      jump\t// out\n        /* \"contracts/DecentralizedCharity.sol\":6607:6921  function getCharityMetrics(address _charity)\r... */\n    tag_69:\n        /* \"contracts/DecentralizedCharity.sol\":6702:6722  uint256 totalDonated */\n      0x00\n        /* \"contracts/DecentralizedCharity.sol\":6724:6745  uint256 donationCount */\n      dup1\n        /* \"contracts/DecentralizedCharity.sol\":6763:6780  Charity storage c */\n      0x00\n        /* \"contracts/DecentralizedCharity.sol\":6783:6792  charities */\n      dup1\n        /* \"contracts/DecentralizedCharity.sol\":6783:6802  charities[_charity] */\n      0x00\n        /* \"contracts/DecentralizedCharity.sol\":6793:6801  _charity */\n      dup6\n        /* \"contracts/DecentralizedCharity.sol\":6783:6802  charities[_charity] */\n      0xffffffffffffffffffffffffffffffffffffffff\n      and\n      0xffffffffffffffffffffffffffffffffffffffff\n      and\n      dup2\n      mstore\n      0x20\n      add\n      swap1\n      dup2\n      mstore\n      0x20\n      add\n      0x00\n      keccak256\n        /* \"contracts/DecentralizedCharity.sol\":6763:6802  Charity storage c = charities[_charity] */\n      swap1\n      pop\n        /* \"contracts/DecentralizedCharity.sol\":6821:6822  c */\n      dup1\n        /* \"contracts/DecentralizedCharity.sol\":6821:6833  c.registered */\n      0x02\n      add\n      0x00\n      swap1\n      sload\n      swap1\n      0x0100\n      exp\n      swap1\n      div\n      0xff\n      and\n        /* \"contracts/DecentralizedCharity.sol\":6813:6860  require(c.registered, \"Charity not registered\") */\n      tag_162\n      jumpi\n      mload(0x40)\n      0x08c379a000000000000000000000000000000000000000000000000000000000\n      dup2\n      mstore\n      0x04\n      add\n      tag_163\n      swap1\n      tag_98\n      jump\t// in\n    tag_163:\n      mload(0x40)\n      dup1\n      swap2\n      sub\n      swap1\n      revert\n    tag_162:\n        /* \"contracts/DecentralizedCharity.sol\":6879:6880  c */\n      dup1\n        /* \"contracts/DecentralizedCharity.sol\":6879:6895  c.totalDonations */\n      0x03\n      add\n      sload\n        /* \"contracts/DecentralizedCharity.sol\":6897:6898  c */\n      dup2\n        /* \"contracts/DecentralizedCharity.sol\":6897:6912  c.donationCount */\n      0x04\n      add\n      sload\n        /* \"contracts/DecentralizedCharity.sol\":6871:6913  return (c.totalDonations, c.donationCount) */\n      swap3\n      pop\n      swap3\n      pop\n      pop\n        /* \"contracts/DecentralizedCharity.sol\":6607:6921  function getCharityMetrics(address _charity)\r... */\n      swap2\n      pop\n      swap2\n      jump\t// out\n        /* \"contracts/DecentralizedCharity.sol\":1009:1062  mapping(address => uint256) public donorDonationCount */\n    tag_74:\n      mstore(0x20, 0x03)\n      dup1\n      0x00\n      mstore\n      keccak256(0x00, 0x40)\n      0x00\n      swap2\n      pop\n      swap1\n      pop\n      sload\n      dup2\n      jump\t// out\n        /* \"contracts/DecentralizedCharity.sol\":5561:5664  function getDonationsCount() external view returns (uint256) {\r... */\n    tag_78:\n        /* \"contracts/DecentralizedCharity.sol\":5613:5620  uint256 */\n      0x00\n        /* \"contracts/DecentralizedCharity.sol\":5640:5649  donations */\n      0x01\n        /* \"contracts/DecentralizedCharity.sol\":5640:5656  donations.length */\n      dup1\n      sload\n      swap1\n      pop\n        /* \"contracts/DecentralizedCharity.sol\":5633:5656  return donations.length */\n      swap1\n      pop\n        /* \"contracts/DecentralizedCharity.sol\":5561:5664  function getDonationsCount() external view returns (uint256) {\r... */\n      swap1\n      jump\t// out\n        /* \"contracts/DecentralizedCharity.sol\":4678:5457  function finalizeAuction(uint256 _auctionId) external {\r... */\n    tag_83:\n        /* \"contracts/DecentralizedCharity.sol\":4743:4760  Auction storage a */\n      0x00\n        /* \"contracts/DecentralizedCharity.sol\":4763:4771  auctions */\n      0x04\n        /* \"contracts/DecentralizedCharity.sol\":4763:4783  auctions[_auctionId] */\n      0x00\n        /* \"contracts/DecentralizedCharity.sol\":4772:4782  _auctionId */\n      dup4\n        /* \"contracts/DecentralizedCharity.sol\":4763:4783  auctions[_auctionId] */\n      dup2\n      mstore\n      0x20\n      add\n      swap1\n      dup2\n      mstore\n      0x20\n      add\n      0x00\n      keccak256\n        /* \"contracts/DecentralizedCharity.sol\":4743:4783  Auction storage a = auctions[_auctionId] */\n      swap1\n      pop\n        /* \"contracts/DecentralizedCharity.sol\":4820:4821  a */\n      dup1\n        /* \"contracts/DecentralizedCharity.sol\":4820:4829  a.endTime */\n      0x02\n      add\n      sload\n        /* \"contracts/DecentralizedCharity.sol\":4802:4817  block.timestamp */\n      timestamp\n        /* \"contracts/DecentralizedCharity.sol\":4802:4829  block.timestamp > a.endTime */\n      gt\n        /* \"contracts/DecentralizedCharity.sol\":4794:4851  require(block.timestamp > a.endTime, \"Auction not ended\") */\n      tag_166\n      jumpi\n      mload(0x40)\n      0x08c379a000000000000000000000000000000000000000000000000000000000\n      dup2\n      mstore\n      0x04\n      add\n      tag_167\n      swap1\n      tag_168\n      jump\t// in\n    tag_167:\n      mload(0x40)\n      dup1\n      swap2\n      sub\n      swap1\n      revert\n    tag_166:\n        /* \"contracts/DecentralizedCharity.sol\":4871:4872  a */\n      dup1\n        /* \"contracts/DecentralizedCharity.sol\":4871:4882  a.finalized */\n      0x05\n      add\n      0x00\n      swap1\n      sload\n      swap1\n      0x0100\n      exp\n      swap1\n      div\n      0xff\n      and\n        /* \"contracts/DecentralizedCharity.sol\":4870:4882  !a.finalized */\n      iszero\n        /* \"contracts/DecentralizedCharity.sol\":4862:4904  require(!a.finalized, \"Already finalized\") */\n      tag_169\n      jumpi\n      mload(0x40)\n      0x08c379a000000000000000000000000000000000000000000000000000000000\n      dup2\n      mstore\n      0x04\n      add\n      tag_170\n      swap1\n      tag_171\n      jump\t// in\n    tag_170:\n      mload(0x40)\n      dup1\n      swap2\n      sub\n      swap1\n      revert\n    tag_169:\n        /* \"contracts/DecentralizedCharity.sol\":4939:4943  true */\n      0x01\n        /* \"contracts/DecentralizedCharity.sol\":4925:4926  a */\n      dup2\n        /* \"contracts/DecentralizedCharity.sol\":4925:4936  a.finalized */\n      0x05\n      add\n      0x00\n        /* \"contracts/DecentralizedCharity.sol\":4925:4943  a.finalized = true */\n      0x0100\n      exp\n      dup2\n      sload\n      dup2\n      0xff\n      mul\n      not\n      and\n      swap1\n      dup4\n      iszero\n      iszero\n      mul\n      or\n      swap1\n      sstore\n      pop\n        /* \"contracts/DecentralizedCharity.sol\":4985:4986  0 */\n      0x00\n        /* \"contracts/DecentralizedCharity.sol\":4958:4987  a.highestBidder != address(0) */\n      0xffffffffffffffffffffffffffffffffffffffff\n      and\n        /* \"contracts/DecentralizedCharity.sol\":4958:4959  a */\n      dup2\n        /* \"contracts/DecentralizedCharity.sol\":4958:4973  a.highestBidder */\n      0x03\n      add\n      0x00\n      swap1\n      sload\n      swap1\n      0x0100\n      exp\n      swap1\n      div\n      0xffffffffffffffffffffffffffffffffffffffff\n      and\n        /* \"contracts/DecentralizedCharity.sol\":4958:4987  a.highestBidder != address(0) */\n      0xffffffffffffffffffffffffffffffffffffffff\n      and\n      eq\n        /* \"contracts/DecentralizedCharity.sol\":4954:5375  if (a.highestBidder != address(0)) {\r... */\n      tag_172\n      jumpi\n        /* \"contracts/DecentralizedCharity.sol\":5004:5021  Charity storage c */\n      0x00\n        /* \"contracts/DecentralizedCharity.sol\":5024:5033  charities */\n      dup1\n        /* \"contracts/DecentralizedCharity.sol\":5024:5044  charities[a.charity] */\n      0x00\n        /* \"contracts/DecentralizedCharity.sol\":5034:5035  a */\n      dup4\n        /* \"contracts/DecentralizedCharity.sol\":5034:5043  a.charity */\n      0x00\n      add\n      0x00\n      swap1\n      sload\n      swap1\n      0x0100\n      exp\n      swap1\n      div\n      0xffffffffffffffffffffffffffffffffffffffff\n      and\n        /* \"contracts/DecentralizedCharity.sol\":5024:5044  charities[a.charity] */\n      0xffffffffffffffffffffffffffffffffffffffff\n      and\n      0xffffffffffffffffffffffffffffffffffffffff\n      and\n      dup2\n      mstore\n      0x20\n      add\n      swap1\n      dup2\n      mstore\n      0x20\n      add\n      0x00\n      keccak256\n        /* \"contracts/DecentralizedCharity.sol\":5004:5044  Charity storage c = charities[a.charity] */\n      swap1\n      pop\n        /* \"contracts/DecentralizedCharity.sol\":5079:5080  a */\n      dup2\n        /* \"contracts/DecentralizedCharity.sol\":5079:5091  a.highestBid */\n      0x04\n      add\n      sload\n        /* \"contracts/DecentralizedCharity.sol\":5059:5060  c */\n      dup2\n        /* \"contracts/DecentralizedCharity.sol\":5059:5075  c.totalDonations */\n      0x03\n      add\n      0x00\n        /* \"contracts/DecentralizedCharity.sol\":5059:5091  c.totalDonations += a.highestBid */\n      dup3\n      dup3\n      sload\n      tag_173\n      swap2\n      swap1\n      tag_104\n      jump\t// in\n    tag_173:\n      swap3\n      pop\n      pop\n      dup2\n      swap1\n      sstore\n      pop\n        /* \"contracts/DecentralizedCharity.sol\":5125:5126  1 */\n      0x01\n        /* \"contracts/DecentralizedCharity.sol\":5106:5107  c */\n      dup2\n        /* \"contracts/DecentralizedCharity.sol\":5106:5121  c.donationCount */\n      0x04\n      add\n      0x00\n        /* \"contracts/DecentralizedCharity.sol\":5106:5126  c.donationCount += 1 */\n      dup3\n      dup3\n      sload\n      tag_174\n      swap2\n      swap1\n      tag_104\n      jump\t// in\n    tag_174:\n      swap3\n      pop\n      pop\n      dup2\n      swap1\n      sstore\n      pop\n        /* \"contracts/DecentralizedCharity.sol\":5179:5180  a */\n      dup2\n        /* \"contracts/DecentralizedCharity.sol\":5179:5191  a.highestBid */\n      0x04\n      add\n      sload\n        /* \"contracts/DecentralizedCharity.sol\":5141:5158  donorTotalDonated */\n      0x02\n        /* \"contracts/DecentralizedCharity.sol\":5141:5175  donorTotalDonated[a.highestBidder] */\n      0x00\n        /* \"contracts/DecentralizedCharity.sol\":5159:5160  a */\n      dup5\n        /* \"contracts/DecentralizedCharity.sol\":5159:5174  a.highestBidder */\n      0x03\n      add\n      0x00\n      swap1\n      sload\n      swap1\n      0x0100\n      exp\n      swap1\n      div\n      0xffffffffffffffffffffffffffffffffffffffff\n      and\n        /* \"contracts/DecentralizedCharity.sol\":5141:5175  donorTotalDonated[a.highestBidder] */\n      0xffffffffffffffffffffffffffffffffffffffff\n      and\n      0xffffffffffffffffffffffffffffffffffffffff\n      and\n      dup2\n      mstore\n      0x20\n      add\n      swap1\n      dup2\n      mstore\n      0x20\n      add\n      0x00\n      keccak256\n      0x00\n        /* \"contracts/DecentralizedCharity.sol\":5141:5191  donorTotalDonated[a.highestBidder] += a.highestBid */\n      dup3\n      dup3\n      sload\n      tag_175\n      swap2\n      swap1\n      tag_104\n      jump\t// in\n    tag_175:\n      swap3\n      pop\n      pop\n      dup2\n      swap1\n      sstore\n      pop\n        /* \"contracts/DecentralizedCharity.sol\":5245:5246  1 */\n      0x01\n        /* \"contracts/DecentralizedCharity.sol\":5206:5224  donorDonationCount */\n      0x03\n        /* \"contracts/DecentralizedCharity.sol\":5206:5241  donorDonationCount[a.highestBidder] */\n      0x00\n        /* \"contracts/DecentralizedCharity.sol\":5225:5226  a */\n      dup5\n        /* \"contracts/DecentralizedCharity.sol\":5225:5240  a.highestBidder */\n      0x03\n      add\n      0x00\n      swap1\n      sload\n      swap1\n      0x0100\n      exp\n      swap1\n      div\n      0xffffffffffffffffffffffffffffffffffffffff\n      and\n        /* \"contracts/DecentralizedCharity.sol\":5206:5241  donorDonationCount[a.highestBidder] */\n      0xffffffffffffffffffffffffffffffffffffffff\n      and\n      0xffffffffffffffffffffffffffffffffffffffff\n      and\n      dup2\n      mstore\n      0x20\n      add\n      swap1\n      dup2\n      mstore\n      0x20\n      add\n      0x00\n      keccak256\n      0x00\n        /* \"contracts/DecentralizedCharity.sol\":5206:5246  donorDonationCount[a.highestBidder] += 1 */\n      dup3\n      dup3\n      sload\n      tag_176\n      swap2\n      swap1\n      tag_104\n      jump\t// in\n    tag_176:\n      swap3\n      pop\n      pop\n      dup2\n      swap1\n      sstore\n      pop\n        /* \"contracts/DecentralizedCharity.sol\":5264:5273  bool sent */\n      0x00\n        /* \"contracts/DecentralizedCharity.sol\":5279:5280  c */\n      dup2\n        /* \"contracts/DecentralizedCharity.sol\":5279:5286  c.owner */\n      0x00\n      add\n      0x00\n      swap1\n      sload\n      swap1\n      0x0100\n      exp\n      swap1\n      div\n      0xffffffffffffffffffffffffffffffffffffffff\n      and\n        /* \"contracts/DecentralizedCharity.sol\":5279:5291  c.owner.call */\n      0xffffffffffffffffffffffffffffffffffffffff\n      and\n        /* \"contracts/DecentralizedCharity.sol\":5299:5300  a */\n      dup4\n        /* \"contracts/DecentralizedCharity.sol\":5299:5311  a.highestBid */\n      0x04\n      add\n      sload\n        /* \"contracts/DecentralizedCharity.sol\":5279:5316  c.owner.call{value: a.highestBid}(\"\") */\n      mload(0x40)\n      tag_177\n      swap1\n      tag_109\n      jump\t// in\n    tag_177:\n      0x00\n      mload(0x40)\n      dup1\n      dup4\n      sub\n      dup2\n      dup6\n      dup8\n      gas\n      call\n      swap3\n      pop\n      pop\n      pop\n      returndatasize\n      dup1\n      0x00\n      dup2\n      eq\n      tag_180\n      jumpi\n      mload(0x40)\n      swap2\n      pop\n      and(add(returndatasize, 0x3f), not(0x1f))\n      dup3\n      add\n      0x40\n      mstore\n      returndatasize\n      dup3\n      mstore\n      returndatasize\n      0x00\n      0x20\n      dup5\n      add\n      returndatacopy\n      jump(tag_179)\n    tag_180:\n      0x60\n      swap2\n      pop\n    tag_179:\n      pop\n        /* \"contracts/DecentralizedCharity.sol\":5263:5316  (bool sent, ) = c.owner.call{value: a.highestBid}(\"\") */\n      pop\n      swap1\n      pop\n        /* \"contracts/DecentralizedCharity.sol\":5339:5343  sent */\n      dup1\n        /* \"contracts/DecentralizedCharity.sol\":5331:5363  require(sent, \"Transfer failed\") */\n      tag_181\n      jumpi\n      mload(0x40)\n      0x08c379a000000000000000000000000000000000000000000000000000000000\n      dup2\n      mstore\n      0x04\n      add\n      tag_182\n      swap1\n      tag_115\n      jump\t// in\n    tag_182:\n      mload(0x40)\n      dup1\n      swap2\n      sub\n      swap1\n      revert\n    tag_181:\n        /* \"contracts/DecentralizedCharity.sol\":4954:5375  if (a.highestBidder != address(0)) {\r... */\n      pop\n      pop\n    tag_172:\n        /* \"contracts/DecentralizedCharity.sol\":5419:5420  a */\n      dup1\n        /* \"contracts/DecentralizedCharity.sol\":5419:5434  a.highestBidder */\n      0x03\n      add\n      0x00\n      swap1\n      sload\n      swap1\n      0x0100\n      exp\n      swap1\n      div\n      0xffffffffffffffffffffffffffffffffffffffff\n      and\n        /* \"contracts/DecentralizedCharity.sol\":5390:5449  AuctionFinalized(_auctionId, a.highestBidder, a.highestBid) */\n      0xffffffffffffffffffffffffffffffffffffffff\n      and\n        /* \"contracts/DecentralizedCharity.sol\":5407:5417  _auctionId */\n      dup3\n        /* \"contracts/DecentralizedCharity.sol\":5390:5449  AuctionFinalized(_auctionId, a.highestBidder, a.highestBid) */\n      0x4d9113a1377d665eaa1f9168a9c9080f2e488cb820b10149de3d6d2e0f2780c7\n        /* \"contracts/DecentralizedCharity.sol\":5436:5437  a */\n      dup4\n        /* \"contracts/DecentralizedCharity.sol\":5436:5448  a.highestBid */\n      0x04\n      add\n      sload\n        /* \"contracts/DecentralizedCharity.sol\":5390:5449  AuctionFinalized(_auctionId, a.highestBidder, a.highestBid) */\n      mload(0x40)\n      tag_183\n      swap2\n      swap1\n      tag_39\n      jump\t// in\n    tag_183:\n      mload(0x40)\n      dup1\n      swap2\n      sub\n      swap1\n      log3\n        /* \"contracts/DecentralizedCharity.sol\":4678:5457  function finalizeAuction(uint256 _auctionId) external {\r... */\n      pop\n      pop\n      jump\t// out\n        /* \"contracts/DecentralizedCharity.sol\":5989:6397  function getDonation(uint256 _index)\r... */\n    tag_87:\n        /* \"contracts/DecentralizedCharity.sol\":6090:6103  address donor */\n      0x00\n        /* \"contracts/DecentralizedCharity.sol\":6118:6133  address charity */\n      dup1\n        /* \"contracts/DecentralizedCharity.sol\":6148:6162  uint256 amount */\n      0x00\n        /* \"contracts/DecentralizedCharity.sol\":6177:6194  uint256 timestamp */\n      dup1\n        /* \"contracts/DecentralizedCharity.sol\":6239:6248  donations */\n      0x01\n        /* \"contracts/DecentralizedCharity.sol\":6239:6255  donations.length */\n      dup1\n      sload\n      swap1\n      pop\n        /* \"contracts/DecentralizedCharity.sol\":6230:6236  _index */\n      dup6\n        /* \"contracts/DecentralizedCharity.sol\":6230:6255  _index < donations.length */\n      lt\n        /* \"contracts/DecentralizedCharity.sol\":6222:6279  require(_index < donations.length, \"Index out of bounds\") */\n      tag_185\n      jumpi\n      mload(0x40)\n      0x08c379a000000000000000000000000000000000000000000000000000000000\n      dup2\n      mstore\n      0x04\n      add\n      tag_186\n      swap1\n      tag_187\n      jump\t// in\n    tag_186:\n      mload(0x40)\n      dup1\n      swap2\n      sub\n      swap1\n      revert\n    tag_185:\n        /* \"contracts/DecentralizedCharity.sol\":6290:6308  Donation storage d */\n      0x00\n        /* \"contracts/DecentralizedCharity.sol\":6311:6320  donations */\n      0x01\n        /* \"contracts/DecentralizedCharity.sol\":6321:6327  _index */\n      dup7\n        /* \"contracts/DecentralizedCharity.sol\":6311:6328  donations[_index] */\n      dup2\n      sload\n      dup2\n      lt\n      tag_188\n      jumpi\n      mstore(0x00, 0x4e487b7100000000000000000000000000000000000000000000000000000000)\n      mstore(0x04, 0x32)\n      revert(0x00, 0x24)\n    tag_188:\n      swap1\n      0x00\n      mstore\n      keccak256(0x00, 0x20)\n      swap1\n      0x04\n      mul\n      add\n        /* \"contracts/DecentralizedCharity.sol\":6290:6328  Donation storage d = donations[_index] */\n      swap1\n      pop\n        /* \"contracts/DecentralizedCharity.sol\":6347:6348  d */\n      dup1\n        /* \"contracts/DecentralizedCharity.sol\":6347:6354  d.donor */\n      0x00\n      add\n      0x00\n      swap1\n      sload\n      swap1\n      0x0100\n      exp\n      swap1\n      div\n      0xffffffffffffffffffffffffffffffffffffffff\n      and\n        /* \"contracts/DecentralizedCharity.sol\":6356:6357  d */\n      dup2\n        /* \"contracts/DecentralizedCharity.sol\":6356:6365  d.charity */\n      0x01\n      add\n      0x00\n      swap1\n      sload\n      swap1\n      0x0100\n      exp\n      swap1\n      div\n      0xffffffffffffffffffffffffffffffffffffffff\n      and\n        /* \"contracts/DecentralizedCharity.sol\":6367:6368  d */\n      dup3\n        /* \"contracts/DecentralizedCharity.sol\":6367:6375  d.amount */\n      0x02\n      add\n      sload\n        /* \"contracts/DecentralizedCharity.sol\":6377:6378  d */\n      dup4\n        /* \"contracts/DecentralizedCharity.sol\":6377:6388  d.timestamp */\n      0x03\n      add\n      sload\n        /* \"contracts/DecentralizedCharity.sol\":6339:6389  return (d.donor, d.charity, d.amount, d.timestamp) */\n      swap5\n      pop\n      swap5\n      pop\n      swap5\n      pop\n      swap5\n      pop\n      pop\n        /* \"contracts/DecentralizedCharity.sol\":5989:6397  function getDonation(uint256 _index)\r... */\n      swap2\n      swap4\n      pop\n      swap2\n      swap4\n      jump\t// out\n        /* \"contracts/DecentralizedCharity.sol\":888:915  Donation[] public donations */\n    tag_93:\n      0x01\n      dup2\n      dup2\n      sload\n      dup2\n      lt\n      tag_190\n      jumpi\n      0x00\n      dup1\n      revert\n    tag_190:\n      swap1\n      0x00\n      mstore\n      keccak256(0x00, 0x20)\n      swap1\n      0x04\n      mul\n      add\n      0x00\n      swap2\n      pop\n      swap1\n      pop\n      dup1\n      0x00\n      add\n      0x00\n      swap1\n      sload\n      swap1\n      0x0100\n      exp\n      swap1\n      div\n      0xffffffffffffffffffffffffffffffffffffffff\n      and\n      swap1\n      dup1\n      0x01\n      add\n      0x00\n      swap1\n      sload\n      swap1\n      0x0100\n      exp\n      swap1\n      div\n      0xffffffffffffffffffffffffffffffffffffffff\n      and\n      swap1\n      dup1\n      0x02\n      add\n      sload\n      swap1\n      dup1\n      0x03\n      add\n      sload\n      swap1\n      pop\n      dup5\n      jump\t// out\n    tag_158:\n      dup3\n      dup1\n      sload\n      tag_192\n      swap1\n      tag_130\n      jump\t// in\n    tag_192:\n      swap1\n      0x00\n      mstore\n      keccak256(0x00, 0x20)\n      swap1\n      0x1f\n      add\n      0x20\n      swap1\n      div\n      dup2\n      add\n      swap3\n      dup3\n      tag_194\n      jumpi\n      0x00\n      dup6\n      sstore\n      jump(tag_193)\n    tag_194:\n      dup3\n      0x1f\n      lt\n      tag_195\n      jumpi\n      dup1\n      mload\n      not(0xff)\n      and\n      dup4\n      dup1\n      add\n      or\n      dup6\n      sstore\n      jump(tag_193)\n    tag_195:\n      dup3\n      dup1\n      add\n      0x01\n      add\n      dup6\n      sstore\n      dup3\n      iszero\n      tag_193\n      jumpi\n      swap2\n      dup3\n      add\n    tag_196:\n      dup3\n      dup2\n      gt\n      iszero\n      tag_197\n      jumpi\n      dup3\n      mload\n      dup3\n      sstore\n      swap2\n      0x20\n      add\n      swap2\n      swap1\n      0x01\n      add\n      swap1\n      jump(tag_196)\n    tag_197:\n    tag_193:\n      pop\n      swap1\n      pop\n      tag_198\n      swap2\n      swap1\n      tag_199\n      jump\t// in\n    tag_198:\n      pop\n      swap1\n      jump\t// out\n    tag_199:\n    tag_200:\n      dup1\n      dup3\n      gt\n      iszero\n      tag_201\n      jumpi\n      0x00\n      dup2\n      0x00\n      swap1\n      sstore\n      pop\n      0x01\n      add\n      jump(tag_200)\n    tag_201:\n      pop\n      swap1\n      jump\t// out\n        /* \"#utility.yul\":7:146   */\n    tag_203:\n      0x00\n        /* \"#utility.yul\":91:97   */\n      dup2\n        /* \"#utility.yul\":78:98   */\n      calldataload\n        /* \"#utility.yul\":69:98   */\n      swap1\n      pop\n        /* \"#utility.yul\":107:140   */\n      tag_205\n        /* \"#utility.yul\":134:139   */\n      dup2\n        /* \"#utility.yul\":107:140   */\n      tag_206\n      jump\t// in\n    tag_205:\n        /* \"#utility.yul\":59:146   */\n      swap3\n      swap2\n      pop\n      pop\n      jump\t// out\n        /* \"#utility.yul\":166:518   */\n    tag_207:\n      0x00\n      dup1\n        /* \"#utility.yul\":284:287   */\n      dup4\n        /* \"#utility.yul\":277:281   */\n      0x1f\n        /* \"#utility.yul\":269:275   */\n      dup5\n        /* \"#utility.yul\":265:282   */\n      add\n        /* \"#utility.yul\":261:288   */\n      slt\n        /* \"#utility.yul\":251:253   */\n      tag_209\n      jumpi\n        /* \"#utility.yul\":302:303   */\n      0x00\n        /* \"#utility.yul\":299:300   */\n      dup1\n        /* \"#utility.yul\":292:304   */\n      revert\n        /* \"#utility.yul\":251:253   */\n    tag_209:\n        /* \"#utility.yul\":338:344   */\n      dup3\n        /* \"#utility.yul\":325:345   */\n      calldataload\n        /* \"#utility.yul\":315:345   */\n      swap1\n      pop\n        /* \"#utility.yul\":368:386   */\n      0xffffffffffffffff\n        /* \"#utility.yul\":360:366   */\n      dup2\n        /* \"#utility.yul\":357:387   */\n      gt\n        /* \"#utility.yul\":354:356   */\n      iszero\n      tag_210\n      jumpi\n        /* \"#utility.yul\":400:401   */\n      0x00\n        /* \"#utility.yul\":397:398   */\n      dup1\n        /* \"#utility.yul\":390:402   */\n      revert\n        /* \"#utility.yul\":354:356   */\n    tag_210:\n        /* \"#utility.yul\":437:441   */\n      0x20\n        /* \"#utility.yul\":429:435   */\n      dup4\n        /* \"#utility.yul\":425:442   */\n      add\n        /* \"#utility.yul\":413:442   */\n      swap2\n      pop\n        /* \"#utility.yul\":491:494   */\n      dup4\n        /* \"#utility.yul\":483:487   */\n      0x01\n        /* \"#utility.yul\":475:481   */\n      dup3\n        /* \"#utility.yul\":471:488   */\n      mul\n        /* \"#utility.yul\":461:469   */\n      dup4\n        /* \"#utility.yul\":457:489   */\n      add\n        /* \"#utility.yul\":454:495   */\n      gt\n        /* \"#utility.yul\":451:453   */\n      iszero\n      tag_211\n      jumpi\n        /* \"#utility.yul\":508:509   */\n      0x00\n        /* \"#utility.yul\":505:506   */\n      dup1\n        /* \"#utility.yul\":498:510   */\n      revert\n        /* \"#utility.yul\":451:453   */\n    tag_211:\n        /* \"#utility.yul\":241:518   */\n      swap3\n      pop\n      swap3\n      swap1\n      pop\n      jump\t// out\n        /* \"#utility.yul\":524:663   */\n    tag_212:\n      0x00\n        /* \"#utility.yul\":608:614   */\n      dup2\n        /* \"#utility.yul\":595:615   */\n      calldataload\n        /* \"#utility.yul\":586:615   */\n      swap1\n      pop\n        /* \"#utility.yul\":624:657   */\n      tag_214\n        /* \"#utility.yul\":651:656   */\n      dup2\n        /* \"#utility.yul\":624:657   */\n      tag_215\n      jump\t// in\n    tag_214:\n        /* \"#utility.yul\":576:663   */\n      swap3\n      swap2\n      pop\n      pop\n      jump\t// out\n        /* \"#utility.yul\":669:931   */\n    tag_22:\n      0x00\n        /* \"#utility.yul\":777:779   */\n      0x20\n        /* \"#utility.yul\":765:774   */\n      dup3\n        /* \"#utility.yul\":756:763   */\n      dup5\n        /* \"#utility.yul\":752:775   */\n      sub\n        /* \"#utility.yul\":748:780   */\n      slt\n        /* \"#utility.yul\":745:747   */\n      iszero\n      tag_217\n      jumpi\n        /* \"#utility.yul\":793:794   */\n      0x00\n        /* \"#utility.yul\":790:791   */\n      dup1\n        /* \"#utility.yul\":783:795   */\n      revert\n        /* \"#utility.yul\":745:747   */\n    tag_217:\n        /* \"#utility.yul\":836:837   */\n      0x00\n        /* \"#utility.yul\":861:914   */\n      tag_218\n        /* \"#utility.yul\":906:913   */\n      dup5\n        /* \"#utility.yul\":897:903   */\n      dup3\n        /* \"#utility.yul\":886:895   */\n      dup6\n        /* \"#utility.yul\":882:904   */\n      add\n        /* \"#utility.yul\":861:914   */\n      tag_203\n      jump\t// in\n    tag_218:\n        /* \"#utility.yul\":851:914   */\n      swap2\n      pop\n        /* \"#utility.yul\":807:924   */\n      pop\n        /* \"#utility.yul\":735:931   */\n      swap3\n      swap2\n      pop\n      pop\n      jump\t// out\n        /* \"#utility.yul\":937:1332   */\n    tag_64:\n      0x00\n      dup1\n        /* \"#utility.yul\":1065:1067   */\n      0x20\n        /* \"#utility.yul\":1053:1062   */\n      dup4\n        /* \"#utility.yul\":1044:1051   */\n      dup6\n        /* \"#utility.yul\":1040:1063   */\n      sub\n        /* \"#utility.yul\":1036:1068   */\n      slt\n        /* \"#utility.yul\":1033:1035   */\n      iszero\n      tag_220\n      jumpi\n        /* \"#utility.yul\":1081:1082   */\n      0x00\n        /* \"#utility.yul\":1078:1079   */\n      dup1\n        /* \"#utility.yul\":1071:1083   */\n      revert\n        /* \"#utility.yul\":1033:1035   */\n    tag_220:\n        /* \"#utility.yul\":1152:1153   */\n      0x00\n        /* \"#utility.yul\":1141:1150   */\n      dup4\n        /* \"#utility.yul\":1137:1154   */\n      add\n        /* \"#utility.yul\":1124:1155   */\n      calldataload\n        /* \"#utility.yul\":1182:1200   */\n      0xffffffffffffffff\n        /* \"#utility.yul\":1174:1180   */\n      dup2\n        /* \"#utility.yul\":1171:1201   */\n      gt\n        /* \"#utility.yul\":1168:1170   */\n      iszero\n      tag_221\n      jumpi\n        /* \"#utility.yul\":1214:1215   */\n      0x00\n        /* \"#utility.yul\":1211:1212   */\n      dup1\n        /* \"#utility.yul\":1204:1216   */\n      revert\n        /* \"#utility.yul\":1168:1170   */\n    tag_221:\n        /* \"#utility.yul\":1250:1315   */\n      tag_222\n        /* \"#utility.yul\":1307:1314   */\n      dup6\n        /* \"#utility.yul\":1298:1304   */\n      dup3\n        /* \"#utility.yul\":1287:1296   */\n      dup7\n        /* \"#utility.yul\":1283:1305   */\n      add\n        /* \"#utility.yul\":1250:1315   */\n      tag_207\n      jump\t// in\n    tag_222:\n        /* \"#utility.yul\":1232:1315   */\n      swap3\n      pop\n      swap3\n      pop\n        /* \"#utility.yul\":1095:1325   */\n      pop\n        /* \"#utility.yul\":1023:1332   */\n      swap3\n      pop\n      swap3\n      swap1\n      pop\n      jump\t// out\n        /* \"#utility.yul\":1338:1600   */\n    tag_42:\n      0x00\n        /* \"#utility.yul\":1446:1448   */\n      0x20\n        /* \"#utility.yul\":1434:1443   */\n      dup3\n        /* \"#utility.yul\":1425:1432   */\n      dup5\n        /* \"#utility.yul\":1421:1444   */\n      sub\n        /* \"#utility.yul\":1417:1449   */\n      slt\n        /* \"#utility.yul\":1414:1416   */\n      iszero\n      tag_224\n      jumpi\n        /* \"#utility.yul\":1462:1463   */\n      0x00\n        /* \"#utility.yul\":1459:1460   */\n      dup1\n        /* \"#utility.yul\":1452:1464   */\n      revert\n        /* \"#utility.yul\":1414:1416   */\n    tag_224:\n        /* \"#utility.yul\":1505:1506   */\n      0x00\n        /* \"#utility.yul\":1530:1583   */\n      tag_225\n        /* \"#utility.yul\":1575:1582   */\n      dup5\n        /* \"#utility.yul\":1566:1572   */\n      dup3\n        /* \"#utility.yul\":1555:1564   */\n      dup6\n        /* \"#utility.yul\":1551:1573   */\n      add\n        /* \"#utility.yul\":1530:1583   */\n      tag_212\n      jump\t// in\n    tag_225:\n        /* \"#utility.yul\":1520:1583   */\n      swap2\n      pop\n        /* \"#utility.yul\":1476:1593   */\n      pop\n        /* \"#utility.yul\":1404:1600   */\n      swap3\n      swap2\n      pop\n      pop\n      jump\t// out\n        /* \"#utility.yul\":1606:2013   */\n    tag_27:\n      0x00\n      dup1\n        /* \"#utility.yul\":1731:1733   */\n      0x40\n        /* \"#utility.yul\":1719:1728   */\n      dup4\n        /* \"#utility.yul\":1710:1717   */\n      dup6\n        /* \"#utility.yul\":1706:1729   */\n      sub\n        /* \"#utility.yul\":1702:1734   */\n      slt\n        /* \"#utility.yul\":1699:1701   */\n      iszero\n      tag_227\n      jumpi\n        /* \"#utility.yul\":1747:1748   */\n      0x00\n        /* \"#utility.yul\":1744:1745   */\n      dup1\n        /* \"#utility.yul\":1737:1749   */\n      revert\n        /* \"#utility.yul\":1699:1701   */\n    tag_227:\n        /* \"#utility.yul\":1790:1791   */\n      0x00\n        /* \"#utility.yul\":1815:1868   */\n      tag_228\n        /* \"#utility.yul\":1860:1867   */\n      dup6\n        /* \"#utility.yul\":1851:1857   */\n      dup3\n        /* \"#utility.yul\":1840:1849   */\n      dup7\n        /* \"#utility.yul\":1836:1858   */\n      add\n        /* \"#utility.yul\":1815:1868   */\n      tag_212\n      jump\t// in\n    tag_228:\n        /* \"#utility.yul\":1805:1868   */\n      swap3\n      pop\n        /* \"#utility.yul\":1761:1878   */\n      pop\n        /* \"#utility.yul\":1917:1919   */\n      0x20\n        /* \"#utility.yul\":1943:1996   */\n      tag_229\n        /* \"#utility.yul\":1988:1995   */\n      dup6\n        /* \"#utility.yul\":1979:1985   */\n      dup3\n        /* \"#utility.yul\":1968:1977   */\n      dup7\n        /* \"#utility.yul\":1964:1986   */\n      add\n        /* \"#utility.yul\":1943:1996   */\n      tag_212\n      jump\t// in\n    tag_229:\n        /* \"#utility.yul\":1933:1996   */\n      swap2\n      pop\n        /* \"#utility.yul\":1888:2006   */\n      pop\n        /* \"#utility.yul\":1689:2013   */\n      swap3\n      pop\n      swap3\n      swap1\n      pop\n      jump\t// out\n        /* \"#utility.yul\":2019:2161   */\n    tag_230:\n        /* \"#utility.yul\":2122:2154   */\n      tag_232\n        /* \"#utility.yul\":2148:2153   */\n      dup2\n        /* \"#utility.yul\":2122:2154   */\n      tag_233\n      jump\t// in\n    tag_232:\n        /* \"#utility.yul\":2117:2120   */\n      dup3\n        /* \"#utility.yul\":2110:2155   */\n      mstore\n        /* \"#utility.yul\":2100:2161   */\n      pop\n      pop\n      jump\t// out\n        /* \"#utility.yul\":2167:2285   */\n    tag_234:\n        /* \"#utility.yul\":2254:2278   */\n      tag_236\n        /* \"#utility.yul\":2272:2277   */\n      dup2\n        /* \"#utility.yul\":2254:2278   */\n      tag_237\n      jump\t// in\n    tag_236:\n        /* \"#utility.yul\":2249:2252   */\n      dup3\n        /* \"#utility.yul\":2242:2279   */\n      mstore\n        /* \"#utility.yul\":2232:2285   */\n      pop\n      pop\n      jump\t// out\n        /* \"#utility.yul\":2291:2400   */\n    tag_238:\n        /* \"#utility.yul\":2372:2393   */\n      tag_240\n        /* \"#utility.yul\":2387:2392   */\n      dup2\n        /* \"#utility.yul\":2372:2393   */\n      tag_241\n      jump\t// in\n    tag_240:\n        /* \"#utility.yul\":2367:2370   */\n      dup3\n        /* \"#utility.yul\":2360:2394   */\n      mstore\n        /* \"#utility.yul\":2350:2400   */\n      pop\n      pop\n      jump\t// out\n        /* \"#utility.yul\":2430:2734   */\n    tag_242:\n      0x00\n        /* \"#utility.yul\":2549:2620   */\n      tag_244\n        /* \"#utility.yul\":2613:2619   */\n      dup4\n        /* \"#utility.yul\":2608:2611   */\n      dup6\n        /* \"#utility.yul\":2549:2620   */\n      tag_245\n      jump\t// in\n    tag_244:\n        /* \"#utility.yul\":2542:2620   */\n      swap4\n      pop\n        /* \"#utility.yul\":2630:2673   */\n      tag_246\n        /* \"#utility.yul\":2666:2672   */\n      dup4\n        /* \"#utility.yul\":2661:2664   */\n      dup6\n        /* \"#utility.yul\":2654:2659   */\n      dup5\n        /* \"#utility.yul\":2630:2673   */\n      tag_247\n      jump\t// in\n    tag_246:\n        /* \"#utility.yul\":2698:2727   */\n      tag_248\n        /* \"#utility.yul\":2720:2726   */\n      dup4\n        /* \"#utility.yul\":2698:2727   */\n      tag_249\n      jump\t// in\n    tag_248:\n        /* \"#utility.yul\":2693:2696   */\n      dup5\n        /* \"#utility.yul\":2689:2728   */\n      add\n        /* \"#utility.yul\":2682:2728   */\n      swap1\n      pop\n        /* \"#utility.yul\":2532:2734   */\n      swap4\n      swap3\n      pop\n      pop\n      pop\n      jump\t// out\n        /* \"#utility.yul\":2740:3104   */\n    tag_250:\n      0x00\n        /* \"#utility.yul\":2856:2895   */\n      tag_252\n        /* \"#utility.yul\":2889:2894   */\n      dup3\n        /* \"#utility.yul\":2856:2895   */\n      tag_253\n      jump\t// in\n    tag_252:\n        /* \"#utility.yul\":2911:2982   */\n      tag_254\n        /* \"#utility.yul\":2975:2981   */\n      dup2\n        /* \"#utility.yul\":2970:2973   */\n      dup6\n        /* \"#utility.yul\":2911:2982   */\n      tag_245\n      jump\t// in\n    tag_254:\n        /* \"#utility.yul\":2904:2982   */\n      swap4\n      pop\n        /* \"#utility.yul\":2991:3043   */\n      tag_255\n        /* \"#utility.yul\":3036:3042   */\n      dup2\n        /* \"#utility.yul\":3031:3034   */\n      dup6\n        /* \"#utility.yul\":3024:3028   */\n      0x20\n        /* \"#utility.yul\":3017:3022   */\n      dup7\n        /* \"#utility.yul\":3013:3029   */\n      add\n        /* \"#utility.yul\":2991:3043   */\n      tag_256\n      jump\t// in\n    tag_255:\n        /* \"#utility.yul\":3068:3097   */\n      tag_257\n        /* \"#utility.yul\":3090:3096   */\n      dup2\n        /* \"#utility.yul\":3068:3097   */\n      tag_249\n      jump\t// in\n    tag_257:\n        /* \"#utility.yul\":3063:3066   */\n      dup5\n        /* \"#utility.yul\":3059:3098   */\n      add\n        /* \"#utility.yul\":3052:3098   */\n      swap2\n      pop\n        /* \"#utility.yul\":2832:3104   */\n      pop\n      swap3\n      swap2\n      pop\n      pop\n      jump\t// out\n        /* \"#utility.yul\":3110:3476   */\n    tag_258:\n      0x00\n        /* \"#utility.yul\":3273:3340   */\n      tag_260\n        /* \"#utility.yul\":3337:3339   */\n      0x22\n        /* \"#utility.yul\":3332:3335   */\n      dup4\n        /* \"#utility.yul\":3273:3340   */\n      tag_245\n      jump\t// in\n    tag_260:\n        /* \"#utility.yul\":3266:3340   */\n      swap2\n      pop\n        /* \"#utility.yul\":3370:3404   */\n      0x446f6e6174696f6e206d7573742062652067726561746572207468616e207a65\n        /* \"#utility.yul\":3366:3367   */\n      0x00\n        /* \"#utility.yul\":3361:3364   */\n      dup4\n        /* \"#utility.yul\":3357:3368   */\n      add\n        /* \"#utility.yul\":3350:3405   */\n      mstore\n        /* \"#utility.yul\":3436:3440   */\n      0x726f000000000000000000000000000000000000000000000000000000000000\n        /* \"#utility.yul\":3431:3433   */\n      0x20\n        /* \"#utility.yul\":3426:3429   */\n      dup4\n        /* \"#utility.yul\":3422:3434   */\n      add\n        /* \"#utility.yul\":3415:3441   */\n      mstore\n        /* \"#utility.yul\":3467:3469   */\n      0x40\n        /* \"#utility.yul\":3462:3465   */\n      dup3\n        /* \"#utility.yul\":3458:3470   */\n      add\n        /* \"#utility.yul\":3451:3470   */\n      swap1\n      pop\n        /* \"#utility.yul\":3256:3476   */\n      swap2\n      swap1\n      pop\n      jump\t// out\n        /* \"#utility.yul\":3482:3791   */\n    tag_261:\n      0x00\n        /* \"#utility.yul\":3645:3712   */\n      tag_263\n        /* \"#utility.yul\":3709:3711   */\n      0x0b\n        /* \"#utility.yul\":3704:3707   */\n      dup4\n        /* \"#utility.yul\":3645:3712   */\n      tag_245\n      jump\t// in\n    tag_263:\n        /* \"#utility.yul\":3638:3712   */\n      swap2\n      pop\n        /* \"#utility.yul\":3742:3755   */\n      0x42696420746f6f206c6f77000000000000000000000000000000000000000000\n        /* \"#utility.yul\":3738:3739   */\n      0x00\n        /* \"#utility.yul\":3733:3736   */\n      dup4\n        /* \"#utility.yul\":3729:3740   */\n      add\n        /* \"#utility.yul\":3722:3756   */\n      mstore\n        /* \"#utility.yul\":3782:3784   */\n      0x20\n        /* \"#utility.yul\":3777:3780   */\n      dup3\n        /* \"#utility.yul\":3773:3785   */\n      add\n        /* \"#utility.yul\":3766:3785   */\n      swap1\n      pop\n        /* \"#utility.yul\":3628:3791   */\n      swap2\n      swap1\n      pop\n      jump\t// out\n        /* \"#utility.yul\":3797:4110   */\n    tag_264:\n      0x00\n        /* \"#utility.yul\":3960:4027   */\n      tag_266\n        /* \"#utility.yul\":4024:4026   */\n      0x0f\n        /* \"#utility.yul\":4019:4022   */\n      dup4\n        /* \"#utility.yul\":3960:4027   */\n      tag_245\n      jump\t// in\n    tag_266:\n        /* \"#utility.yul\":3953:4027   */\n      swap2\n      pop\n        /* \"#utility.yul\":4057:4074   */\n      0x5472616e73666572206661696c65640000000000000000000000000000000000\n        /* \"#utility.yul\":4053:4054   */\n      0x00\n        /* \"#utility.yul\":4048:4051   */\n      dup4\n        /* \"#utility.yul\":4044:4055   */\n      add\n        /* \"#utility.yul\":4037:4075   */\n      mstore\n        /* \"#utility.yul\":4101:4103   */\n      0x20\n        /* \"#utility.yul\":4096:4099   */\n      dup3\n        /* \"#utility.yul\":4092:4104   */\n      add\n        /* \"#utility.yul\":4085:4104   */\n      swap1\n      pop\n        /* \"#utility.yul\":3943:4110   */\n      swap2\n      swap1\n      pop\n      jump\t// out\n        /* \"#utility.yul\":4116:4436   */\n    tag_267:\n      0x00\n        /* \"#utility.yul\":4279:4346   */\n      tag_269\n        /* \"#utility.yul\":4343:4345   */\n      0x16\n        /* \"#utility.yul\":4338:4341   */\n      dup4\n        /* \"#utility.yul\":4279:4346   */\n      tag_245\n      jump\t// in\n    tag_269:\n        /* \"#utility.yul\":4272:4346   */\n      swap2\n      pop\n        /* \"#utility.yul\":4376:4400   */\n      0x43686172697479206e6f74207265676973746572656400000000000000000000\n        /* \"#utility.yul\":4372:4373   */\n      0x00\n        /* \"#utility.yul\":4367:4370   */\n      dup4\n        /* \"#utility.yul\":4363:4374   */\n      add\n        /* \"#utility.yul\":4356:4401   */\n      mstore\n        /* \"#utility.yul\":4427:4429   */\n      0x20\n        /* \"#utility.yul\":4422:4425   */\n      dup3\n        /* \"#utility.yul\":4418:4430   */\n      add\n        /* \"#utility.yul\":4411:4430   */\n      swap1\n      pop\n        /* \"#utility.yul\":4262:4436   */\n      swap2\n      swap1\n      pop\n      jump\t// out\n        /* \"#utility.yul\":4442:4758   */\n    tag_270:\n      0x00\n        /* \"#utility.yul\":4605:4672   */\n      tag_272\n        /* \"#utility.yul\":4669:4671   */\n      0x12\n        /* \"#utility.yul\":4664:4667   */\n      dup4\n        /* \"#utility.yul\":4605:4672   */\n      tag_245\n      jump\t// in\n    tag_272:\n        /* \"#utility.yul\":4598:4672   */\n      swap2\n      pop\n        /* \"#utility.yul\":4702:4722   */\n      0x41756374696f6e206e6f74206163746976650000000000000000000000000000\n        /* \"#utility.yul\":4698:4699   */\n      0x00\n        /* \"#utility.yul\":4693:4696   */\n      dup4\n        /* \"#utility.yul\":4689:4700   */\n      add\n        /* \"#utility.yul\":4682:4723   */\n      mstore\n        /* \"#utility.yul\":4749:4751   */\n      0x20\n        /* \"#utility.yul\":4744:4747   */\n      dup3\n        /* \"#utility.yul\":4740:4752   */\n      add\n        /* \"#utility.yul\":4733:4752   */\n      swap1\n      pop\n        /* \"#utility.yul\":4588:4758   */\n      swap2\n      swap1\n      pop\n      jump\t// out\n        /* \"#utility.yul\":4764:5079   */\n    tag_273:\n      0x00\n        /* \"#utility.yul\":4927:4994   */\n      tag_275\n        /* \"#utility.yul\":4991:4993   */\n      0x11\n        /* \"#utility.yul\":4986:4989   */\n      dup4\n        /* \"#utility.yul\":4927:4994   */\n      tag_245\n      jump\t// in\n    tag_275:\n        /* \"#utility.yul\":4920:4994   */\n      swap2\n      pop\n        /* \"#utility.yul\":5024:5043   */\n      0x41756374696f6e206e6f7420656e646564000000000000000000000000000000\n        /* \"#utility.yul\":5020:5021   */\n      0x00\n        /* \"#utility.yul\":5015:5018   */\n      dup4\n        /* \"#utility.yul\":5011:5022   */\n      add\n        /* \"#utility.yul\":5004:5044   */\n      mstore\n        /* \"#utility.yul\":5070:5072   */\n      0x20\n        /* \"#utility.yul\":5065:5068   */\n      dup3\n        /* \"#utility.yul\":5061:5073   */\n      add\n        /* \"#utility.yul\":5054:5073   */\n      swap1\n      pop\n        /* \"#utility.yul\":4910:5079   */\n      swap2\n      swap1\n      pop\n      jump\t// out\n        /* \"#utility.yul\":5085:5409   */\n    tag_276:\n      0x00\n        /* \"#utility.yul\":5248:5315   */\n      tag_278\n        /* \"#utility.yul\":5312:5314   */\n      0x1a\n        /* \"#utility.yul\":5307:5310   */\n      dup4\n        /* \"#utility.yul\":5248:5315   */\n      tag_245\n      jump\t// in\n    tag_278:\n        /* \"#utility.yul\":5241:5315   */\n      swap2\n      pop\n        /* \"#utility.yul\":5345:5373   */\n      0x4368617269747920616c72656164792072656769737465726564000000000000\n        /* \"#utility.yul\":5341:5342   */\n      0x00\n        /* \"#utility.yul\":5336:5339   */\n      dup4\n        /* \"#utility.yul\":5332:5343   */\n      add\n        /* \"#utility.yul\":5325:5374   */\n      mstore\n        /* \"#utility.yul\":5400:5402   */\n      0x20\n        /* \"#utility.yul\":5395:5398   */\n      dup3\n        /* \"#utility.yul\":5391:5403   */\n      add\n        /* \"#utility.yul\":5384:5403   */\n      swap1\n      pop\n        /* \"#utility.yul\":5231:5409   */\n      swap2\n      swap1\n      pop\n      jump\t// out\n        /* \"#utility.yul\":5415:5732   */\n    tag_279:\n      0x00\n        /* \"#utility.yul\":5578:5645   */\n      tag_281\n        /* \"#utility.yul\":5642:5644   */\n      0x13\n        /* \"#utility.yul\":5637:5640   */\n      dup4\n        /* \"#utility.yul\":5578:5645   */\n      tag_245\n      jump\t// in\n    tag_281:\n        /* \"#utility.yul\":5571:5645   */\n      swap2\n      pop\n        /* \"#utility.yul\":5675:5696   */\n      0x496e76616c69642074696d652077696e646f7700000000000000000000000000\n        /* \"#utility.yul\":5671:5672   */\n      0x00\n        /* \"#utility.yul\":5666:5669   */\n      dup4\n        /* \"#utility.yul\":5662:5673   */\n      add\n        /* \"#utility.yul\":5655:5697   */\n      mstore\n        /* \"#utility.yul\":5723:5725   */\n      0x20\n        /* \"#utility.yul\":5718:5721   */\n      dup3\n        /* \"#utility.yul\":5714:5726   */\n      add\n        /* \"#utility.yul\":5707:5726   */\n      swap1\n      pop\n        /* \"#utility.yul\":5561:5732   */\n      swap2\n      swap1\n      pop\n      jump\t// out\n        /* \"#utility.yul\":5738:6049   */\n    tag_282:\n      0x00\n        /* \"#utility.yul\":5901:5968   */\n      tag_284\n        /* \"#utility.yul\":5965:5967   */\n      0x0d\n        /* \"#utility.yul\":5960:5963   */\n      dup4\n        /* \"#utility.yul\":5901:5968   */\n      tag_245\n      jump\t// in\n    tag_284:\n        /* \"#utility.yul\":5894:5968   */\n      swap2\n      pop\n        /* \"#utility.yul\":5998:6013   */\n      0x526566756e64206661696c656400000000000000000000000000000000000000\n        /* \"#utility.yul\":5994:5995   */\n      0x00\n        /* \"#utility.yul\":5989:5992   */\n      dup4\n        /* \"#utility.yul\":5985:5996   */\n      add\n        /* \"#utility.yul\":5978:6014   */\n      mstore\n        /* \"#utility.yul\":6040:6042   */\n      0x20\n        /* \"#utility.yul\":6035:6038   */\n      dup3\n        /* \"#utility.yul\":6031:6043   */\n      add\n        /* \"#utility.yul\":6024:6043   */\n      swap1\n      pop\n        /* \"#utility.yul\":5884:6049   */\n      swap2\n      swap1\n      pop\n      jump\t// out\n        /* \"#utility.yul\":6055:6374   */\n    tag_285:\n      0x00\n        /* \"#utility.yul\":6218:6285   */\n      tag_287\n        /* \"#utility.yul\":6282:6284   */\n      0x15\n        /* \"#utility.yul\":6277:6280   */\n      dup4\n        /* \"#utility.yul\":6218:6285   */\n      tag_245\n      jump\t// in\n    tag_287:\n        /* \"#utility.yul\":6211:6285   */\n      swap2\n      pop\n        /* \"#utility.yul\":6315:6338   */\n      0x456e64206d75737420626520696e206675747572650000000000000000000000\n        /* \"#utility.yul\":6311:6312   */\n      0x00\n        /* \"#utility.yul\":6306:6309   */\n      dup4\n        /* \"#utility.yul\":6302:6313   */\n      add\n        /* \"#utility.yul\":6295:6339   */\n      mstore\n        /* \"#utility.yul\":6365:6367   */\n      0x20\n        /* \"#utility.yul\":6360:6363   */\n      dup3\n        /* \"#utility.yul\":6356:6368   */\n      add\n        /* \"#utility.yul\":6349:6368   */\n      swap1\n      pop\n        /* \"#utility.yul\":6201:6374   */\n      swap2\n      swap1\n      pop\n      jump\t// out\n        /* \"#utility.yul\":6380:6677   */\n    tag_288:\n      0x00\n        /* \"#utility.yul\":6560:6643   */\n      tag_290\n        /* \"#utility.yul\":6641:6642   */\n      0x00\n        /* \"#utility.yul\":6636:6639   */\n      dup4\n        /* \"#utility.yul\":6560:6643   */\n      tag_291\n      jump\t// in\n    tag_290:\n        /* \"#utility.yul\":6553:6643   */\n      swap2\n      pop\n        /* \"#utility.yul\":6669:6670   */\n      0x00\n        /* \"#utility.yul\":6664:6667   */\n      dup3\n        /* \"#utility.yul\":6660:6671   */\n      add\n        /* \"#utility.yul\":6653:6671   */\n      swap1\n      pop\n        /* \"#utility.yul\":6543:6677   */\n      swap2\n      swap1\n      pop\n      jump\t// out\n        /* \"#utility.yul\":6683:6998   */\n    tag_292:\n      0x00\n        /* \"#utility.yul\":6846:6913   */\n      tag_294\n        /* \"#utility.yul\":6910:6912   */\n      0x11\n        /* \"#utility.yul\":6905:6908   */\n      dup4\n        /* \"#utility.yul\":6846:6913   */\n      tag_245\n      jump\t// in\n    tag_294:\n        /* \"#utility.yul\":6839:6913   */\n      swap2\n      pop\n        /* \"#utility.yul\":6943:6962   */\n      0x416c72656164792066696e616c697a6564000000000000000000000000000000\n        /* \"#utility.yul\":6939:6940   */\n      0x00\n        /* \"#utility.yul\":6934:6937   */\n      dup4\n        /* \"#utility.yul\":6930:6941   */\n      add\n        /* \"#utility.yul\":6923:6963   */\n      mstore\n        /* \"#utility.yul\":6989:6991   */\n      0x20\n        /* \"#utility.yul\":6984:6987   */\n      dup3\n        /* \"#utility.yul\":6980:6992   */\n      add\n        /* \"#utility.yul\":6973:6992   */\n      swap1\n      pop\n        /* \"#utility.yul\":6829:6998   */\n      swap2\n      swap1\n      pop\n      jump\t// out\n        /* \"#utility.yul\":7004:7321   */\n    tag_295:\n      0x00\n        /* \"#utility.yul\":7167:7234   */\n      tag_297\n        /* \"#utility.yul\":7231:7233   */\n      0x13\n        /* \"#utility.yul\":7226:7229   */\n      dup4\n        /* \"#utility.yul\":7167:7234   */\n      tag_245\n      jump\t// in\n    tag_297:\n        /* \"#utility.yul\":7160:7234   */\n      swap2\n      pop\n        /* \"#utility.yul\":7264:7285   */\n      0x496e646578206f7574206f6620626f756e647300000000000000000000000000\n        /* \"#utility.yul\":7260:7261   */\n      0x00\n        /* \"#utility.yul\":7255:7258   */\n      dup4\n        /* \"#utility.yul\":7251:7262   */\n      add\n        /* \"#utility.yul\":7244:7286   */\n      mstore\n        /* \"#utility.yul\":7312:7314   */\n      0x20\n        /* \"#utility.yul\":7307:7310   */\n      dup3\n        /* \"#utility.yul\":7303:7315   */\n      add\n        /* \"#utility.yul\":7296:7315   */\n      swap1\n      pop\n        /* \"#utility.yul\":7150:7321   */\n      swap2\n      swap1\n      pop\n      jump\t// out\n        /* \"#utility.yul\":7327:7445   */\n    tag_298:\n        /* \"#utility.yul\":7414:7438   */\n      tag_300\n        /* \"#utility.yul\":7432:7437   */\n      dup2\n        /* \"#utility.yul\":7414:7438   */\n      tag_301\n      jump\t// in\n    tag_300:\n        /* \"#utility.yul\":7409:7412   */\n      dup3\n        /* \"#utility.yul\":7402:7439   */\n      mstore\n        /* \"#utility.yul\":7392:7445   */\n      pop\n      pop\n      jump\t// out\n        /* \"#utility.yul\":7451:7830   */\n    tag_109:\n      0x00\n        /* \"#utility.yul\":7657:7804   */\n      tag_303\n        /* \"#utility.yul\":7800:7803   */\n      dup3\n        /* \"#utility.yul\":7657:7804   */\n      tag_288\n      jump\t// in\n    tag_303:\n        /* \"#utility.yul\":7650:7804   */\n      swap2\n      pop\n        /* \"#utility.yul\":7821:7824   */\n      dup2\n        /* \"#utility.yul\":7814:7824   */\n      swap1\n      pop\n        /* \"#utility.yul\":7639:7830   */\n      swap2\n      swap1\n      pop\n      jump\t// out\n        /* \"#utility.yul\":7836:8611   */\n    tag_34:\n      0x00\n        /* \"#utility.yul\":8109:8112   */\n      0xa0\n        /* \"#utility.yul\":8098:8107   */\n      dup3\n        /* \"#utility.yul\":8094:8113   */\n      add\n        /* \"#utility.yul\":8086:8113   */\n      swap1\n      pop\n        /* \"#utility.yul\":8123:8210   */\n      tag_305\n        /* \"#utility.yul\":8207:8208   */\n      0x00\n        /* \"#utility.yul\":8196:8205   */\n      dup4\n        /* \"#utility.yul\":8192:8209   */\n      add\n        /* \"#utility.yul\":8183:8189   */\n      dup9\n        /* \"#utility.yul\":8123:8210   */\n      tag_230\n      jump\t// in\n    tag_305:\n        /* \"#utility.yul\":8257:8266   */\n      dup2\n        /* \"#utility.yul\":8251:8255   */\n      dup2\n        /* \"#utility.yul\":8247:8267   */\n      sub\n        /* \"#utility.yul\":8242:8244   */\n      0x20\n        /* \"#utility.yul\":8231:8240   */\n      dup4\n        /* \"#utility.yul\":8227:8245   */\n      add\n        /* \"#utility.yul\":8220:8268   */\n      mstore\n        /* \"#utility.yul\":8285:8363   */\n      tag_306\n        /* \"#utility.yul\":8358:8362   */\n      dup2\n        /* \"#utility.yul\":8349:8355   */\n      dup8\n        /* \"#utility.yul\":8285:8363   */\n      tag_250\n      jump\t// in\n    tag_306:\n        /* \"#utility.yul\":8277:8363   */\n      swap1\n      pop\n        /* \"#utility.yul\":8373:8439   */\n      tag_307\n        /* \"#utility.yul\":8435:8437   */\n      0x40\n        /* \"#utility.yul\":8424:8433   */\n      dup4\n        /* \"#utility.yul\":8420:8438   */\n      add\n        /* \"#utility.yul\":8411:8417   */\n      dup7\n        /* \"#utility.yul\":8373:8439   */\n      tag_238\n      jump\t// in\n    tag_307:\n        /* \"#utility.yul\":8449:8521   */\n      tag_308\n        /* \"#utility.yul\":8517:8519   */\n      0x60\n        /* \"#utility.yul\":8506:8515   */\n      dup4\n        /* \"#utility.yul\":8502:8520   */\n      add\n        /* \"#utility.yul\":8493:8499   */\n      dup6\n        /* \"#utility.yul\":8449:8521   */\n      tag_298\n      jump\t// in\n    tag_308:\n        /* \"#utility.yul\":8531:8604   */\n      tag_309\n        /* \"#utility.yul\":8599:8602   */\n      0x80\n        /* \"#utility.yul\":8588:8597   */\n      dup4\n        /* \"#utility.yul\":8584:8603   */\n      add\n        /* \"#utility.yul\":8575:8581   */\n      dup5\n        /* \"#utility.yul\":8531:8604   */\n      tag_298\n      jump\t// in\n    tag_309:\n        /* \"#utility.yul\":8076:8611   */\n      swap7\n      swap6\n      pop\n      pop\n      pop\n      pop\n      pop\n      pop\n      jump\t// out\n        /* \"#utility.yul\":8617:9170   */\n    tag_89:\n      0x00\n        /* \"#utility.yul\":8832:8835   */\n      0x80\n        /* \"#utility.yul\":8821:8830   */\n      dup3\n        /* \"#utility.yul\":8817:8836   */\n      add\n        /* \"#utility.yul\":8809:8836   */\n      swap1\n      pop\n        /* \"#utility.yul\":8846:8917   */\n      tag_311\n        /* \"#utility.yul\":8914:8915   */\n      0x00\n        /* \"#utility.yul\":8903:8912   */\n      dup4\n        /* \"#utility.yul\":8899:8916   */\n      add\n        /* \"#utility.yul\":8890:8896   */\n      dup8\n        /* \"#utility.yul\":8846:8917   */\n      tag_234\n      jump\t// in\n    tag_311:\n        /* \"#utility.yul\":8927:8999   */\n      tag_312\n        /* \"#utility.yul\":8995:8997   */\n      0x20\n        /* \"#utility.yul\":8984:8993   */\n      dup4\n        /* \"#utility.yul\":8980:8998   */\n      add\n        /* \"#utility.yul\":8971:8977   */\n      dup7\n        /* \"#utility.yul\":8927:8999   */\n      tag_234\n      jump\t// in\n    tag_312:\n        /* \"#utility.yul\":9009:9081   */\n      tag_313\n        /* \"#utility.yul\":9077:9079   */\n      0x40\n        /* \"#utility.yul\":9066:9075   */\n      dup4\n        /* \"#utility.yul\":9062:9080   */\n      add\n        /* \"#utility.yul\":9053:9059   */\n      dup6\n        /* \"#utility.yul\":9009:9081   */\n      tag_298\n      jump\t// in\n    tag_313:\n        /* \"#utility.yul\":9091:9163   */\n      tag_314\n        /* \"#utility.yul\":9159:9161   */\n      0x60\n        /* \"#utility.yul\":9148:9157   */\n      dup4\n        /* \"#utility.yul\":9144:9162   */\n      add\n        /* \"#utility.yul\":9135:9141   */\n      dup5\n        /* \"#utility.yul\":9091:9163   */\n      tag_298\n      jump\t// in\n    tag_314:\n        /* \"#utility.yul\":8799:9170   */\n      swap6\n      swap5\n      pop\n      pop\n      pop\n      pop\n      pop\n      jump\t// out\n        /* \"#utility.yul\":9176:9939   */\n    tag_54:\n      0x00\n        /* \"#utility.yul\":9441:9444   */\n      0xc0\n        /* \"#utility.yul\":9430:9439   */\n      dup3\n        /* \"#utility.yul\":9426:9445   */\n      add\n        /* \"#utility.yul\":9418:9445   */\n      swap1\n      pop\n        /* \"#utility.yul\":9455:9526   */\n      tag_316\n        /* \"#utility.yul\":9523:9524   */\n      0x00\n        /* \"#utility.yul\":9512:9521   */\n      dup4\n        /* \"#utility.yul\":9508:9525   */\n      add\n        /* \"#utility.yul\":9499:9505   */\n      dup10\n        /* \"#utility.yul\":9455:9526   */\n      tag_234\n      jump\t// in\n    tag_316:\n        /* \"#utility.yul\":9536:9608   */\n      tag_317\n        /* \"#utility.yul\":9604:9606   */\n      0x20\n        /* \"#utility.yul\":9593:9602   */\n      dup4\n        /* \"#utility.yul\":9589:9607   */\n      add\n        /* \"#utility.yul\":9580:9586   */\n      dup9\n        /* \"#utility.yul\":9536:9608   */\n      tag_298\n      jump\t// in\n    tag_317:\n        /* \"#utility.yul\":9618:9690   */\n      tag_318\n        /* \"#utility.yul\":9686:9688   */\n      0x40\n        /* \"#utility.yul\":9675:9684   */\n      dup4\n        /* \"#utility.yul\":9671:9689   */\n      add\n        /* \"#utility.yul\":9662:9668   */\n      dup8\n        /* \"#utility.yul\":9618:9690   */\n      tag_298\n      jump\t// in\n    tag_318:\n        /* \"#utility.yul\":9700:9772   */\n      tag_319\n        /* \"#utility.yul\":9768:9770   */\n      0x60\n        /* \"#utility.yul\":9757:9766   */\n      dup4\n        /* \"#utility.yul\":9753:9771   */\n      add\n        /* \"#utility.yul\":9744:9750   */\n      dup7\n        /* \"#utility.yul\":9700:9772   */\n      tag_234\n      jump\t// in\n    tag_319:\n        /* \"#utility.yul\":9782:9855   */\n      tag_320\n        /* \"#utility.yul\":9850:9853   */\n      0x80\n        /* \"#utility.yul\":9839:9848   */\n      dup4\n        /* \"#utility.yul\":9835:9854   */\n      add\n        /* \"#utility.yul\":9826:9832   */\n      dup6\n        /* \"#utility.yul\":9782:9855   */\n      tag_298\n      jump\t// in\n    tag_320:\n        /* \"#utility.yul\":9865:9932   */\n      tag_321\n        /* \"#utility.yul\":9927:9930   */\n      0xa0\n        /* \"#utility.yul\":9916:9925   */\n      dup4\n        /* \"#utility.yul\":9912:9931   */\n      add\n        /* \"#utility.yul\":9903:9909   */\n      dup5\n        /* \"#utility.yul\":9865:9932   */\n      tag_238\n      jump\t// in\n    tag_321:\n        /* \"#utility.yul\":9408:9939   */\n      swap8\n      swap7\n      pop\n      pop\n      pop\n      pop\n      pop\n      pop\n      pop\n      jump\t// out\n        /* \"#utility.yul\":9945:10278   */\n    tag_160:\n      0x00\n        /* \"#utility.yul\":10106:10108   */\n      0x20\n        /* \"#utility.yul\":10095:10104   */\n      dup3\n        /* \"#utility.yul\":10091:10109   */\n      add\n        /* \"#utility.yul\":10083:10109   */\n      swap1\n      pop\n        /* \"#utility.yul\":10155:10164   */\n      dup2\n        /* \"#utility.yul\":10149:10153   */\n      dup2\n        /* \"#utility.yul\":10145:10165   */\n      sub\n        /* \"#utility.yul\":10141:10142   */\n      0x00\n        /* \"#utility.yul\":10130:10139   */\n      dup4\n        /* \"#utility.yul\":10126:10143   */\n      add\n        /* \"#utility.yul\":10119:10166   */\n      mstore\n        /* \"#utility.yul\":10183:10271   */\n      tag_323\n        /* \"#utility.yul\":10266:10270   */\n      dup2\n        /* \"#utility.yul\":10257:10263   */\n      dup5\n        /* \"#utility.yul\":10249:10255   */\n      dup7\n        /* \"#utility.yul\":10183:10271   */\n      tag_242\n      jump\t// in\n    tag_323:\n        /* \"#utility.yul\":10175:10271   */\n      swap1\n      pop\n        /* \"#utility.yul\":10073:10278   */\n      swap4\n      swap3\n      pop\n      pop\n      pop\n      jump\t// out\n        /* \"#utility.yul\":10284:10703   */\n    tag_101:\n      0x00\n        /* \"#utility.yul\":10488:10490   */\n      0x20\n        /* \"#utility.yul\":10477:10486   */\n      dup3\n        /* \"#utility.yul\":10473:10491   */\n      add\n        /* \"#utility.yul\":10465:10491   */\n      swap1\n      pop\n        /* \"#utility.yul\":10537:10546   */\n      dup2\n        /* \"#utility.yul\":10531:10535   */\n      dup2\n        /* \"#utility.yul\":10527:10547   */\n      sub\n        /* \"#utility.yul\":10523:10524   */\n      0x00\n        /* \"#utility.yul\":10512:10521   */\n      dup4\n        /* \"#utility.yul\":10508:10525   */\n      add\n        /* \"#utility.yul\":10501:10548   */\n      mstore\n        /* \"#utility.yul\":10565:10696   */\n      tag_325\n        /* \"#utility.yul\":10691:10695   */\n      dup2\n        /* \"#utility.yul\":10565:10696   */\n      tag_258\n      jump\t// in\n    tag_325:\n        /* \"#utility.yul\":10557:10696   */\n      swap1\n      pop\n        /* \"#utility.yul\":10455:10703   */\n      swap2\n      swap1\n      pop\n      jump\t// out\n        /* \"#utility.yul\":10709:11128   */\n    tag_142:\n      0x00\n        /* \"#utility.yul\":10913:10915   */\n      0x20\n        /* \"#utility.yul\":10902:10911   */\n      dup3\n        /* \"#utility.yul\":10898:10916   */\n      add\n        /* \"#utility.yul\":10890:10916   */\n      swap1\n      pop\n        /* \"#utility.yul\":10962:10971   */\n      dup2\n        /* \"#utility.yul\":10956:10960   */\n      dup2\n        /* \"#utility.yul\":10952:10972   */\n      sub\n        /* \"#utility.yul\":10948:10949   */\n      0x00\n        /* \"#utility.yul\":10937:10946   */\n      dup4\n        /* \"#utility.yul\":10933:10950   */\n      add\n        /* \"#utility.yul\":10926:10973   */\n      mstore\n        /* \"#utility.yul\":10990:11121   */\n      tag_327\n        /* \"#utility.yul\":11116:11120   */\n      dup2\n        /* \"#utility.yul\":10990:11121   */\n      tag_261\n      jump\t// in\n    tag_327:\n        /* \"#utility.yul\":10982:11121   */\n      swap1\n      pop\n        /* \"#utility.yul\":10880:11128   */\n      swap2\n      swap1\n      pop\n      jump\t// out\n        /* \"#utility.yul\":11134:11553   */\n    tag_115:\n      0x00\n        /* \"#utility.yul\":11338:11340   */\n      0x20\n        /* \"#utility.yul\":11327:11336   */\n      dup3\n        /* \"#utility.yul\":11323:11341   */\n      add\n        /* \"#utility.yul\":11315:11341   */\n      swap1\n      pop\n        /* \"#utility.yul\":11387:11396   */\n      dup2\n        /* \"#utility.yul\":11381:11385   */\n      dup2\n        /* \"#utility.yul\":11377:11397   */\n      sub\n        /* \"#utility.yul\":11373:11374   */\n      0x00\n        /* \"#utility.yul\":11362:11371   */\n      dup4\n        /* \"#utility.yul\":11358:11375   */\n      add\n        /* \"#utility.yul\":11351:11398   */\n      mstore\n        /* \"#utility.yul\":11415:11546   */\n      tag_329\n        /* \"#utility.yul\":11541:11545   */\n      dup2\n        /* \"#utility.yul\":11415:11546   */\n      tag_264\n      jump\t// in\n    tag_329:\n        /* \"#utility.yul\":11407:11546   */\n      swap1\n      pop\n        /* \"#utility.yul\":11305:11553   */\n      swap2\n      swap1\n      pop\n      jump\t// out\n        /* \"#utility.yul\":11559:11978   */\n    tag_98:\n      0x00\n        /* \"#utility.yul\":11763:11765   */\n      0x20\n        /* \"#utility.yul\":11752:11761   */\n      dup3\n        /* \"#utility.yul\":11748:11766   */\n      add\n        /* \"#utility.yul\":11740:11766   */\n      swap1\n      pop\n        /* \"#utility.yul\":11812:11821   */\n      dup2\n        /* \"#utility.yul\":11806:11810   */\n      dup2\n        /* \"#utility.yul\":11802:11822   */\n      sub\n        /* \"#utility.yul\":11798:11799   */\n      0x00\n        /* \"#utility.yul\":11787:11796   */\n      dup4\n        /* \"#utility.yul\":11783:11800   */\n      add\n        /* \"#utility.yul\":11776:11823   */\n      mstore\n        /* \"#utility.yul\":11840:11971   */\n      tag_331\n        /* \"#utility.yul\":11966:11970   */\n      dup2\n        /* \"#utility.yul\":11840:11971   */\n      tag_267\n      jump\t// in\n    tag_331:\n        /* \"#utility.yul\":11832:11971   */\n      swap1\n      pop\n        /* \"#utility.yul\":11730:11978   */\n      swap2\n      swap1\n      pop\n      jump\t// out\n        /* \"#utility.yul\":11984:12403   */\n    tag_139:\n      0x00\n        /* \"#utility.yul\":12188:12190   */\n      0x20\n        /* \"#utility.yul\":12177:12186   */\n      dup3\n        /* \"#utility.yul\":12173:12191   */\n      add\n        /* \"#utility.yul\":12165:12191   */\n      swap1\n      pop\n        /* \"#utility.yul\":12237:12246   */\n      dup2\n        /* \"#utility.yul\":12231:12235   */\n      dup2\n        /* \"#utility.yul\":12227:12247   */\n      sub\n        /* \"#utility.yul\":12223:12224   */\n      0x00\n        /* \"#utility.yul\":12212:12221   */\n      dup4\n        /* \"#utility.yul\":12208:12225   */\n      add\n        /* \"#utility.yul\":12201:12248   */\n      mstore\n        /* \"#utility.yul\":12265:12396   */\n      tag_333\n        /* \"#utility.yul\":12391:12395   */\n      dup2\n        /* \"#utility.yul\":12265:12396   */\n      tag_270\n      jump\t// in\n    tag_333:\n        /* \"#utility.yul\":12257:12396   */\n      swap1\n      pop\n        /* \"#utility.yul\":12155:12403   */\n      swap2\n      swap1\n      pop\n      jump\t// out\n        /* \"#utility.yul\":12409:12828   */\n    tag_168:\n      0x00\n        /* \"#utility.yul\":12613:12615   */\n      0x20\n        /* \"#utility.yul\":12602:12611   */\n      dup3\n        /* \"#utility.yul\":12598:12616   */\n      add\n        /* \"#utility.yul\":12590:12616   */\n      swap1\n      pop\n        /* \"#utility.yul\":12662:12671   */\n      dup2\n        /* \"#utility.yul\":12656:12660   */\n      dup2\n        /* \"#utility.yul\":12652:12672   */\n      sub\n        /* \"#utility.yul\":12648:12649   */\n      0x00\n        /* \"#utility.yul\":12637:12646   */\n      dup4\n        /* \"#utility.yul\":12633:12650   */\n      add\n        /* \"#utility.yul\":12626:12673   */\n      mstore\n        /* \"#utility.yul\":12690:12821   */\n      tag_335\n        /* \"#utility.yul\":12816:12820   */\n      dup2\n        /* \"#utility.yul\":12690:12821   */\n      tag_273\n      jump\t// in\n    tag_335:\n        /* \"#utility.yul\":12682:12821   */\n      swap1\n      pop\n        /* \"#utility.yul\":12580:12828   */\n      swap2\n      swap1\n      pop\n      jump\t// out\n        /* \"#utility.yul\":12834:13253   */\n    tag_156:\n      0x00\n        /* \"#utility.yul\":13038:13040   */\n      0x20\n        /* \"#utility.yul\":13027:13036   */\n      dup3\n        /* \"#utility.yul\":13023:13041   */\n      add\n        /* \"#utility.yul\":13015:13041   */\n      swap1\n      pop\n        /* \"#utility.yul\":13087:13096   */\n      dup2\n        /* \"#utility.yul\":13081:13085   */\n      dup2\n        /* \"#utility.yul\":13077:13097   */\n      sub\n        /* \"#utility.yul\":13073:13074   */\n      0x00\n        /* \"#utility.yul\":13062:13071   */\n      dup4\n        /* \"#utility.yul\":13058:13075   */\n      add\n        /* \"#utility.yul\":13051:13098   */\n      mstore\n        /* \"#utility.yul\":13115:13246   */\n      tag_337\n        /* \"#utility.yul\":13241:13245   */\n      dup2\n        /* \"#utility.yul\":13115:13246   */\n      tag_276\n      jump\t// in\n    tag_337:\n        /* \"#utility.yul\":13107:13246   */\n      swap1\n      pop\n        /* \"#utility.yul\":13005:13253   */\n      swap2\n      swap1\n      pop\n      jump\t// out\n        /* \"#utility.yul\":13259:13678   */\n    tag_122:\n      0x00\n        /* \"#utility.yul\":13463:13465   */\n      0x20\n        /* \"#utility.yul\":13452:13461   */\n      dup3\n        /* \"#utility.yul\":13448:13466   */\n      add\n        /* \"#utility.yul\":13440:13466   */\n      swap1\n      pop\n        /* \"#utility.yul\":13512:13521   */\n      dup2\n        /* \"#utility.yul\":13506:13510   */\n      dup2\n        /* \"#utility.yul\":13502:13522   */\n      sub\n        /* \"#utility.yul\":13498:13499   */\n      0x00\n        /* \"#utility.yul\":13487:13496   */\n      dup4\n        /* \"#utility.yul\":13483:13500   */\n      add\n        /* \"#utility.yul\":13476:13523   */\n      mstore\n        /* \"#utility.yul\":13540:13671   */\n      tag_339\n        /* \"#utility.yul\":13666:13670   */\n      dup2\n        /* \"#utility.yul\":13540:13671   */\n      tag_279\n      jump\t// in\n    tag_339:\n        /* \"#utility.yul\":13532:13671   */\n      swap1\n      pop\n        /* \"#utility.yul\":13430:13678   */\n      swap2\n      swap1\n      pop\n      jump\t// out\n        /* \"#utility.yul\":13684:14103   */\n    tag_150:\n      0x00\n        /* \"#utility.yul\":13888:13890   */\n      0x20\n        /* \"#utility.yul\":13877:13886   */\n      dup3\n        /* \"#utility.yul\":13873:13891   */\n      add\n        /* \"#utility.yul\":13865:13891   */\n      swap1\n      pop\n        /* \"#utility.yul\":13937:13946   */\n      dup2\n        /* \"#utility.yul\":13931:13935   */\n      dup2\n        /* \"#utility.yul\":13927:13947   */\n      sub\n        /* \"#utility.yul\":13923:13924   */\n      0x00\n        /* \"#utility.yul\":13912:13921   */\n      dup4\n        /* \"#utility.yul\":13908:13925   */\n      add\n        /* \"#utility.yul\":13901:13948   */\n      mstore\n        /* \"#utility.yul\":13965:14096   */\n      tag_341\n        /* \"#utility.yul\":14091:14095   */\n      dup2\n        /* \"#utility.yul\":13965:14096   */\n      tag_282\n      jump\t// in\n    tag_341:\n        /* \"#utility.yul\":13957:14096   */\n      swap1\n      pop\n        /* \"#utility.yul\":13855:14103   */\n      swap2\n      swap1\n      pop\n      jump\t// out\n        /* \"#utility.yul\":14109:14528   */\n    tag_125:\n      0x00\n        /* \"#utility.yul\":14313:14315   */\n      0x20\n        /* \"#utility.yul\":14302:14311   */\n      dup3\n        /* \"#utility.yul\":14298:14316   */\n      add\n        /* \"#utility.yul\":14290:14316   */\n      swap1\n      pop\n        /* \"#utility.yul\":14362:14371   */\n      dup2\n        /* \"#utility.yul\":14356:14360   */\n      dup2\n        /* \"#utility.yul\":14352:14372   */\n      sub\n        /* \"#utility.yul\":14348:14349   */\n      0x00\n        /* \"#utility.yul\":14337:14346   */\n      dup4\n        /* \"#utility.yul\":14333:14350   */\n      add\n        /* \"#utility.yul\":14326:14373   */\n      mstore\n        /* \"#utility.yul\":14390:14521   */\n      tag_343\n        /* \"#utility.yul\":14516:14520   */\n      dup2\n        /* \"#utility.yul\":14390:14521   */\n      tag_285\n      jump\t// in\n    tag_343:\n        /* \"#utility.yul\":14382:14521   */\n      swap1\n      pop\n        /* \"#utility.yul\":14280:14528   */\n      swap2\n      swap1\n      pop\n      jump\t// out\n        /* \"#utility.yul\":14534:14953   */\n    tag_171:\n      0x00\n        /* \"#utility.yul\":14738:14740   */\n      0x20\n        /* \"#utility.yul\":14727:14736   */\n      dup3\n        /* \"#utility.yul\":14723:14741   */\n      add\n        /* \"#utility.yul\":14715:14741   */\n      swap1\n      pop\n        /* \"#utility.yul\":14787:14796   */\n      dup2\n        /* \"#utility.yul\":14781:14785   */\n      dup2\n        /* \"#utility.yul\":14777:14797   */\n      sub\n        /* \"#utility.yul\":14773:14774   */\n      0x00\n        /* \"#utility.yul\":14762:14771   */\n      dup4\n        /* \"#utility.yul\":14758:14775   */\n      add\n        /* \"#utility.yul\":14751:14798   */\n      mstore\n        /* \"#utility.yul\":14815:14946   */\n      tag_345\n        /* \"#utility.yul\":14941:14945   */\n      dup2\n        /* \"#utility.yul\":14815:14946   */\n      tag_292\n      jump\t// in\n    tag_345:\n        /* \"#utility.yul\":14807:14946   */\n      swap1\n      pop\n        /* \"#utility.yul\":14705:14953   */\n      swap2\n      swap1\n      pop\n      jump\t// out\n        /* \"#utility.yul\":14959:15378   */\n    tag_187:\n      0x00\n        /* \"#utility.yul\":15163:15165   */\n      0x20\n        /* \"#utility.yul\":15152:15161   */\n      dup3\n        /* \"#utility.yul\":15148:15166   */\n      add\n        /* \"#utility.yul\":15140:15166   */\n      swap1\n      pop\n        /* \"#utility.yul\":15212:15221   */\n      dup2\n        /* \"#utility.yul\":15206:15210   */\n      dup2\n        /* \"#utility.yul\":15202:15222   */\n      sub\n        /* \"#utility.yul\":15198:15199   */\n      0x00\n        /* \"#utility.yul\":15187:15196   */\n      dup4\n        /* \"#utility.yul\":15183:15200   */\n      add\n        /* \"#utility.yul\":15176:15223   */\n      mstore\n        /* \"#utility.yul\":15240:15371   */\n      tag_347\n        /* \"#utility.yul\":15366:15370   */\n      dup2\n        /* \"#utility.yul\":15240:15371   */\n      tag_295\n      jump\t// in\n    tag_347:\n        /* \"#utility.yul\":15232:15371   */\n      swap1\n      pop\n        /* \"#utility.yul\":15130:15378   */\n      swap2\n      swap1\n      pop\n      jump\t// out\n        /* \"#utility.yul\":15384:15606   */\n    tag_39:\n      0x00\n        /* \"#utility.yul\":15515:15517   */\n      0x20\n        /* \"#utility.yul\":15504:15513   */\n      dup3\n        /* \"#utility.yul\":15500:15518   */\n      add\n        /* \"#utility.yul\":15492:15518   */\n      swap1\n      pop\n        /* \"#utility.yul\":15528:15599   */\n      tag_349\n        /* \"#utility.yul\":15596:15597   */\n      0x00\n        /* \"#utility.yul\":15585:15594   */\n      dup4\n        /* \"#utility.yul\":15581:15598   */\n      add\n        /* \"#utility.yul\":15572:15578   */\n      dup5\n        /* \"#utility.yul\":15528:15599   */\n      tag_298\n      jump\t// in\n    tag_349:\n        /* \"#utility.yul\":15482:15606   */\n      swap3\n      swap2\n      pop\n      pop\n      jump\t// out\n        /* \"#utility.yul\":15612:15944   */\n    tag_60:\n      0x00\n        /* \"#utility.yul\":15771:15773   */\n      0x40\n        /* \"#utility.yul\":15760:15769   */\n      dup3\n        /* \"#utility.yul\":15756:15774   */\n      add\n        /* \"#utility.yul\":15748:15774   */\n      swap1\n      pop\n        /* \"#utility.yul\":15784:15855   */\n      tag_351\n        /* \"#utility.yul\":15852:15853   */\n      0x00\n        /* \"#utility.yul\":15841:15850   */\n      dup4\n        /* \"#utility.yul\":15837:15854   */\n      add\n        /* \"#utility.yul\":15828:15834   */\n      dup6\n        /* \"#utility.yul\":15784:15855   */\n      tag_298\n      jump\t// in\n    tag_351:\n        /* \"#utility.yul\":15865:15937   */\n      tag_352\n        /* \"#utility.yul\":15933:15935   */\n      0x20\n        /* \"#utility.yul\":15922:15931   */\n      dup4\n        /* \"#utility.yul\":15918:15936   */\n      add\n        /* \"#utility.yul\":15909:15915   */\n      dup5\n        /* \"#utility.yul\":15865:15937   */\n      tag_298\n      jump\t// in\n    tag_352:\n        /* \"#utility.yul\":15738:15944   */\n      swap4\n      swap3\n      pop\n      pop\n      pop\n      jump\t// out\n        /* \"#utility.yul\":15950:16049   */\n    tag_253:\n      0x00\n        /* \"#utility.yul\":16036:16041   */\n      dup2\n        /* \"#utility.yul\":16030:16042   */\n      mload\n        /* \"#utility.yul\":16020:16042   */\n      swap1\n      pop\n        /* \"#utility.yul\":16009:16049   */\n      swap2\n      swap1\n      pop\n      jump\t// out\n        /* \"#utility.yul\":16055:16202   */\n    tag_291:\n      0x00\n        /* \"#utility.yul\":16193:16196   */\n      dup2\n        /* \"#utility.yul\":16178:16196   */\n      swap1\n      pop\n        /* \"#utility.yul\":16168:16202   */\n      swap3\n      swap2\n      pop\n      pop\n      jump\t// out\n        /* \"#utility.yul\":16208:16377   */\n    tag_245:\n      0x00\n        /* \"#utility.yul\":16326:16332   */\n      dup3\n        /* \"#utility.yul\":16321:16324   */\n      dup3\n        /* \"#utility.yul\":16314:16333   */\n      mstore\n        /* \"#utility.yul\":16366:16370   */\n      0x20\n        /* \"#utility.yul\":16361:16364   */\n      dup3\n        /* \"#utility.yul\":16357:16371   */\n      add\n        /* \"#utility.yul\":16342:16371   */\n      swap1\n      pop\n        /* \"#utility.yul\":16304:16377   */\n      swap3\n      swap2\n      pop\n      pop\n      jump\t// out\n        /* \"#utility.yul\":16383:16688   */\n    tag_104:\n      0x00\n        /* \"#utility.yul\":16442:16462   */\n      tag_357\n        /* \"#utility.yul\":16460:16461   */\n      dup3\n        /* \"#utility.yul\":16442:16462   */\n      tag_301\n      jump\t// in\n    tag_357:\n        /* \"#utility.yul\":16437:16462   */\n      swap2\n      pop\n        /* \"#utility.yul\":16476:16496   */\n      tag_358\n        /* \"#utility.yul\":16494:16495   */\n      dup4\n        /* \"#utility.yul\":16476:16496   */\n      tag_301\n      jump\t// in\n    tag_358:\n        /* \"#utility.yul\":16471:16496   */\n      swap3\n      pop\n        /* \"#utility.yul\":16630:16631   */\n      dup3\n        /* \"#utility.yul\":16562:16628   */\n      0xffffffffffffffffffffffffffffffffffffffffffffffffffffffffffffffff\n        /* \"#utility.yul\":16558:16632   */\n      sub\n        /* \"#utility.yul\":16555:16556   */\n      dup3\n        /* \"#utility.yul\":16552:16633   */\n      gt\n        /* \"#utility.yul\":16549:16551   */\n      iszero\n      tag_359\n      jumpi\n        /* \"#utility.yul\":16636:16654   */\n      tag_360\n      tag_361\n      jump\t// in\n    tag_360:\n        /* \"#utility.yul\":16549:16551   */\n    tag_359:\n        /* \"#utility.yul\":16680:16681   */\n      dup3\n        /* \"#utility.yul\":16677:16678   */\n      dup3\n        /* \"#utility.yul\":16673:16682   */\n      add\n        /* \"#utility.yul\":16666:16682   */\n      swap1\n      pop\n        /* \"#utility.yul\":16427:16688   */\n      swap3\n      swap2\n      pop\n      pop\n      jump\t// out\n        /* \"#utility.yul\":16694:16790   */\n    tag_237:\n      0x00\n        /* \"#utility.yul\":16760:16784   */\n      tag_363\n        /* \"#utility.yul\":16778:16783   */\n      dup3\n        /* \"#utility.yul\":16760:16784   */\n      tag_364\n      jump\t// in\n    tag_363:\n        /* \"#utility.yul\":16749:16784   */\n      swap1\n      pop\n        /* \"#utility.yul\":16739:16790   */\n      swap2\n      swap1\n      pop\n      jump\t// out\n        /* \"#utility.yul\":16796:16900   */\n    tag_233:\n      0x00\n        /* \"#utility.yul\":16870:16894   */\n      tag_366\n        /* \"#utility.yul\":16888:16893   */\n      dup3\n        /* \"#utility.yul\":16870:16894   */\n      tag_364\n      jump\t// in\n    tag_366:\n        /* \"#utility.yul\":16859:16894   */\n      swap1\n      pop\n        /* \"#utility.yul\":16849:16900   */\n      swap2\n      swap1\n      pop\n      jump\t// out\n        /* \"#utility.yul\":16906:16996   */\n    tag_241:\n      0x00\n        /* \"#utility.yul\":16983:16988   */\n      dup2\n        /* \"#utility.yul\":16976:16989   */\n      iszero\n        /* \"#utility.yul\":16969:16990   */\n      iszero\n        /* \"#utility.yul\":16958:16990   */\n      swap1\n      pop\n        /* \"#utility.yul\":16948:16996   */\n      swap2\n      swap1\n      pop\n      jump\t// out\n        /* \"#utility.yul\":17002:17128   */\n    tag_364:\n      0x00\n        /* \"#utility.yul\":17079:17121   */\n      0xffffffffffffffffffffffffffffffffffffffff\n        /* \"#utility.yul\":17072:17077   */\n      dup3\n        /* \"#utility.yul\":17068:17122   */\n      and\n        /* \"#utility.yul\":17057:17122   */\n      swap1\n      pop\n        /* \"#utility.yul\":17047:17128   */\n      swap2\n      swap1\n      pop\n      jump\t// out\n        /* \"#utility.yul\":17134:17211   */\n    tag_301:\n      0x00\n        /* \"#utility.yul\":17200:17205   */\n      dup2\n        /* \"#utility.yul\":17189:17205   */\n      swap1\n      pop\n        /* \"#utility.yul\":17179:17211   */\n      swap2\n      swap1\n      pop\n      jump\t// out\n        /* \"#utility.yul\":17217:17371   */\n    tag_247:\n        /* \"#utility.yul\":17301:17307   */\n      dup3\n        /* \"#utility.yul\":17296:17299   */\n      dup2\n        /* \"#utility.yul\":17291:17294   */\n      dup4\n        /* \"#utility.yul\":17278:17308   */\n      calldatacopy\n        /* \"#utility.yul\":17363:17364   */\n      0x00\n        /* \"#utility.yul\":17354:17360   */\n      dup4\n        /* \"#utility.yul\":17349:17352   */\n      dup4\n        /* \"#utility.yul\":17345:17361   */\n      add\n        /* \"#utility.yul\":17338:17365   */\n      mstore\n        /* \"#utility.yul\":17268:17371   */\n      pop\n      pop\n      pop\n      jump\t// out\n        /* \"#utility.yul\":17377:17684   */\n    tag_256:\n        /* \"#utility.yul\":17445:17446   */\n      0x00\n        /* \"#utility.yul\":17455:17568   */\n    tag_372:\n        /* \"#utility.yul\":17469:17475   */\n      dup4\n        /* \"#utility.yul\":17466:17467   */\n      dup2\n        /* \"#utility.yul\":17463:17476   */\n      lt\n        /* \"#utility.yul\":17455:17568   */\n      iszero\n      tag_374\n      jumpi\n        /* \"#utility.yul\":17554:17555   */\n      dup1\n        /* \"#utility.yul\":17549:17552   */\n      dup3\n        /* \"#utility.yul\":17545:17556   */\n      add\n        /* \"#utility.yul\":17539:17557   */\n      mload\n        /* \"#utility.yul\":17535:17536   */\n      dup2\n        /* \"#utility.yul\":17530:17533   */\n      dup5\n        /* \"#utility.yul\":17526:17537   */\n      add\n        /* \"#utility.yul\":17519:17558   */\n      mstore\n        /* \"#utility.yul\":17491:17493   */\n      0x20\n        /* \"#utility.yul\":17488:17489   */\n      dup2\n        /* \"#utility.yul\":17484:17494   */\n      add\n        /* \"#utility.yul\":17479:17494   */\n      swap1\n      pop\n        /* \"#utility.yul\":17455:17568   */\n      jump(tag_372)\n    tag_374:\n        /* \"#utility.yul\":17586:17592   */\n      dup4\n        /* \"#utility.yul\":17583:17584   */\n      dup2\n        /* \"#utility.yul\":17580:17593   */\n      gt\n        /* \"#utility.yul\":17577:17579   */\n      iszero\n      tag_375\n      jumpi\n        /* \"#utility.yul\":17666:17667   */\n      0x00\n        /* \"#utility.yul\":17657:17663   */\n      dup5\n        /* \"#utility.yul\":17652:17655   */\n      dup5\n        /* \"#utility.yul\":17648:17664   */\n      add\n        /* \"#utility.yul\":17641:17668   */\n      mstore\n        /* \"#utility.yul\":17577:17579   */\n    tag_375:\n        /* \"#utility.yul\":17426:17684   */\n      pop\n      pop\n      pop\n      pop\n      jump\t// out\n        /* \"#utility.yul\":17690:18010   */\n    tag_130:\n      0x00\n        /* \"#utility.yul\":17771:17772   */\n      0x02\n        /* \"#utility.yul\":17765:17769   */\n      dup3\n        /* \"#utility.yul\":17761:17773   */\n      div\n        /* \"#utility.yul\":17751:17773   */\n      swap1\n      pop\n        /* \"#utility.yul\":17818:17819   */\n      0x01\n        /* \"#utility.yul\":17812:17816   */\n      dup3\n        /* \"#utility.yul\":17808:17820   */\n      and\n        /* \"#utility.yul\":17839:17857   */\n      dup1\n        /* \"#utility.yul\":17829:17831   */\n      tag_377\n      jumpi\n        /* \"#utility.yul\":17895:17899   */\n      0x7f\n        /* \"#utility.yul\":17887:17893   */\n      dup3\n        /* \"#utility.yul\":17883:17900   */\n      and\n        /* \"#utility.yul\":17873:17900   */\n      swap2\n      pop\n        /* \"#utility.yul\":17829:17831   */\n    tag_377:\n        /* \"#utility.yul\":17957:17959   */\n      0x20\n        /* \"#utility.yul\":17949:17955   */\n      dup3\n        /* \"#utility.yul\":17946:17960   */\n      lt\n        /* \"#utility.yul\":17926:17944   */\n      dup2\n        /* \"#utility.yul\":17923:17961   */\n      eq\n        /* \"#utility.yul\":17920:17922   */\n      iszero\n      tag_378\n      jumpi\n        /* \"#utility.yul\":17976:17994   */\n      tag_379\n      tag_380\n      jump\t// in\n    tag_379:\n        /* \"#utility.yul\":17920:17922   */\n    tag_378:\n        /* \"#utility.yul\":17741:18010   */\n      pop\n      swap2\n      swap1\n      pop\n      jump\t// out\n        /* \"#utility.yul\":18016:18249   */\n    tag_128:\n      0x00\n        /* \"#utility.yul\":18078:18102   */\n      tag_382\n        /* \"#utility.yul\":18096:18101   */\n      dup3\n        /* \"#utility.yul\":18078:18102   */\n      tag_301\n      jump\t// in\n    tag_382:\n        /* \"#utility.yul\":18069:18102   */\n      swap2\n      pop\n        /* \"#utility.yul\":18124:18190   */\n      0xffffffffffffffffffffffffffffffffffffffffffffffffffffffffffffffff\n        /* \"#utility.yul\":18117:18122   */\n      dup3\n        /* \"#utility.yul\":18114:18191   */\n      eq\n        /* \"#utility.yul\":18111:18113   */\n      iszero\n      tag_383\n      jumpi\n        /* \"#utility.yul\":18194:18212   */\n      tag_384\n      tag_361\n      jump\t// in\n    tag_384:\n        /* \"#utility.yul\":18111:18113   */\n    tag_383:\n        /* \"#utility.yul\":18241:18242   */\n      0x01\n        /* \"#utility.yul\":18234:18239   */\n      dup3\n        /* \"#utility.yul\":18230:18243   */\n      add\n        /* \"#utility.yul\":18223:18243   */\n      swap1\n      pop\n        /* \"#utility.yul\":18059:18249   */\n      swap2\n      swap1\n      pop\n      jump\t// out\n        /* \"#utility.yul\":18255:18435   */\n    tag_361:\n        /* \"#utility.yul\":18303:18380   */\n      0x4e487b7100000000000000000000000000000000000000000000000000000000\n        /* \"#utility.yul\":18300:18301   */\n      0x00\n        /* \"#utility.yul\":18293:18381   */\n      mstore\n        /* \"#utility.yul\":18400:18404   */\n      0x11\n        /* \"#utility.yul\":18397:18398   */\n      0x04\n        /* \"#utility.yul\":18390:18405   */\n      mstore\n        /* \"#utility.yul\":18424:18428   */\n      0x24\n        /* \"#utility.yul\":18421:18422   */\n      0x00\n        /* \"#utility.yul\":18414:18429   */\n      revert\n        /* \"#utility.yul\":18441:18621   */\n    tag_380:\n        /* \"#utility.yul\":18489:18566   */\n      0x4e487b7100000000000000000000000000000000000000000000000000000000\n        /* \"#utility.yul\":18486:18487   */\n      0x00\n        /* \"#utility.yul\":18479:18567   */\n      mstore\n        /* \"#utility.yul\":18586:18590   */\n      0x22\n        /* \"#utility.yul\":18583:18584   */\n      0x04\n        /* \"#utility.yul\":18576:18591   */\n      mstore\n        /* \"#utility.yul\":18610:18614   */\n      0x24\n        /* \"#utility.yul\":18607:18608   */\n      0x00\n        /* \"#utility.yul\":18600:18615   */\n      revert\n        /* \"#utility.yul\":18627:18729   */\n    tag_249:\n      0x00\n        /* \"#utility.yul\":18719:18721   */\n      0x1f\n        /* \"#utility.yul\":18715:18722   */\n      not\n        /* \"#utility.yul\":18710:18712   */\n      0x1f\n        /* \"#utility.yul\":18703:18708   */\n      dup4\n        /* \"#utility.yul\":18699:18713   */\n      add\n        /* \"#utility.yul\":18695:18723   */\n      and\n        /* \"#utility.yul\":18685:18723   */\n      swap1\n      pop\n        /* \"#utility.yul\":18675:18729   */\n      swap2\n      swap1\n      pop\n      jump\t// out\n        /* \"#utility.yul\":18735:18857   */\n    tag_206:\n        /* \"#utility.yul\":18808:18832   */\n      tag_389\n        /* \"#utility.yul\":18826:18831   */\n      dup2\n        /* \"#utility.yul\":18808:18832   */\n      tag_237\n      jump\t// in\n    tag_389:\n        /* \"#utility.yul\":18801:18806   */\n      dup2\n        /* \"#utility.yul\":18798:18833   */\n      eq\n        /* \"#utility.yul\":18788:18790   */\n      tag_390\n      jumpi\n        /* \"#utility.yul\":18847:18848   */\n      0x00\n        /* \"#utility.yul\":18844:18845   */\n      dup1\n        /* \"#utility.yul\":18837:18849   */\n      revert\n        /* \"#utility.yul\":18788:18790   */\n    tag_390:\n        /* \"#utility.yul\":18778:18857   */\n      pop\n      jump\t// out\n        /* \"#utility.yul\":18863:18985   */\n    tag_215:\n        /* \"#utility.yul\":18936:18960   */\n      tag_392\n        /* \"#utility.yul\":18954:18959   */\n      dup2\n        /* \"#utility.yul\":18936:18960   */\n      tag_301\n      jump\t// in\n    tag_392:\n        /* \"#utility.yul\":18929:18934   */\n      dup2\n        /* \"#utility.yul\":18926:18961   */\n      eq\n        /* \"#utility.yul\":18916:18918   */\n      tag_393\n      jumpi\n        /* \"#utility.yul\":18975:18976   */\n      0x00\n        /* \"#utility.yul\":18972:18973   */\n      dup1\n        /* \"#utility.yul\":18965:18977   */\n      revert\n        /* \"#utility.yul\":18916:18918   */\n    tag_393:\n        /* \"#utility.yul\":18906:18985   */\n      pop\n      jump\t// out\n\n    auxdata: 0xa26469706673582212205f9f1312f0eca500c06decebc43cf59c99c41c3c211659ef4e57de0b6b043c6a64736f6c63430008000033\n}\n",
				"bytecode": {
					"linkReferences": {},
					"object": "608060405234801561001057600080fd5b5061234d806100206000396000f3fe6080604052600436106100e75760003560e01c80635894d2a31161008a578063c93527d811610059578063c93527d81461031a578063e808386314610345578063ef07a81f1461036e578063f8626af8146103ae576100e7565b80635894d2a31461023857806399b9b46314610276578063a5b7b1351461029f578063c6121902146102dd576100e7565b80632ad71573116100c65780632ad7157314610172578063454a2ab31461019d57806353ba78d9146101b9578063571a26a0146101f6576100e7565b8062362a95146100ec5780630121683f146101085780632478239a14610131575b600080fd5b61010660048036038101906101019190611934565b6103ee565b005b34801561011457600080fd5b5061012f600480360381019061012a91906119cb565b610800565b005b34801561013d57600080fd5b5061015860048036038101906101539190611934565b610ac9565b604051610169959493929190611dfe565b60405180910390f35b34801561017e57600080fd5b50610187610bb4565b60405161019491906120a2565b60405180910390f35b6101b760048036038101906101b291906119a2565b610bba565b005b3480156101c557600080fd5b506101e060048036038101906101db9190611934565b610e3b565b6040516101ed91906120a2565b60405180910390f35b34801561020257600080fd5b5061021d600480360381019061021891906119a2565b610e53565b60405161022f96959493929190611e9d565b60405180910390f35b34801561024457600080fd5b5061025f600480360381019061025a9190611934565b610edc565b60405161026d9291906120bd565b60405180910390f35b34801561028257600080fd5b5061029d6004803603810190610298919061195d565b610f68565b005b3480156102ab57600080fd5b506102c660048036038101906102c19190611934565b6111c1565b6040516102d49291906120bd565b60405180910390f35b3480156102e957600080fd5b5061030460048036038101906102ff9190611934565b61126b565b60405161031191906120a2565b60405180910390f35b34801561032657600080fd5b5061032f611283565b60405161033c91906120a2565b60405180910390f35b34801561035157600080fd5b5061036c600480360381019061036791906119a2565b611290565b005b34801561037a57600080fd5b50610395600480360381019061039091906119a2565b6116a0565b6040516103a59493929190611e58565b60405180910390f35b3480156103ba57600080fd5b506103d560048036038101906103d091906119a2565b61179d565b6040516103e59493929190611e58565b60405180910390f35b60008060008373ffffffffffffffffffffffffffffffffffffffff1673ffffffffffffffffffffffffffffffffffffffff16815260200190815260200160002090508060020160009054906101000a900460ff16610481576040517f08c379a000000000000000000000000000000000000000000000000000000000815260040161047890611f82565b60405180910390fd5b600034116104c4576040517f08c379a00000000000000000000000000000000000000000000000000000000081526004016104bb90611f22565b60405180910390fd5b600160405180608001604052803373ffffffffffffffffffffffffffffffffffffffff1681526020018473ffffffffffffffffffffffffffffffffffffffff16815260200134815260200142815250908060018154018082558091505060019003906000526020600020906004020160009091909190915060008201518160000160006101000a81548173ffffffffffffffffffffffffffffffffffffffff021916908373ffffffffffffffffffffffffffffffffffffffff16021790555060208201518160010160006101000a81548173ffffffffffffffffffffffffffffffffffffffff021916908373ffffffffffffffffffffffffffffffffffffffff16021790555060408201518160020155606082015181600301555050348160030160008282546105f4919061210d565b925050819055506001816004016000828254610610919061210d565b9250508190555034600260003373ffffffffffffffffffffffffffffffffffffffff1673ffffffffffffffffffffffffffffffffffffffff1681526020019081526020016000206000828254610666919061210d565b925050819055506001600360003373ffffffffffffffffffffffffffffffffffffffff1673ffffffffffffffffffffffffffffffffffffffff16815260200190815260200160002060008282546106bd919061210d565b9250508190555060008160000160009054906101000a900473ffffffffffffffffffffffffffffffffffffffff1673ffffffffffffffffffffffffffffffffffffffff163460405161070e90611de9565b60006040518083038185875af1925050503d806000811461074b576040519150601f19603f3d011682016040523d82523d6000602084013e610750565b606091505b5050905080610794576040517f08c379a000000000000000000000000000000000000000000000000000000000815260040161078b90611f62565b60405180910390fd5b8273ffffffffffffffffffffffffffffffffffffffff163373ffffffffffffffffffffffffffffffffffffffff167fce9409ee3dc10e35de83dda0f830e4a13935452188fe71a956b850ecb839425f34426040516107f39291906120bd565b60405180910390a3505050565b60008060003373ffffffffffffffffffffffffffffffffffffffff1673ffffffffffffffffffffffffffffffffffffffff16815260200190815260200160002090508060020160009054906101000a900460ff16610893576040517f08c379a000000000000000000000000000000000000000000000000000000000815260040161088a90611f82565b60405180910390fd5b8183106108d5576040517f08c379a00000000000000000000000000000000000000000000000000000000081526004016108cc90612002565b60405180910390fd5b428211610917576040517f08c379a000000000000000000000000000000000000000000000000000000000815260040161090e90612042565b60405180910390fd5b6040518060c001604052803373ffffffffffffffffffffffffffffffffffffffff168152602001848152602001838152602001600073ffffffffffffffffffffffffffffffffffffffff168152602001600081526020016000151581525060046000600554815260200190815260200160002060008201518160000160006101000a81548173ffffffffffffffffffffffffffffffffffffffff021916908373ffffffffffffffffffffffffffffffffffffffff160217905550602082015181600101556040820151816002015560608201518160030160006101000a81548173ffffffffffffffffffffffffffffffffffffffff021916908373ffffffffffffffffffffffffffffffffffffffff1602179055506080820151816004015560a08201518160050160006101000a81548160ff0219169083151502179055509050503373ffffffffffffffffffffffffffffffffffffffff166005547fc9050d42180a61cb0d9ebb8ad118b62fe6eab12cf12ff752c4a0cc7da9ddf6278585604051610aa49291906120bd565b60405180910390a360056000815480929190610abf90612231565b9190505550505050565b60006020528060005260406000206000915090508060000160009054906101000a900473ffffffffffffffffffffffffffffffffffffffff1690806001018054610b12906121ff565b80601f0160208091040260200160405190810160405280929190818152602001828054610b3e906121ff565b8015610b8b5780601f10610b6057610100808354040283529160200191610b8b565b820191906000526020600020905b815481529060010190602001808311610b6e57829003601f168201915b5050505050908060020160009054906101000a900460ff16908060030154908060040154905085565b60055481565b600060046000838152602001908152602001600020905080600101544210158015610be9575080600201544211155b610c28576040517f08c379a0000000000000000000000000000000000000000000000000000000008152600401610c1f90611fa2565b60405180910390fd5b80600401543411610c6e576040517f08c379a0000000000000000000000000000000000000000000000000000000008152600401610c6590611f42565b60405180910390fd5b600073ffffffffffffffffffffffffffffffffffffffff168160030160009054906101000a900473ffffffffffffffffffffffffffffffffffffffff1673ffffffffffffffffffffffffffffffffffffffff1614610d9c5760008160030160009054906101000a900473ffffffffffffffffffffffffffffffffffffffff1673ffffffffffffffffffffffffffffffffffffffff168260040154604051610d1490611de9565b60006040518083038185875af1925050503d8060008114610d51576040519150601f19603f3d011682016040523d82523d6000602084013e610d56565b606091505b5050905080610d9a576040517f08c379a0000000000000000000000000000000000000000000000000000000008152600401610d9190612022565b60405180910390fd5b505b348160040181905550338160030160006101000a81548173ffffffffffffffffffffffffffffffffffffffff021916908373ffffffffffffffffffffffffffffffffffffffff1602179055503373ffffffffffffffffffffffffffffffffffffffff16827f0e54eff26401bf69b81b26f60bd85ef47f5d85275c1d268d84f68d6897431c4734604051610e2f91906120a2565b60405180910390a35050565b60026020528060005260406000206000915090505481565b60046020528060005260406000206000915090508060000160009054906101000a900473ffffffffffffffffffffffffffffffffffffffff16908060010154908060020154908060030160009054906101000a900473ffffffffffffffffffffffffffffffffffffffff16908060040154908060050160009054906101000a900460ff16905086565b600080600260008473ffffffffffffffffffffffffffffffffffffffff1673ffffffffffffffffffffffffffffffffffffffff16815260200190815260200160002054600360008573ffffffffffffffffffffffffffffffffffffffff1673ffffffffffffffffffffffffffffffffffffffff1681526020019081526020016000205491509150915091565b6000803373ffffffffffffffffffffffffffffffffffffffff1673ffffffffffffffffffffffffffffffffffffffff16815260200190815260200160002060020160009054906101000a900460ff1615610ff7576040517f08c379a0000000000000000000000000000000000000000000000000000000008152600401610fee90611fe2565b60405180910390fd5b6040518060a001604052803373ffffffffffffffffffffffffffffffffffffffff16815260200183838080601f016020809104026020016040519081016040528093929190818152602001838380828437600081840152601f19601f8201169050808301925050505050505081526020016001151581526020016000815260200160008152506000803373ffffffffffffffffffffffffffffffffffffffff1673ffffffffffffffffffffffffffffffffffffffff16815260200190815260200160002060008201518160000160006101000a81548173ffffffffffffffffffffffffffffffffffffffff021916908373ffffffffffffffffffffffffffffffffffffffff160217905550602082015181600101908051906020019061111e92919061181d565b5060408201518160020160006101000a81548160ff02191690831515021790555060608201518160030155608082015181600401559050503373ffffffffffffffffffffffffffffffffffffffff163373ffffffffffffffffffffffffffffffffffffffff167f3023a2350309e23b2e61b93cf130ad4b879e3fd7ef00de1a39331f0cfd6bf4bc84846040516111b5929190611efe565b60405180910390a35050565b60008060008060008573ffffffffffffffffffffffffffffffffffffffff1673ffffffffffffffffffffffffffffffffffffffff16815260200190815260200160002090508060020160009054906101000a900460ff16611257576040517f08c379a000000000000000000000000000000000000000000000000000000000815260040161124e90611f82565b60405180910390fd5b806003015481600401549250925050915091565b60036020528060005260406000206000915090505481565b6000600180549050905090565b6000600460008381526020019081526020016000209050806002015442116112ed576040517f08c379a00000000000000000000000000000000000000000000000000000000081526004016112e490611fc2565b60405180910390fd5b8060050160009054906101000a900460ff161561133f576040517f08c379a000000000000000000000000000000000000000000000000000000000815260040161133690612062565b60405180910390fd5b60018160050160006101000a81548160ff021916908315150217905550600073ffffffffffffffffffffffffffffffffffffffff168160030160009054906101000a900473ffffffffffffffffffffffffffffffffffffffff1673ffffffffffffffffffffffffffffffffffffffff16146116255760008060008360000160009054906101000a900473ffffffffffffffffffffffffffffffffffffffff1673ffffffffffffffffffffffffffffffffffffffff1673ffffffffffffffffffffffffffffffffffffffff16815260200190815260200160002090508160040154816003016000828254611432919061210d565b92505081905550600181600401600082825461144e919061210d565b925050819055508160040154600260008460030160009054906101000a900473ffffffffffffffffffffffffffffffffffffffff1673ffffffffffffffffffffffffffffffffffffffff1673ffffffffffffffffffffffffffffffffffffffff16815260200190815260200160002060008282546114cc919061210d565b925050819055506001600360008460030160009054906101000a900473ffffffffffffffffffffffffffffffffffffffff1673ffffffffffffffffffffffffffffffffffffffff1673ffffffffffffffffffffffffffffffffffffffff1681526020019081526020016000206000828254611547919061210d565b9250508190555060008160000160009054906101000a900473ffffffffffffffffffffffffffffffffffffffff1673ffffffffffffffffffffffffffffffffffffffff16836004015460405161159c90611de9565b60006040518083038185875af1925050503d80600081146115d9576040519150601f19603f3d011682016040523d82523d6000602084013e6115de565b606091505b5050905080611622576040517f08c379a000000000000000000000000000000000000000000000000000000000815260040161161990611f62565b60405180910390fd5b50505b8060030160009054906101000a900473ffffffffffffffffffffffffffffffffffffffff1673ffffffffffffffffffffffffffffffffffffffff16827f4d9113a1377d665eaa1f9168a9c9080f2e488cb820b10149de3d6d2e0f2780c7836004015460405161169491906120a2565b60405180910390a35050565b60008060008060018054905085106116ed576040517f08c379a00000000000000000000000000000000000000000000000000000000081526004016116e490612082565b60405180910390fd5b600060018681548110611729577f4e487b7100000000000000000000000000000000000000000000000000000000600052603260045260246000fd5b906000526020600020906004020190508060000160009054906101000a900473ffffffffffffffffffffffffffffffffffffffff168160010160009054906101000a900473ffffffffffffffffffffffffffffffffffffffff16826002015483600301549450945094509450509193509193565b600181815481106117ad57600080fd5b90600052602060002090600402016000915090508060000160009054906101000a900473ffffffffffffffffffffffffffffffffffffffff16908060010160009054906101000a900473ffffffffffffffffffffffffffffffffffffffff16908060020154908060030154905084565b828054611829906121ff565b90600052602060002090601f01602090048101928261184b5760008555611892565b82601f1061186457805160ff1916838001178555611892565b82800160010185558215611892579182015b82811115611891578251825591602001919060010190611876565b5b50905061189f91906118a3565b5090565b5b808211156118bc5760008160009055506001016118a4565b5090565b6000813590506118cf816122e9565b92915050565b60008083601f8401126118e757600080fd5b8235905067ffffffffffffffff81111561190057600080fd5b60208301915083600182028301111561191857600080fd5b9250929050565b60008135905061192e81612300565b92915050565b60006020828403121561194657600080fd5b6000611954848285016118c0565b91505092915050565b6000806020838503121561197057600080fd5b600083013567ffffffffffffffff81111561198a57600080fd5b611996858286016118d5565b92509250509250929050565b6000602082840312156119b457600080fd5b60006119c28482850161191f565b91505092915050565b600080604083850312156119de57600080fd5b60006119ec8582860161191f565b92505060206119fd8582860161191f565b9150509250929050565b611a1081612175565b82525050565b611a1f81612163565b82525050565b611a2e81612187565b82525050565b6000611a4083856120fc565b9350611a4d8385846121bd565b611a56836122d8565b840190509392505050565b6000611a6c826120e6565b611a7681856120fc565b9350611a868185602086016121cc565b611a8f816122d8565b840191505092915050565b6000611aa76022836120fc565b91507f446f6e6174696f6e206d7573742062652067726561746572207468616e207a6560008301527f726f0000000000000000000000000000000000000000000000000000000000006020830152604082019050919050565b6000611b0d600b836120fc565b91507f42696420746f6f206c6f770000000000000000000000000000000000000000006000830152602082019050919050565b6000611b4d600f836120fc565b91507f5472616e73666572206661696c656400000000000000000000000000000000006000830152602082019050919050565b6000611b8d6016836120fc565b91507f43686172697479206e6f742072656769737465726564000000000000000000006000830152602082019050919050565b6000611bcd6012836120fc565b91507f41756374696f6e206e6f742061637469766500000000000000000000000000006000830152602082019050919050565b6000611c0d6011836120fc565b91507f41756374696f6e206e6f7420656e6465640000000000000000000000000000006000830152602082019050919050565b6000611c4d601a836120fc565b91507f4368617269747920616c726561647920726567697374657265640000000000006000830152602082019050919050565b6000611c8d6013836120fc565b91507f496e76616c69642074696d652077696e646f77000000000000000000000000006000830152602082019050919050565b6000611ccd600d836120fc565b91507f526566756e64206661696c6564000000000000000000000000000000000000006000830152602082019050919050565b6000611d0d6015836120fc565b91507f456e64206d75737420626520696e2066757475726500000000000000000000006000830152602082019050919050565b6000611d4d6000836120f1565b9150600082019050919050565b6000611d676011836120fc565b91507f416c72656164792066696e616c697a65640000000000000000000000000000006000830152602082019050919050565b6000611da76013836120fc565b91507f496e646578206f7574206f6620626f756e6473000000000000000000000000006000830152602082019050919050565b611de3816121b3565b82525050565b6000611df482611d40565b9150819050919050565b600060a082019050611e136000830188611a07565b8181036020830152611e258187611a61565b9050611e346040830186611a25565b611e416060830185611dda565b611e4e6080830184611dda565b9695505050505050565b6000608082019050611e6d6000830187611a16565b611e7a6020830186611a16565b611e876040830185611dda565b611e946060830184611dda565b95945050505050565b600060c082019050611eb26000830189611a16565b611ebf6020830188611dda565b611ecc6040830187611dda565b611ed96060830186611a16565b611ee66080830185611dda565b611ef360a0830184611a25565b979650505050505050565b60006020820190508181036000830152611f19818486611a34565b90509392505050565b60006020820190508181036000830152611f3b81611a9a565b9050919050565b60006020820190508181036000830152611f5b81611b00565b9050919050565b60006020820190508181036000830152611f7b81611b40565b9050919050565b60006020820190508181036000830152611f9b81611b80565b9050919050565b60006020820190508181036000830152611fbb81611bc0565b9050919050565b60006020820190508181036000830152611fdb81611c00565b9050919050565b60006020820190508181036000830152611ffb81611c40565b9050919050565b6000602082019050818103600083015261201b81611c80565b9050919050565b6000602082019050818103600083015261203b81611cc0565b9050919050565b6000602082019050818103600083015261205b81611d00565b9050919050565b6000602082019050818103600083015261207b81611d5a565b9050919050565b6000602082019050818103600083015261209b81611d9a565b9050919050565b60006020820190506120b76000830184611dda565b92915050565b60006040820190506120d26000830185611dda565b6120df6020830184611dda565b9392505050565b600081519050919050565b600081905092915050565b600082825260208201905092915050565b6000612118826121b3565b9150612123836121b3565b9250827fffffffffffffffffffffffffffffffffffffffffffffffffffffffffffffffff038211156121585761215761227a565b5b828201905092915050565b600061216e82612193565b9050919050565b600061218082612193565b9050919050565b60008115159050919050565b600073ffffffffffffffffffffffffffffffffffffffff82169050919050565b6000819050919050565b82818337600083830152505050565b60005b838110156121ea5780820151818401526020810190506121cf565b838111156121f9576000848401525b50505050565b6000600282049050600182168061221757607f821691505b6020821081141561222b5761222a6122a9565b5b50919050565b600061223c826121b3565b91507fffffffffffffffffffffffffffffffffffffffffffffffffffffffffffffffff82141561226f5761226e61227a565b5b600182019050919050565b7f4e487b7100000000000000000000000000000000000000000000000000000000600052601160045260246000fd5b7f4e487b7100000000000000000000000000000000000000000000000000000000600052602260045260246000fd5b6000601f19601f8301169050919050565b6122f281612163565b81146122fd57600080fd5b50565b612309816121b3565b811461231457600080fd5b5056fea26469706673582212205f9f1312f0eca500c06decebc43cf59c99c41c3c211659ef4e57de0b6b043c6a64736f6c63430008000033",
					"opcodes": "PUSH1 0x80 PUSH1 0x40 MSTORE CALLVALUE DUP1 ISZERO PUSH2 0x10 JUMPI PUSH1 0x0 DUP1 REVERT JUMPDEST POP PUSH2 0x234D DUP1 PUSH2 0x20 PUSH1 0x0 CODECOPY PUSH1 0x0 RETURN INVALID PUSH1 0x80 PUSH1 0x40 MSTORE PUSH1 0x4 CALLDATASIZE LT PUSH2 0xE7 JUMPI PUSH1 0x0 CALLDATALOAD PUSH1 0xE0 SHR DUP1 PUSH4 0x5894D2A3 GT PUSH2 0x8A JUMPI DUP1 PUSH4 0xC93527D8 GT PUSH2 0x59 JUMPI DUP1 PUSH4 0xC93527D8 EQ PUSH2 0x31A JUMPI DUP1 PUSH4 0xE8083863 EQ PUSH2 0x345 JUMPI DUP1 PUSH4 0xEF07A81F EQ PUSH2 0x36E JUMPI DUP1 PUSH4 0xF8626AF8 EQ PUSH2 0x3AE JUMPI PUSH2 0xE7 JUMP JUMPDEST DUP1 PUSH4 0x5894D2A3 EQ PUSH2 0x238 JUMPI DUP1 PUSH4 0x99B9B463 EQ PUSH2 0x276 JUMPI DUP1 PUSH4 0xA5B7B135 EQ PUSH2 0x29F JUMPI DUP1 PUSH4 0xC6121902 EQ PUSH2 0x2DD JUMPI PUSH2 0xE7 JUMP JUMPDEST DUP1 PUSH4 0x2AD71573 GT PUSH2 0xC6 JUMPI DUP1 PUSH4 0x2AD71573 EQ PUSH2 0x172 JUMPI DUP1 PUSH4 0x454A2AB3 EQ PUSH2 0x19D JUMPI DUP1 PUSH4 0x53BA78D9 EQ PUSH2 0x1B9 JUMPI DUP1 PUSH4 0x571A26A0 EQ PUSH2 0x1F6 JUMPI PUSH2 0xE7 JUMP JUMPDEST DUP1 PUSH3 0x362A95 EQ PUSH2 0xEC JUMPI DUP1 PUSH4 0x121683F EQ PUSH2 0x108 JUMPI DUP1 PUSH4 0x2478239A EQ PUSH2 0x131 JUMPI JUMPDEST PUSH1 0x0 DUP1 REVERT JUMPDEST PUSH2 0x106 PUSH1 0x4 DUP1 CALLDATASIZE SUB DUP2 ADD SWAP1 PUSH2 0x101 SWAP2 SWAP1 PUSH2 0x1934 JUMP JUMPDEST PUSH2 0x3EE JUMP JUMPDEST STOP JUMPDEST CALLVALUE DUP1 ISZERO PUSH2 0x114 JUMPI PUSH1 0x0 DUP1 REVERT JUMPDEST POP PUSH2 0x12F PUSH1 0x4 DUP1 CALLDATASIZE SUB DUP2 ADD SWAP1 PUSH2 0x12A SWAP2 SWAP1 PUSH2 0x19CB JUMP JUMPDEST PUSH2 0x800 JUMP JUMPDEST STOP JUMPDEST CALLVALUE DUP1 ISZERO PUSH2 0x13D JUMPI PUSH1 0x0 DUP1 REVERT JUMPDEST POP PUSH2 0x158 PUSH1 0x4 DUP1 CALLDATASIZE SUB DUP2 ADD SWAP1 PUSH2 0x153 SWAP2 SWAP1 PUSH2 0x1934 JUMP JUMPDEST PUSH2 0xAC9 JUMP JUMPDEST PUSH1 0x40 MLOAD PUSH2 0x169 SWAP6 SWAP5 SWAP4 SWAP3 SWAP2 SWAP1 PUSH2 0x1DFE JUMP JUMPDEST PUSH1 0x40 MLOAD DUP1 SWAP2 SUB SWAP1 RETURN JUMPDEST CALLVALUE DUP1 ISZERO PUSH2 0x17E JUMPI PUSH1 0x0 DUP1 REVERT JUMPDEST POP PUSH2 0x187 PUSH2 0xBB4 JUMP JUMPDEST PUSH1 0x40 MLOAD PUSH2 0x194 SWAP2 SWAP1 PUSH2 0x20A2 JUMP JUMPDEST PUSH1 0x40 MLOAD DUP1 SWAP2 SUB SWAP1 RETURN JUMPDEST PUSH2 0x1B7 PUSH1 0x4 DUP1 CALLDATASIZE SUB DUP2 ADD SWAP1 PUSH2 0x1B2 SWAP2 SWAP1 PUSH2 0x19A2 JUMP JUMPDEST PUSH2 0xBBA JUMP JUMPDEST STOP JUMPDEST CALLVALUE DUP1 ISZERO PUSH2 0x1C5 JUMPI PUSH1 0x0 DUP1 REVERT JUMPDEST POP PUSH2 0x1E0 PUSH1 0x4 DUP1 CALLDATASIZE SUB DUP2 ADD SWAP1 PUSH2 0x1DB SWAP2 SWAP1 PUSH2 0x1934 JUMP JUMPDEST PUSH2 0xE3B JUMP JUMPDEST PUSH1 0x40 MLOAD PUSH2 0x1ED SWAP2 SWAP1 PUSH2 0x20A2 JUMP JUMPDEST PUSH1 0x40 MLOAD DUP1 SWAP2 SUB SWAP1 RETURN JUMPDEST CALLVALUE DUP1 ISZERO PUSH2 0x202 JUMPI PUSH1 0x0 DUP1 REVERT JUMPDEST POP PUSH2 0x21D PUSH1 0x4 DUP1 CALLDATASIZE SUB DUP2 ADD SWAP1 PUSH2 0x218 SWAP2 SWAP1 PUSH2 0x19A2 JUMP JUMPDEST PUSH2 0xE53 JUMP JUMPDEST PUSH1 0x40 MLOAD PUSH2 0x22F SWAP7 SWAP6 SWAP5 SWAP4 SWAP3 SWAP2 SWAP1 PUSH2 0x1E9D JUMP JUMPDEST PUSH1 0x40 MLOAD DUP1 SWAP2 SUB SWAP1 RETURN JUMPDEST CALLVALUE DUP1 ISZERO PUSH2 0x244 JUMPI PUSH1 0x0 DUP1 REVERT JUMPDEST POP PUSH2 0x25F PUSH1 0x4 DUP1 CALLDATASIZE SUB DUP2 ADD SWAP1 PUSH2 0x25A SWAP2 SWAP1 PUSH2 0x1934 JUMP JUMPDEST PUSH2 0xEDC JUMP JUMPDEST PUSH1 0x40 MLOAD PUSH2 0x26D SWAP3 SWAP2 SWAP1 PUSH2 0x20BD JUMP JUMPDEST PUSH1 0x40 MLOAD DUP1 SWAP2 SUB SWAP1 RETURN JUMPDEST CALLVALUE DUP1 ISZERO PUSH2 0x282 JUMPI PUSH1 0x0 DUP1 REVERT JUMPDEST POP PUSH2 0x29D PUSH1 0x4 DUP1 CALLDATASIZE SUB DUP2 ADD SWAP1 PUSH2 0x298 SWAP2 SWAP1 PUSH2 0x195D JUMP JUMPDEST PUSH2 0xF68 JUMP JUMPDEST STOP JUMPDEST CALLVALUE DUP1 ISZERO PUSH2 0x2AB JUMPI PUSH1 0x0 DUP1 REVERT JUMPDEST POP PUSH2 0x2C6 PUSH1 0x4 DUP1 CALLDATASIZE SUB DUP2 ADD SWAP1 PUSH2 0x2C1 SWAP2 SWAP1 PUSH2 0x1934 JUMP JUMPDEST PUSH2 0x11C1 JUMP JUMPDEST PUSH1 0x40 MLOAD PUSH2 0x2D4 SWAP3 SWAP2 SWAP1 PUSH2 0x20BD JUMP JUMPDEST PUSH1 0x40 MLOAD DUP1 SWAP2 SUB SWAP1 RETURN JUMPDEST CALLVALUE DUP1 ISZERO PUSH2 0x2E9 JUMPI PUSH1 0x0 DUP1 REVERT JUMPDEST POP PUSH2 0x304 PUSH1 0x4 DUP1 CALLDATASIZE SUB DUP2 ADD SWAP1 PUSH2 0x2FF SWAP2 SWAP1 PUSH2 0x1934 JUMP JUMPDEST PUSH2 0x126B JUMP JUMPDEST PUSH1 0x40 MLOAD PUSH2 0x311 SWAP2 SWAP1 PUSH2 0x20A2 JUMP JUMPDEST PUSH1 0x40 MLOAD DUP1 SWAP2 SUB SWAP1 RETURN JUMPDEST CALLVALUE DUP1 ISZERO PUSH2 0x326 JUMPI PUSH1 0x0 DUP1 REVERT JUMPDEST POP PUSH2 0x32F PUSH2 0x1283 JUMP JUMPDEST PUSH1 0x40 MLOAD PUSH2 0x33C SWAP2 SWAP1 PUSH2 0x20A2 JUMP JUMPDEST PUSH1 0x40 MLOAD DUP1 SWAP2 SUB SWAP1 RETURN JUMPDEST CALLVALUE DUP1 ISZERO PUSH2 0x351 JUMPI PUSH1 0x0 DUP1 REVERT JUMPDEST POP PUSH2 0x36C PUSH1 0x4 DUP1 CALLDATASIZE SUB DUP2 ADD SWAP1 PUSH2 0x367 SWAP2 SWAP1 PUSH2 0x19A2 JUMP JUMPDEST PUSH2 0x1290 JUMP JUMPDEST STOP JUMPDEST CALLVALUE DUP1 ISZERO PUSH2 0x37A JUMPI PUSH1 0x0 DUP1 REVERT JUMPDEST POP PUSH2 0x395 PUSH1 0x4 DUP1 CALLDATASIZE SUB DUP2 ADD SWAP1 PUSH2 0x390 SWAP2 SWAP1 PUSH2 0x19A2 JUMP JUMPDEST PUSH2 0x16A0 JUMP JUMPDEST PUSH1 0x40 MLOAD PUSH2 0x3A5 SWAP5 SWAP4 SWAP3 SWAP2 SWAP1 PUSH2 0x1E58 JUMP JUMPDEST PUSH1 0x40 MLOAD DUP1 SWAP2 SUB SWAP1 RETURN JUMPDEST CALLVALUE DUP1 ISZERO PUSH2 0x3BA JUMPI PUSH1 0x0 DUP1 REVERT JUMPDEST POP PUSH2 0x3D5 PUSH1 0x4 DUP1 CALLDATASIZE SUB DUP2 ADD SWAP1 PUSH2 0x3D0 SWAP2 SWAP1 PUSH2 0x19A2 JUMP JUMPDEST PUSH2 0x179D JUMP JUMPDEST PUSH1 0x40 MLOAD PUSH2 0x3E5 SWAP5 SWAP4 SWAP3 SWAP2 SWAP1 PUSH2 0x1E58 JUMP JUMPDEST PUSH1 0x40 MLOAD DUP1 SWAP2 SUB SWAP1 RETURN JUMPDEST PUSH1 0x0 DUP1 PUSH1 0x0 DUP4 PUSH20 0xFFFFFFFFFFFFFFFFFFFFFFFFFFFFFFFFFFFFFFFF AND PUSH20 0xFFFFFFFFFFFFFFFFFFFFFFFFFFFFFFFFFFFFFFFF AND DUP2 MSTORE PUSH1 0x20 ADD SWAP1 DUP2 MSTORE PUSH1 0x20 ADD PUSH1 0x0 KECCAK256 SWAP1 POP DUP1 PUSH1 0x2 ADD PUSH1 0x0 SWAP1 SLOAD SWAP1 PUSH2 0x100 EXP SWAP1 DIV PUSH1 0xFF AND PUSH2 0x481 JUMPI PUSH1 0x40 MLOAD PUSH32 0x8C379A000000000000000000000000000000000000000000000000000000000 DUP2 MSTORE PUSH1 0x4 ADD PUSH2 0x478 SWAP1 PUSH2 0x1F82 JUMP JUMPDEST PUSH1 0x40 MLOAD DUP1 SWAP2 SUB SWAP1 REVERT JUMPDEST PUSH1 0x0 CALLVALUE GT PUSH2 0x4C4 JUMPI PUSH1 0x40 MLOAD PUSH32 0x8C379A000000000000000000000000000000000000000000000000000000000 DUP2 MSTORE PUSH1 0x4 ADD PUSH2 0x4BB SWAP1 PUSH2 0x1F22 JUMP JUMPDEST PUSH1 0x40 MLOAD DUP1 SWAP2 SUB SWAP1 REVERT JUMPDEST PUSH1 0x1 PUSH1 0x40 MLOAD DUP1 PUSH1 0x80 ADD PUSH1 0x40 MSTORE DUP1 CALLER PUSH20 0xFFFFFFFFFFFFFFFFFFFFFFFFFFFFFFFFFFFFFFFF AND DUP2 MSTORE PUSH1 0x20 ADD DUP5 PUSH20 0xFFFFFFFFFFFFFFFFFFFFFFFFFFFFFFFFFFFFFFFF AND DUP2 MSTORE PUSH1 0x20 ADD CALLVALUE DUP2 MSTORE PUSH1 0x20 ADD TIMESTAMP DUP2 MSTORE POP SWAP1 DUP1 PUSH1 0x1 DUP2 SLOAD ADD DUP1 DUP3 SSTORE DUP1 SWAP2 POP POP PUSH1 0x1 SWAP1 SUB SWAP1 PUSH1 0x0 MSTORE PUSH1 0x20 PUSH1 0x0 KECCAK256 SWAP1 PUSH1 0x4 MUL ADD PUSH1 0x0 SWAP1 SWAP2 SWAP1 SWAP2 SWAP1 SWAP2 POP PUSH1 0x0 DUP3 ADD MLOAD DUP2 PUSH1 0x0 ADD PUSH1 0x0 PUSH2 0x100 EXP DUP2 SLOAD DUP2 PUSH20 0xFFFFFFFFFFFFFFFFFFFFFFFFFFFFFFFFFFFFFFFF MUL NOT AND SWAP1 DUP4 PUSH20 0xFFFFFFFFFFFFFFFFFFFFFFFFFFFFFFFFFFFFFFFF AND MUL OR SWAP1 SSTORE POP PUSH1 0x20 DUP3 ADD MLOAD DUP2 PUSH1 0x1 ADD PUSH1 0x0 PUSH2 0x100 EXP DUP2 SLOAD DUP2 PUSH20 0xFFFFFFFFFFFFFFFFFFFFFFFFFFFFFFFFFFFFFFFF MUL NOT AND SWAP1 DUP4 PUSH20 0xFFFFFFFFFFFFFFFFFFFFFFFFFFFFFFFFFFFFFFFF AND MUL OR SWAP1 SSTORE POP PUSH1 0x40 DUP3 ADD MLOAD DUP2 PUSH1 0x2 ADD SSTORE PUSH1 0x60 DUP3 ADD MLOAD DUP2 PUSH1 0x3 ADD SSTORE POP POP CALLVALUE DUP2 PUSH1 0x3 ADD PUSH1 0x0 DUP3 DUP3 SLOAD PUSH2 0x5F4 SWAP2 SWAP1 PUSH2 0x210D JUMP JUMPDEST SWAP3 POP POP DUP2 SWAP1 SSTORE POP PUSH1 0x1 DUP2 PUSH1 0x4 ADD PUSH1 0x0 DUP3 DUP3 SLOAD PUSH2 0x610 SWAP2 SWAP1 PUSH2 0x210D JUMP JUMPDEST SWAP3 POP POP DUP2 SWAP1 SSTORE POP CALLVALUE PUSH1 0x2 PUSH1 0x0 CALLER PUSH20 0xFFFFFFFFFFFFFFFFFFFFFFFFFFFFFFFFFFFFFFFF AND PUSH20 0xFFFFFFFFFFFFFFFFFFFFFFFFFFFFFFFFFFFFFFFF AND DUP2 MSTORE PUSH1 0x20 ADD SWAP1 DUP2 MSTORE PUSH1 0x20 ADD PUSH1 0x0 KECCAK256 PUSH1 0x0 DUP3 DUP3 SLOAD PUSH2 0x666 SWAP2 SWAP1 PUSH2 0x210D JUMP JUMPDEST SWAP3 POP POP DUP2 SWAP1 SSTORE POP PUSH1 0x1 PUSH1 0x3 PUSH1 0x0 CALLER PUSH20 0xFFFFFFFFFFFFFFFFFFFFFFFFFFFFFFFFFFFFFFFF AND PUSH20 0xFFFFFFFFFFFFFFFFFFFFFFFFFFFFFFFFFFFFFFFF AND DUP2 MSTORE PUSH1 0x20 ADD SWAP1 DUP2 MSTORE PUSH1 0x20 ADD PUSH1 0x0 KECCAK256 PUSH1 0x0 DUP3 DUP3 SLOAD PUSH2 0x6BD SWAP2 SWAP1 PUSH2 0x210D JUMP JUMPDEST SWAP3 POP POP DUP2 SWAP1 SSTORE POP PUSH1 0x0 DUP2 PUSH1 0x0 ADD PUSH1 0x0 SWAP1 SLOAD SWAP1 PUSH2 0x100 EXP SWAP1 DIV PUSH20 0xFFFFFFFFFFFFFFFFFFFFFFFFFFFFFFFFFFFFFFFF AND PUSH20 0xFFFFFFFFFFFFFFFFFFFFFFFFFFFFFFFFFFFFFFFF AND CALLVALUE PUSH1 0x40 MLOAD PUSH2 0x70E SWAP1 PUSH2 0x1DE9 JUMP JUMPDEST PUSH1 0x0 PUSH1 0x40 MLOAD DUP1 DUP4 SUB DUP2 DUP6 DUP8 GAS CALL SWAP3 POP POP POP RETURNDATASIZE DUP1 PUSH1 0x0 DUP2 EQ PUSH2 0x74B JUMPI PUSH1 0x40 MLOAD SWAP2 POP PUSH1 0x1F NOT PUSH1 0x3F RETURNDATASIZE ADD AND DUP3 ADD PUSH1 0x40 MSTORE RETURNDATASIZE DUP3 MSTORE RETURNDATASIZE PUSH1 0x0 PUSH1 0x20 DUP5 ADD RETURNDATACOPY PUSH2 0x750 JUMP JUMPDEST PUSH1 0x60 SWAP2 POP JUMPDEST POP POP SWAP1 POP DUP1 PUSH2 0x794 JUMPI PUSH1 0x40 MLOAD PUSH32 0x8C379A000000000000000000000000000000000000000000000000000000000 DUP2 MSTORE PUSH1 0x4 ADD PUSH2 0x78B SWAP1 PUSH2 0x1F62 JUMP JUMPDEST PUSH1 0x40 MLOAD DUP1 SWAP2 SUB SWAP1 REVERT JUMPDEST DUP3 PUSH20 0xFFFFFFFFFFFFFFFFFFFFFFFFFFFFFFFFFFFFFFFF AND CALLER PUSH20 0xFFFFFFFFFFFFFFFFFFFFFFFFFFFFFFFFFFFFFFFF AND PUSH32 0xCE9409EE3DC10E35DE83DDA0F830E4A13935452188FE71A956B850ECB839425F CALLVALUE TIMESTAMP PUSH1 0x40 MLOAD PUSH2 0x7F3 SWAP3 SWAP2 SWAP1 PUSH2 0x20BD JUMP JUMPDEST PUSH1 0x40 MLOAD DUP1 SWAP2 SUB SWAP1 LOG3 POP POP POP JUMP JUMPDEST PUSH1 0x0 DUP1 PUSH1 0x0 CALLER PUSH20 0xFFFFFFFFFFFFFFFFFFFFFFFFFFFFFFFFFFFFFFFF AND PUSH20 0xFFFFFFFFFFFFFFFFFFFFFFFFFFFFFFFFFFFFFFFF AND DUP2 MSTORE PUSH1 0x20 ADD SWAP1 DUP2 MSTORE PUSH1 0x20 ADD PUSH1 0x0 KECCAK256 SWAP1 POP DUP1 PUSH1 0x2 ADD PUSH1 0x0 SWAP1 SLOAD SWAP1 PUSH2 0x100 EXP SWAP1 DIV PUSH1 0xFF AND PUSH2 0x893 JUMPI PUSH1 0x40 MLOAD PUSH32 0x8C379A000000000000000000000000000000000000000000000000000000000 DUP2 MSTORE PUSH1 0x4 ADD PUSH2 0x88A SWAP1 PUSH2 0x1F82 JUMP JUMPDEST PUSH1 0x40 MLOAD DUP1 SWAP2 SUB SWAP1 REVERT JUMPDEST DUP2 DUP4 LT PUSH2 0x8D5 JUMPI PUSH1 0x40 MLOAD PUSH32 0x8C379A000000000000000000000000000000000000000000000000000000000 DUP2 MSTORE PUSH1 0x4 ADD PUSH2 0x8CC SWAP1 PUSH2 0x2002 JUMP JUMPDEST PUSH1 0x40 MLOAD DUP1 SWAP2 SUB SWAP1 REVERT JUMPDEST TIMESTAMP DUP3 GT PUSH2 0x917 JUMPI PUSH1 0x40 MLOAD PUSH32 0x8C379A000000000000000000000000000000000000000000000000000000000 DUP2 MSTORE PUSH1 0x4 ADD PUSH2 0x90E SWAP1 PUSH2 0x2042 JUMP JUMPDEST PUSH1 0x40 MLOAD DUP1 SWAP2 SUB SWAP1 REVERT JUMPDEST PUSH1 0x40 MLOAD DUP1 PUSH1 0xC0 ADD PUSH1 0x40 MSTORE DUP1 CALLER PUSH20 0xFFFFFFFFFFFFFFFFFFFFFFFFFFFFFFFFFFFFFFFF AND DUP2 MSTORE PUSH1 0x20 ADD DUP5 DUP2 MSTORE PUSH1 0x20 ADD DUP4 DUP2 MSTORE PUSH1 0x20 ADD PUSH1 0x0 PUSH20 0xFFFFFFFFFFFFFFFFFFFFFFFFFFFFFFFFFFFFFFFF AND DUP2 MSTORE PUSH1 0x20 ADD PUSH1 0x0 DUP2 MSTORE PUSH1 0x20 ADD PUSH1 0x0 ISZERO ISZERO DUP2 MSTORE POP PUSH1 0x4 PUSH1 0x0 PUSH1 0x5 SLOAD DUP2 MSTORE PUSH1 0x20 ADD SWAP1 DUP2 MSTORE PUSH1 0x20 ADD PUSH1 0x0 KECCAK256 PUSH1 0x0 DUP3 ADD MLOAD DUP2 PUSH1 0x0 ADD PUSH1 0x0 PUSH2 0x100 EXP DUP2 SLOAD DUP2 PUSH20 0xFFFFFFFFFFFFFFFFFFFFFFFFFFFFFFFFFFFFFFFF MUL NOT AND SWAP1 DUP4 PUSH20 0xFFFFFFFFFFFFFFFFFFFFFFFFFFFFFFFFFFFFFFFF AND MUL OR SWAP1 SSTORE POP PUSH1 0x20 DUP3 ADD MLOAD DUP2 PUSH1 0x1 ADD SSTORE PUSH1 0x40 DUP3 ADD MLOAD DUP2 PUSH1 0x2 ADD SSTORE PUSH1 0x60 DUP3 ADD MLOAD DUP2 PUSH1 0x3 ADD PUSH1 0x0 PUSH2 0x100 EXP DUP2 SLOAD DUP2 PUSH20 0xFFFFFFFFFFFFFFFFFFFFFFFFFFFFFFFFFFFFFFFF MUL NOT AND SWAP1 DUP4 PUSH20 0xFFFFFFFFFFFFFFFFFFFFFFFFFFFFFFFFFFFFFFFF AND MUL OR SWAP1 SSTORE POP PUSH1 0x80 DUP3 ADD MLOAD DUP2 PUSH1 0x4 ADD SSTORE PUSH1 0xA0 DUP3 ADD MLOAD DUP2 PUSH1 0x5 ADD PUSH1 0x0 PUSH2 0x100 EXP DUP2 SLOAD DUP2 PUSH1 0xFF MUL NOT AND SWAP1 DUP4 ISZERO ISZERO MUL OR SWAP1 SSTORE POP SWAP1 POP POP CALLER PUSH20 0xFFFFFFFFFFFFFFFFFFFFFFFFFFFFFFFFFFFFFFFF AND PUSH1 0x5 SLOAD PUSH32 0xC9050D42180A61CB0D9EBB8AD118B62FE6EAB12CF12FF752C4A0CC7DA9DDF627 DUP6 DUP6 PUSH1 0x40 MLOAD PUSH2 0xAA4 SWAP3 SWAP2 SWAP1 PUSH2 0x20BD JUMP JUMPDEST PUSH1 0x40 MLOAD DUP1 SWAP2 SUB SWAP1 LOG3 PUSH1 0x5 PUSH1 0x0 DUP2 SLOAD DUP1 SWAP3 SWAP2 SWAP1 PUSH2 0xABF SWAP1 PUSH2 0x2231 JUMP JUMPDEST SWAP2 SWAP1 POP SSTORE POP POP POP POP JUMP JUMPDEST PUSH1 0x0 PUSH1 0x20 MSTORE DUP1 PUSH1 0x0 MSTORE PUSH1 0x40 PUSH1 0x0 KECCAK256 PUSH1 0x0 SWAP2 POP SWAP1 POP DUP1 PUSH1 0x0 ADD PUSH1 0x0 SWAP1 SLOAD SWAP1 PUSH2 0x100 EXP SWAP1 DIV PUSH20 0xFFFFFFFFFFFFFFFFFFFFFFFFFFFFFFFFFFFFFFFF AND SWAP1 DUP1 PUSH1 0x1 ADD DUP1 SLOAD PUSH2 0xB12 SWAP1 PUSH2 0x21FF JUMP JUMPDEST DUP1 PUSH1 0x1F ADD PUSH1 0x20 DUP1 SWAP2 DIV MUL PUSH1 0x20 ADD PUSH1 0x40 MLOAD SWAP1 DUP2 ADD PUSH1 0x40 MSTORE DUP1 SWAP3 SWAP2 SWAP1 DUP2 DUP2 MSTORE PUSH1 0x20 ADD DUP3 DUP1 SLOAD PUSH2 0xB3E SWAP1 PUSH2 0x21FF JUMP JUMPDEST DUP1 ISZERO PUSH2 0xB8B JUMPI DUP1 PUSH1 0x1F LT PUSH2 0xB60 JUMPI PUSH2 0x100 DUP1 DUP4 SLOAD DIV MUL DUP4 MSTORE SWAP2 PUSH1 0x20 ADD SWAP2 PUSH2 0xB8B JUMP JUMPDEST DUP3 ADD SWAP2 SWAP1 PUSH1 0x0 MSTORE PUSH1 0x20 PUSH1 0x0 KECCAK256 SWAP1 JUMPDEST DUP2 SLOAD DUP2 MSTORE SWAP1 PUSH1 0x1 ADD SWAP1 PUSH1 0x20 ADD DUP1 DUP4 GT PUSH2 0xB6E JUMPI DUP3 SWAP1 SUB PUSH1 0x1F AND DUP3 ADD SWAP2 JUMPDEST POP POP POP POP POP SWAP1 DUP1 PUSH1 0x2 ADD PUSH1 0x0 SWAP1 SLOAD SWAP1 PUSH2 0x100 EXP SWAP1 DIV PUSH1 0xFF AND SWAP1 DUP1 PUSH1 0x3 ADD SLOAD SWAP1 DUP1 PUSH1 0x4 ADD SLOAD SWAP1 POP DUP6 JUMP JUMPDEST PUSH1 0x5 SLOAD DUP2 JUMP JUMPDEST PUSH1 0x0 PUSH1 0x4 PUSH1 0x0 DUP4 DUP2 MSTORE PUSH1 0x20 ADD SWAP1 DUP2 MSTORE PUSH1 0x20 ADD PUSH1 0x0 KECCAK256 SWAP1 POP DUP1 PUSH1 0x1 ADD SLOAD TIMESTAMP LT ISZERO DUP1 ISZERO PUSH2 0xBE9 JUMPI POP DUP1 PUSH1 0x2 ADD SLOAD TIMESTAMP GT ISZERO JUMPDEST PUSH2 0xC28 JUMPI PUSH1 0x40 MLOAD PUSH32 0x8C379A000000000000000000000000000000000000000000000000000000000 DUP2 MSTORE PUSH1 0x4 ADD PUSH2 0xC1F SWAP1 PUSH2 0x1FA2 JUMP JUMPDEST PUSH1 0x40 MLOAD DUP1 SWAP2 SUB SWAP1 REVERT JUMPDEST DUP1 PUSH1 0x4 ADD SLOAD CALLVALUE GT PUSH2 0xC6E JUMPI PUSH1 0x40 MLOAD PUSH32 0x8C379A000000000000000000000000000000000000000000000000000000000 DUP2 MSTORE PUSH1 0x4 ADD PUSH2 0xC65 SWAP1 PUSH2 0x1F42 JUMP JUMPDEST PUSH1 0x40 MLOAD DUP1 SWAP2 SUB SWAP1 REVERT JUMPDEST PUSH1 0x0 PUSH20 0xFFFFFFFFFFFFFFFFFFFFFFFFFFFFFFFFFFFFFFFF AND DUP2 PUSH1 0x3 ADD PUSH1 0x0 SWAP1 SLOAD SWAP1 PUSH2 0x100 EXP SWAP1 DIV PUSH20 0xFFFFFFFFFFFFFFFFFFFFFFFFFFFFFFFFFFFFFFFF AND PUSH20 0xFFFFFFFFFFFFFFFFFFFFFFFFFFFFFFFFFFFFFFFF AND EQ PUSH2 0xD9C JUMPI PUSH1 0x0 DUP2 PUSH1 0x3 ADD PUSH1 0x0 SWAP1 SLOAD SWAP1 PUSH2 0x100 EXP SWAP1 DIV PUSH20 0xFFFFFFFFFFFFFFFFFFFFFFFFFFFFFFFFFFFFFFFF AND PUSH20 0xFFFFFFFFFFFFFFFFFFFFFFFFFFFFFFFFFFFFFFFF AND DUP3 PUSH1 0x4 ADD SLOAD PUSH1 0x40 MLOAD PUSH2 0xD14 SWAP1 PUSH2 0x1DE9 JUMP JUMPDEST PUSH1 0x0 PUSH1 0x40 MLOAD DUP1 DUP4 SUB DUP2 DUP6 DUP8 GAS CALL SWAP3 POP POP POP RETURNDATASIZE DUP1 PUSH1 0x0 DUP2 EQ PUSH2 0xD51 JUMPI PUSH1 0x40 MLOAD SWAP2 POP PUSH1 0x1F NOT PUSH1 0x3F RETURNDATASIZE ADD AND DUP3 ADD PUSH1 0x40 MSTORE RETURNDATASIZE DUP3 MSTORE RETURNDATASIZE PUSH1 0x0 PUSH1 0x20 DUP5 ADD RETURNDATACOPY PUSH2 0xD56 JUMP JUMPDEST PUSH1 0x60 SWAP2 POP JUMPDEST POP POP SWAP1 POP DUP1 PUSH2 0xD9A JUMPI PUSH1 0x40 MLOAD PUSH32 0x8C379A000000000000000000000000000000000000000000000000000000000 DUP2 MSTORE PUSH1 0x4 ADD PUSH2 0xD91 SWAP1 PUSH2 0x2022 JUMP JUMPDEST PUSH1 0x40 MLOAD DUP1 SWAP2 SUB SWAP1 REVERT JUMPDEST POP JUMPDEST CALLVALUE DUP2 PUSH1 0x4 ADD DUP2 SWAP1 SSTORE POP CALLER DUP2 PUSH1 0x3 ADD PUSH1 0x0 PUSH2 0x100 EXP DUP2 SLOAD DUP2 PUSH20 0xFFFFFFFFFFFFFFFFFFFFFFFFFFFFFFFFFFFFFFFF MUL NOT AND SWAP1 DUP4 PUSH20 0xFFFFFFFFFFFFFFFFFFFFFFFFFFFFFFFFFFFFFFFF AND MUL OR SWAP1 SSTORE POP CALLER PUSH20 0xFFFFFFFFFFFFFFFFFFFFFFFFFFFFFFFFFFFFFFFF AND DUP3 PUSH32 0xE54EFF26401BF69B81B26F60BD85EF47F5D85275C1D268D84F68D6897431C47 CALLVALUE PUSH1 0x40 MLOAD PUSH2 0xE2F SWAP2 SWAP1 PUSH2 0x20A2 JUMP JUMPDEST PUSH1 0x40 MLOAD DUP1 SWAP2 SUB SWAP1 LOG3 POP POP JUMP JUMPDEST PUSH1 0x2 PUSH1 0x20 MSTORE DUP1 PUSH1 0x0 MSTORE PUSH1 0x40 PUSH1 0x0 KECCAK256 PUSH1 0x0 SWAP2 POP SWAP1 POP SLOAD DUP2 JUMP JUMPDEST PUSH1 0x4 PUSH1 0x20 MSTORE DUP1 PUSH1 0x0 MSTORE PUSH1 0x40 PUSH1 0x0 KECCAK256 PUSH1 0x0 SWAP2 POP SWAP1 POP DUP1 PUSH1 0x0 ADD PUSH1 0x0 SWAP1 SLOAD SWAP1 PUSH2 0x100 EXP SWAP1 DIV PUSH20 0xFFFFFFFFFFFFFFFFFFFFFFFFFFFFFFFFFFFFFFFF AND SWAP1 DUP1 PUSH1 0x1 ADD SLOAD SWAP1 DUP1 PUSH1 0x2 ADD SLOAD SWAP1 DUP1 PUSH1 0x3 ADD PUSH1 0x0 SWAP1 SLOAD SWAP1 PUSH2 0x100 EXP SWAP1 DIV PUSH20 0xFFFFFFFFFFFFFFFFFFFFFFFFFFFFFFFFFFFFFFFF AND SWAP1 DUP1 PUSH1 0x4 ADD SLOAD SWAP1 DUP1 PUSH1 0x5 ADD PUSH1 0x0 SWAP1 SLOAD SWAP1 PUSH2 0x100 EXP SWAP1 DIV PUSH1 0xFF AND SWAP1 POP DUP7 JUMP JUMPDEST PUSH1 0x0 DUP1 PUSH1 0x2 PUSH1 0x0 DUP5 PUSH20 0xFFFFFFFFFFFFFFFFFFFFFFFFFFFFFFFFFFFFFFFF AND PUSH20 0xFFFFFFFFFFFFFFFFFFFFFFFFFFFFFFFFFFFFFFFF AND DUP2 MSTORE PUSH1 0x20 ADD SWAP1 DUP2 MSTORE PUSH1 0x20 ADD PUSH1 0x0 KECCAK256 SLOAD PUSH1 0x3 PUSH1 0x0 DUP6 PUSH20 0xFFFFFFFFFFFFFFFFFFFFFFFFFFFFFFFFFFFFFFFF AND PUSH20 0xFFFFFFFFFFFFFFFFFFFFFFFFFFFFFFFFFFFFFFFF AND DUP2 MSTORE PUSH1 0x20 ADD SWAP1 DUP2 MSTORE PUSH1 0x20 ADD PUSH1 0x0 KECCAK256 SLOAD SWAP2 POP SWAP2 POP SWAP2 POP SWAP2 JUMP JUMPDEST PUSH1 0x0 DUP1 CALLER PUSH20 0xFFFFFFFFFFFFFFFFFFFFFFFFFFFFFFFFFFFFFFFF AND PUSH20 0xFFFFFFFFFFFFFFFFFFFFFFFFFFFFFFFFFFFFFFFF AND DUP2 MSTORE PUSH1 0x20 ADD SWAP1 DUP2 MSTORE PUSH1 0x20 ADD PUSH1 0x0 KECCAK256 PUSH1 0x2 ADD PUSH1 0x0 SWAP1 SLOAD SWAP1 PUSH2 0x100 EXP SWAP1 DIV PUSH1 0xFF AND ISZERO PUSH2 0xFF7 JUMPI PUSH1 0x40 MLOAD PUSH32 0x8C379A000000000000000000000000000000000000000000000000000000000 DUP2 MSTORE PUSH1 0x4 ADD PUSH2 0xFEE SWAP1 PUSH2 0x1FE2 JUMP JUMPDEST PUSH1 0x40 MLOAD DUP1 SWAP2 SUB SWAP1 REVERT JUMPDEST PUSH1 0x40 MLOAD DUP1 PUSH1 0xA0 ADD PUSH1 0x40 MSTORE DUP1 CALLER PUSH20 0xFFFFFFFFFFFFFFFFFFFFFFFFFFFFFFFFFFFFFFFF AND DUP2 MSTORE PUSH1 0x20 ADD DUP4 DUP4 DUP1 DUP1 PUSH1 0x1F ADD PUSH1 0x20 DUP1 SWAP2 DIV MUL PUSH1 0x20 ADD PUSH1 0x40 MLOAD SWAP1 DUP2 ADD PUSH1 0x40 MSTORE DUP1 SWAP4 SWAP3 SWAP2 SWAP1 DUP2 DUP2 MSTORE PUSH1 0x20 ADD DUP4 DUP4 DUP1 DUP3 DUP5 CALLDATACOPY PUSH1 0x0 DUP2 DUP5 ADD MSTORE PUSH1 0x1F NOT PUSH1 0x1F DUP3 ADD AND SWAP1 POP DUP1 DUP4 ADD SWAP3 POP POP POP POP POP POP POP DUP2 MSTORE PUSH1 0x20 ADD PUSH1 0x1 ISZERO ISZERO DUP2 MSTORE PUSH1 0x20 ADD PUSH1 0x0 DUP2 MSTORE PUSH1 0x20 ADD PUSH1 0x0 DUP2 MSTORE POP PUSH1 0x0 DUP1 CALLER PUSH20 0xFFFFFFFFFFFFFFFFFFFFFFFFFFFFFFFFFFFFFFFF AND PUSH20 0xFFFFFFFFFFFFFFFFFFFFFFFFFFFFFFFFFFFFFFFF AND DUP2 MSTORE PUSH1 0x20 ADD SWAP1 DUP2 MSTORE PUSH1 0x20 ADD PUSH1 0x0 KECCAK256 PUSH1 0x0 DUP3 ADD MLOAD DUP2 PUSH1 0x0 ADD PUSH1 0x0 PUSH2 0x100 EXP DUP2 SLOAD DUP2 PUSH20 0xFFFFFFFFFFFFFFFFFFFFFFFFFFFFFFFFFFFFFFFF MUL NOT AND SWAP1 DUP4 PUSH20 0xFFFFFFFFFFFFFFFFFFFFFFFFFFFFFFFFFFFFFFFF AND MUL OR SWAP1 SSTORE POP PUSH1 0x20 DUP3 ADD MLOAD DUP2 PUSH1 0x1 ADD SWAP1 DUP1 MLOAD SWAP1 PUSH1 0x20 ADD SWAP1 PUSH2 0x111E SWAP3 SWAP2 SWAP1 PUSH2 0x181D JUMP JUMPDEST POP PUSH1 0x40 DUP3 ADD MLOAD DUP2 PUSH1 0x2 ADD PUSH1 0x0 PUSH2 0x100 EXP DUP2 SLOAD DUP2 PUSH1 0xFF MUL NOT AND SWAP1 DUP4 ISZERO ISZERO MUL OR SWAP1 SSTORE POP PUSH1 0x60 DUP3 ADD MLOAD DUP2 PUSH1 0x3 ADD SSTORE PUSH1 0x80 DUP3 ADD MLOAD DUP2 PUSH1 0x4 ADD SSTORE SWAP1 POP POP CALLER PUSH20 0xFFFFFFFFFFFFFFFFFFFFFFFFFFFFFFFFFFFFFFFF AND CALLER PUSH20 0xFFFFFFFFFFFFFFFFFFFFFFFFFFFFFFFFFFFFFFFF AND PUSH32 0x3023A2350309E23B2E61B93CF130AD4B879E3FD7EF00DE1A39331F0CFD6BF4BC DUP5 DUP5 PUSH1 0x40 MLOAD PUSH2 0x11B5 SWAP3 SWAP2 SWAP1 PUSH2 0x1EFE JUMP JUMPDEST PUSH1 0x40 MLOAD DUP1 SWAP2 SUB SWAP1 LOG3 POP POP JUMP JUMPDEST PUSH1 0x0 DUP1 PUSH1 0x0 DUP1 PUSH1 0x0 DUP6 PUSH20 0xFFFFFFFFFFFFFFFFFFFFFFFFFFFFFFFFFFFFFFFF AND PUSH20 0xFFFFFFFFFFFFFFFFFFFFFFFFFFFFFFFFFFFFFFFF AND DUP2 MSTORE PUSH1 0x20 ADD SWAP1 DUP2 MSTORE PUSH1 0x20 ADD PUSH1 0x0 KECCAK256 SWAP1 POP DUP1 PUSH1 0x2 ADD PUSH1 0x0 SWAP1 SLOAD SWAP1 PUSH2 0x100 EXP SWAP1 DIV PUSH1 0xFF AND PUSH2 0x1257 JUMPI PUSH1 0x40 MLOAD PUSH32 0x8C379A000000000000000000000000000000000000000000000000000000000 DUP2 MSTORE PUSH1 0x4 ADD PUSH2 0x124E SWAP1 PUSH2 0x1F82 JUMP JUMPDEST PUSH1 0x40 MLOAD DUP1 SWAP2 SUB SWAP1 REVERT JUMPDEST DUP1 PUSH1 0x3 ADD SLOAD DUP2 PUSH1 0x4 ADD SLOAD SWAP3 POP SWAP3 POP POP SWAP2 POP SWAP2 JUMP JUMPDEST PUSH1 0x3 PUSH1 0x20 MSTORE DUP1 PUSH1 0x0 MSTORE PUSH1 0x40 PUSH1 0x0 KECCAK256 PUSH1 0x0 SWAP2 POP SWAP1 POP SLOAD DUP2 JUMP JUMPDEST PUSH1 0x0 PUSH1 0x1 DUP1 SLOAD SWAP1 POP SWAP1 POP SWAP1 JUMP JUMPDEST PUSH1 0x0 PUSH1 0x4 PUSH1 0x0 DUP4 DUP2 MSTORE PUSH1 0x20 ADD SWAP1 DUP2 MSTORE PUSH1 0x20 ADD PUSH1 0x0 KECCAK256 SWAP1 POP DUP1 PUSH1 0x2 ADD SLOAD TIMESTAMP GT PUSH2 0x12ED JUMPI PUSH1 0x40 MLOAD PUSH32 0x8C379A000000000000000000000000000000000000000000000000000000000 DUP2 MSTORE PUSH1 0x4 ADD PUSH2 0x12E4 SWAP1 PUSH2 0x1FC2 JUMP JUMPDEST PUSH1 0x40 MLOAD DUP1 SWAP2 SUB SWAP1 REVERT JUMPDEST DUP1 PUSH1 0x5 ADD PUSH1 0x0 SWAP1 SLOAD SWAP1 PUSH2 0x100 EXP SWAP1 DIV PUSH1 0xFF AND ISZERO PUSH2 0x133F JUMPI PUSH1 0x40 MLOAD PUSH32 0x8C379A000000000000000000000000000000000000000000000000000000000 DUP2 MSTORE PUSH1 0x4 ADD PUSH2 0x1336 SWAP1 PUSH2 0x2062 JUMP JUMPDEST PUSH1 0x40 MLOAD DUP1 SWAP2 SUB SWAP1 REVERT JUMPDEST PUSH1 0x1 DUP2 PUSH1 0x5 ADD PUSH1 0x0 PUSH2 0x100 EXP DUP2 SLOAD DUP2 PUSH1 0xFF MUL NOT AND SWAP1 DUP4 ISZERO ISZERO MUL OR SWAP1 SSTORE POP PUSH1 0x0 PUSH20 0xFFFFFFFFFFFFFFFFFFFFFFFFFFFFFFFFFFFFFFFF AND DUP2 PUSH1 0x3 ADD PUSH1 0x0 SWAP1 SLOAD SWAP1 PUSH2 0x100 EXP SWAP1 DIV PUSH20 0xFFFFFFFFFFFFFFFFFFFFFFFFFFFFFFFFFFFFFFFF AND PUSH20 0xFFFFFFFFFFFFFFFFFFFFFFFFFFFFFFFFFFFFFFFF AND EQ PUSH2 0x1625 JUMPI PUSH1 0x0 DUP1 PUSH1 0x0 DUP4 PUSH1 0x0 ADD PUSH1 0x0 SWAP1 SLOAD SWAP1 PUSH2 0x100 EXP SWAP1 DIV PUSH20 0xFFFFFFFFFFFFFFFFFFFFFFFFFFFFFFFFFFFFFFFF AND PUSH20 0xFFFFFFFFFFFFFFFFFFFFFFFFFFFFFFFFFFFFFFFF AND PUSH20 0xFFFFFFFFFFFFFFFFFFFFFFFFFFFFFFFFFFFFFFFF AND DUP2 MSTORE PUSH1 0x20 ADD SWAP1 DUP2 MSTORE PUSH1 0x20 ADD PUSH1 0x0 KECCAK256 SWAP1 POP DUP2 PUSH1 0x4 ADD SLOAD DUP2 PUSH1 0x3 ADD PUSH1 0x0 DUP3 DUP3 SLOAD PUSH2 0x1432 SWAP2 SWAP1 PUSH2 0x210D JUMP JUMPDEST SWAP3 POP POP DUP2 SWAP1 SSTORE POP PUSH1 0x1 DUP2 PUSH1 0x4 ADD PUSH1 0x0 DUP3 DUP3 SLOAD PUSH2 0x144E SWAP2 SWAP1 PUSH2 0x210D JUMP JUMPDEST SWAP3 POP POP DUP2 SWAP1 SSTORE POP DUP2 PUSH1 0x4 ADD SLOAD PUSH1 0x2 PUSH1 0x0 DUP5 PUSH1 0x3 ADD PUSH1 0x0 SWAP1 SLOAD SWAP1 PUSH2 0x100 EXP SWAP1 DIV PUSH20 0xFFFFFFFFFFFFFFFFFFFFFFFFFFFFFFFFFFFFFFFF AND PUSH20 0xFFFFFFFFFFFFFFFFFFFFFFFFFFFFFFFFFFFFFFFF AND PUSH20 0xFFFFFFFFFFFFFFFFFFFFFFFFFFFFFFFFFFFFFFFF AND DUP2 MSTORE PUSH1 0x20 ADD SWAP1 DUP2 MSTORE PUSH1 0x20 ADD PUSH1 0x0 KECCAK256 PUSH1 0x0 DUP3 DUP3 SLOAD PUSH2 0x14CC SWAP2 SWAP1 PUSH2 0x210D JUMP JUMPDEST SWAP3 POP POP DUP2 SWAP1 SSTORE POP PUSH1 0x1 PUSH1 0x3 PUSH1 0x0 DUP5 PUSH1 0x3 ADD PUSH1 0x0 SWAP1 SLOAD SWAP1 PUSH2 0x100 EXP SWAP1 DIV PUSH20 0xFFFFFFFFFFFFFFFFFFFFFFFFFFFFFFFFFFFFFFFF AND PUSH20 0xFFFFFFFFFFFFFFFFFFFFFFFFFFFFFFFFFFFFFFFF AND PUSH20 0xFFFFFFFFFFFFFFFFFFFFFFFFFFFFFFFFFFFFFFFF AND DUP2 MSTORE PUSH1 0x20 ADD SWAP1 DUP2 MSTORE PUSH1 0x20 ADD PUSH1 0x0 KECCAK256 PUSH1 0x0 DUP3 DUP3 SLOAD PUSH2 0x1547 SWAP2 SWAP1 PUSH2 0x210D JUMP JUMPDEST SWAP3 POP POP DUP2 SWAP1 SSTORE POP PUSH1 0x0 DUP2 PUSH1 0x0 ADD PUSH1 0x0 SWAP1 SLOAD SWAP1 PUSH2 0x100 EXP SWAP1 DIV PUSH20 0xFFFFFFFFFFFFFFFFFFFFFFFFFFFFFFFFFFFFFFFF AND PUSH20 0xFFFFFFFFFFFFFFFFFFFFFFFFFFFFFFFFFFFFFFFF AND DUP4 PUSH1 0x4 ADD SLOAD PUSH1 0x40 MLOAD PUSH2 0x159C SWAP1 PUSH2 0x1DE9 JUMP JUMPDEST PUSH1 0x0 PUSH1 0x40 MLOAD DUP1 DUP4 SUB DUP2 DUP6 DUP8 GAS CALL SWAP3 POP POP POP RETURNDATASIZE DUP1 PUSH1 0x0 DUP2 EQ PUSH2 0x15D9 JUMPI PUSH1 0x40 MLOAD SWAP2 POP PUSH1 0x1F NOT PUSH1 0x3F RETURNDATASIZE ADD AND DUP3 ADD PUSH1 0x40 MSTORE RETURNDATASIZE DUP3 MSTORE RETURNDATASIZE PUSH1 0x0 PUSH1 0x20 DUP5 ADD RETURNDATACOPY PUSH2 0x15DE JUMP JUMPDEST PUSH1 0x60 SWAP2 POP JUMPDEST POP POP SWAP1 POP DUP1 PUSH2 0x1622 JUMPI PUSH1 0x40 MLOAD PUSH32 0x8C379A000000000000000000000000000000000000000000000000000000000 DUP2 MSTORE PUSH1 0x4 ADD PUSH2 0x1619 SWAP1 PUSH2 0x1F62 JUMP JUMPDEST PUSH1 0x40 MLOAD DUP1 SWAP2 SUB SWAP1 REVERT JUMPDEST POP POP JUMPDEST DUP1 PUSH1 0x3 ADD PUSH1 0x0 SWAP1 SLOAD SWAP1 PUSH2 0x100 EXP SWAP1 DIV PUSH20 0xFFFFFFFFFFFFFFFFFFFFFFFFFFFFFFFFFFFFFFFF AND PUSH20 0xFFFFFFFFFFFFFFFFFFFFFFFFFFFFFFFFFFFFFFFF AND DUP3 PUSH32 0x4D9113A1377D665EAA1F9168A9C9080F2E488CB820B10149DE3D6D2E0F2780C7 DUP4 PUSH1 0x4 ADD SLOAD PUSH1 0x40 MLOAD PUSH2 0x1694 SWAP2 SWAP1 PUSH2 0x20A2 JUMP JUMPDEST PUSH1 0x40 MLOAD DUP1 SWAP2 SUB SWAP1 LOG3 POP POP JUMP JUMPDEST PUSH1 0x0 DUP1 PUSH1 0x0 DUP1 PUSH1 0x1 DUP1 SLOAD SWAP1 POP DUP6 LT PUSH2 0x16ED JUMPI PUSH1 0x40 MLOAD PUSH32 0x8C379A000000000000000000000000000000000000000000000000000000000 DUP2 MSTORE PUSH1 0x4 ADD PUSH2 0x16E4 SWAP1 PUSH2 0x2082 JUMP JUMPDEST PUSH1 0x40 MLOAD DUP1 SWAP2 SUB SWAP1 REVERT JUMPDEST PUSH1 0x0 PUSH1 0x1 DUP7 DUP2 SLOAD DUP2 LT PUSH2 0x1729 JUMPI PUSH32 0x4E487B7100000000000000000000000000000000000000000000000000000000 PUSH1 0x0 MSTORE PUSH1 0x32 PUSH1 0x4 MSTORE PUSH1 0x24 PUSH1 0x0 REVERT JUMPDEST SWAP1 PUSH1 0x0 MSTORE PUSH1 0x20 PUSH1 0x0 KECCAK256 SWAP1 PUSH1 0x4 MUL ADD SWAP1 POP DUP1 PUSH1 0x0 ADD PUSH1 0x0 SWAP1 SLOAD SWAP1 PUSH2 0x100 EXP SWAP1 DIV PUSH20 0xFFFFFFFFFFFFFFFFFFFFFFFFFFFFFFFFFFFFFFFF AND DUP2 PUSH1 0x1 ADD PUSH1 0x0 SWAP1 SLOAD SWAP1 PUSH2 0x100 EXP SWAP1 DIV PUSH20 0xFFFFFFFFFFFFFFFFFFFFFFFFFFFFFFFFFFFFFFFF AND DUP3 PUSH1 0x2 ADD SLOAD DUP4 PUSH1 0x3 ADD SLOAD SWAP5 POP SWAP5 POP SWAP5 POP SWAP5 POP POP SWAP2 SWAP4 POP SWAP2 SWAP4 JUMP JUMPDEST PUSH1 0x1 DUP2 DUP2 SLOAD DUP2 LT PUSH2 0x17AD JUMPI PUSH1 0x0 DUP1 REVERT JUMPDEST SWAP1 PUSH1 0x0 MSTORE PUSH1 0x20 PUSH1 0x0 KECCAK256 SWAP1 PUSH1 0x4 MUL ADD PUSH1 0x0 SWAP2 POP SWAP1 POP DUP1 PUSH1 0x0 ADD PUSH1 0x0 SWAP1 SLOAD SWAP1 PUSH2 0x100 EXP SWAP1 DIV PUSH20 0xFFFFFFFFFFFFFFFFFFFFFFFFFFFFFFFFFFFFFFFF AND SWAP1 DUP1 PUSH1 0x1 ADD PUSH1 0x0 SWAP1 SLOAD SWAP1 PUSH2 0x100 EXP SWAP1 DIV PUSH20 0xFFFFFFFFFFFFFFFFFFFFFFFFFFFFFFFFFFFFFFFF AND SWAP1 DUP1 PUSH1 0x2 ADD SLOAD SWAP1 DUP1 PUSH1 0x3 ADD SLOAD SWAP1 POP DUP5 JUMP JUMPDEST DUP3 DUP1 SLOAD PUSH2 0x1829 SWAP1 PUSH2 0x21FF JUMP JUMPDEST SWAP1 PUSH1 0x0 MSTORE PUSH1 0x20 PUSH1 0x0 KECCAK256 SWAP1 PUSH1 0x1F ADD PUSH1 0x20 SWAP1 DIV DUP2 ADD SWAP3 DUP3 PUSH2 0x184B JUMPI PUSH1 0x0 DUP6 SSTORE PUSH2 0x1892 JUMP JUMPDEST DUP3 PUSH1 0x1F LT PUSH2 0x1864 JUMPI DUP1 MLOAD PUSH1 0xFF NOT AND DUP4 DUP1 ADD OR DUP6 SSTORE PUSH2 0x1892 JUMP JUMPDEST DUP3 DUP1 ADD PUSH1 0x1 ADD DUP6 SSTORE DUP3 ISZERO PUSH2 0x1892 JUMPI SWAP2 DUP3 ADD JUMPDEST DUP3 DUP2 GT ISZERO PUSH2 0x1891 JUMPI DUP3 MLOAD DUP3 SSTORE SWAP2 PUSH1 0x20 ADD SWAP2 SWAP1 PUSH1 0x1 ADD SWAP1 PUSH2 0x1876 JUMP JUMPDEST JUMPDEST POP SWAP1 POP PUSH2 0x189F SWAP2 SWAP1 PUSH2 0x18A3 JUMP JUMPDEST POP SWAP1 JUMP JUMPDEST JUMPDEST DUP1 DUP3 GT ISZERO PUSH2 0x18BC JUMPI PUSH1 0x0 DUP2 PUSH1 0x0 SWAP1 SSTORE POP PUSH1 0x1 ADD PUSH2 0x18A4 JUMP JUMPDEST POP SWAP1 JUMP JUMPDEST PUSH1 0x0 DUP2 CALLDATALOAD SWAP1 POP PUSH2 0x18CF DUP2 PUSH2 0x22E9 JUMP JUMPDEST SWAP3 SWAP2 POP POP JUMP JUMPDEST PUSH1 0x0 DUP1 DUP4 PUSH1 0x1F DUP5 ADD SLT PUSH2 0x18E7 JUMPI PUSH1 0x0 DUP1 REVERT JUMPDEST DUP3 CALLDATALOAD SWAP1 POP PUSH8 0xFFFFFFFFFFFFFFFF DUP2 GT ISZERO PUSH2 0x1900 JUMPI PUSH1 0x0 DUP1 REVERT JUMPDEST PUSH1 0x20 DUP4 ADD SWAP2 POP DUP4 PUSH1 0x1 DUP3 MUL DUP4 ADD GT ISZERO PUSH2 0x1918 JUMPI PUSH1 0x0 DUP1 REVERT JUMPDEST SWAP3 POP SWAP3 SWAP1 POP JUMP JUMPDEST PUSH1 0x0 DUP2 CALLDATALOAD SWAP1 POP PUSH2 0x192E DUP2 PUSH2 0x2300 JUMP JUMPDEST SWAP3 SWAP2 POP POP JUMP JUMPDEST PUSH1 0x0 PUSH1 0x20 DUP3 DUP5 SUB SLT ISZERO PUSH2 0x1946 JUMPI PUSH1 0x0 DUP1 REVERT JUMPDEST PUSH1 0x0 PUSH2 0x1954 DUP5 DUP3 DUP6 ADD PUSH2 0x18C0 JUMP JUMPDEST SWAP2 POP POP SWAP3 SWAP2 POP POP JUMP JUMPDEST PUSH1 0x0 DUP1 PUSH1 0x20 DUP4 DUP6 SUB SLT ISZERO PUSH2 0x1970 JUMPI PUSH1 0x0 DUP1 REVERT JUMPDEST PUSH1 0x0 DUP4 ADD CALLDATALOAD PUSH8 0xFFFFFFFFFFFFFFFF DUP2 GT ISZERO PUSH2 0x198A JUMPI PUSH1 0x0 DUP1 REVERT JUMPDEST PUSH2 0x1996 DUP6 DUP3 DUP7 ADD PUSH2 0x18D5 JUMP JUMPDEST SWAP3 POP SWAP3 POP POP SWAP3 POP SWAP3 SWAP1 POP JUMP JUMPDEST PUSH1 0x0 PUSH1 0x20 DUP3 DUP5 SUB SLT ISZERO PUSH2 0x19B4 JUMPI PUSH1 0x0 DUP1 REVERT JUMPDEST PUSH1 0x0 PUSH2 0x19C2 DUP5 DUP3 DUP6 ADD PUSH2 0x191F JUMP JUMPDEST SWAP2 POP POP SWAP3 SWAP2 POP POP JUMP JUMPDEST PUSH1 0x0 DUP1 PUSH1 0x40 DUP4 DUP6 SUB SLT ISZERO PUSH2 0x19DE JUMPI PUSH1 0x0 DUP1 REVERT JUMPDEST PUSH1 0x0 PUSH2 0x19EC DUP6 DUP3 DUP7 ADD PUSH2 0x191F JUMP JUMPDEST SWAP3 POP POP PUSH1 0x20 PUSH2 0x19FD DUP6 DUP3 DUP7 ADD PUSH2 0x191F JUMP JUMPDEST SWAP2 POP POP SWAP3 POP SWAP3 SWAP1 POP JUMP JUMPDEST PUSH2 0x1A10 DUP2 PUSH2 0x2175 JUMP JUMPDEST DUP3 MSTORE POP POP JUMP JUMPDEST PUSH2 0x1A1F DUP2 PUSH2 0x2163 JUMP JUMPDEST DUP3 MSTORE POP POP JUMP JUMPDEST PUSH2 0x1A2E DUP2 PUSH2 0x2187 JUMP JUMPDEST DUP3 MSTORE POP POP JUMP JUMPDEST PUSH1 0x0 PUSH2 0x1A40 DUP4 DUP6 PUSH2 0x20FC JUMP JUMPDEST SWAP4 POP PUSH2 0x1A4D DUP4 DUP6 DUP5 PUSH2 0x21BD JUMP JUMPDEST PUSH2 0x1A56 DUP4 PUSH2 0x22D8 JUMP JUMPDEST DUP5 ADD SWAP1 POP SWAP4 SWAP3 POP POP POP JUMP JUMPDEST PUSH1 0x0 PUSH2 0x1A6C DUP3 PUSH2 0x20E6 JUMP JUMPDEST PUSH2 0x1A76 DUP2 DUP6 PUSH2 0x20FC JUMP JUMPDEST SWAP4 POP PUSH2 0x1A86 DUP2 DUP6 PUSH1 0x20 DUP7 ADD PUSH2 0x21CC JUMP JUMPDEST PUSH2 0x1A8F DUP2 PUSH2 0x22D8 JUMP JUMPDEST DUP5 ADD SWAP2 POP POP SWAP3 SWAP2 POP POP JUMP JUMPDEST PUSH1 0x0 PUSH2 0x1AA7 PUSH1 0x22 DUP4 PUSH2 0x20FC JUMP JUMPDEST SWAP2 POP PUSH32 0x446F6E6174696F6E206D7573742062652067726561746572207468616E207A65 PUSH1 0x0 DUP4 ADD MSTORE PUSH32 0x726F000000000000000000000000000000000000000000000000000000000000 PUSH1 0x20 DUP4 ADD MSTORE PUSH1 0x40 DUP3 ADD SWAP1 POP SWAP2 SWAP1 POP JUMP JUMPDEST PUSH1 0x0 PUSH2 0x1B0D PUSH1 0xB DUP4 PUSH2 0x20FC JUMP JUMPDEST SWAP2 POP PUSH32 0x42696420746F6F206C6F77000000000000000000000000000000000000000000 PUSH1 0x0 DUP4 ADD MSTORE PUSH1 0x20 DUP3 ADD SWAP1 POP SWAP2 SWAP1 POP JUMP JUMPDEST PUSH1 0x0 PUSH2 0x1B4D PUSH1 0xF DUP4 PUSH2 0x20FC JUMP JUMPDEST SWAP2 POP PUSH32 0x5472616E73666572206661696C65640000000000000000000000000000000000 PUSH1 0x0 DUP4 ADD MSTORE PUSH1 0x20 DUP3 ADD SWAP1 POP SWAP2 SWAP1 POP JUMP JUMPDEST PUSH1 0x0 PUSH2 0x1B8D PUSH1 0x16 DUP4 PUSH2 0x20FC JUMP JUMPDEST SWAP2 POP PUSH32 0x43686172697479206E6F74207265676973746572656400000000000000000000 PUSH1 0x0 DUP4 ADD MSTORE PUSH1 0x20 DUP3 ADD SWAP1 POP SWAP2 SWAP1 POP JUMP JUMPDEST PUSH1 0x0 PUSH2 0x1BCD PUSH1 0x12 DUP4 PUSH2 0x20FC JUMP JUMPDEST SWAP2 POP PUSH32 0x41756374696F6E206E6F74206163746976650000000000000000000000000000 PUSH1 0x0 DUP4 ADD MSTORE PUSH1 0x20 DUP3 ADD SWAP1 POP SWAP2 SWAP1 POP JUMP JUMPDEST PUSH1 0x0 PUSH2 0x1C0D PUSH1 0x11 DUP4 PUSH2 0x20FC JUMP JUMPDEST SWAP2 POP PUSH32 0x41756374696F6E206E6F7420656E646564000000000000000000000000000000 PUSH1 0x0 DUP4 ADD MSTORE PUSH1 0x20 DUP3 ADD SWAP1 POP SWAP2 SWAP1 POP JUMP JUMPDEST PUSH1 0x0 PUSH2 0x1C4D PUSH1 0x1A DUP4 PUSH2 0x20FC JUMP JUMPDEST SWAP2 POP PUSH32 0x4368617269747920616C72656164792072656769737465726564000000000000 PUSH1 0x0 DUP4 ADD MSTORE PUSH1 0x20 DUP3 ADD SWAP1 POP SWAP2 SWAP1 POP JUMP JUMPDEST PUSH1 0x0 PUSH2 0x1C8D PUSH1 0x13 DUP4 PUSH2 0x20FC JUMP JUMPDEST SWAP2 POP PUSH32 0x496E76616C69642074696D652077696E646F7700000000000000000000000000 PUSH1 0x0 DUP4 ADD MSTORE PUSH1 0x20 DUP3 ADD SWAP1 POP SWAP2 SWAP1 POP JUMP JUMPDEST PUSH1 0x0 PUSH2 0x1CCD PUSH1 0xD DUP4 PUSH2 0x20FC JUMP JUMPDEST SWAP2 POP PUSH32 0x526566756E64206661696C656400000000000000000000000000000000000000 PUSH1 0x0 DUP4 ADD MSTORE PUSH1 0x20 DUP3 ADD SWAP1 POP SWAP2 SWAP1 POP JUMP JUMPDEST PUSH1 0x0 PUSH2 0x1D0D PUSH1 0x15 DUP4 PUSH2 0x20FC JUMP JUMPDEST SWAP2 POP PUSH32 0x456E64206D75737420626520696E206675747572650000000000000000000000 PUSH1 0x0 DUP4 ADD MSTORE PUSH1 0x20 DUP3 ADD SWAP1 POP SWAP2 SWAP1 POP JUMP JUMPDEST PUSH1 0x0 PUSH2 0x1D4D PUSH1 0x0 DUP4 PUSH2 0x20F1 JUMP JUMPDEST SWAP2 POP PUSH1 0x0 DUP3 ADD SWAP1 POP SWAP2 SWAP1 POP JUMP JUMPDEST PUSH1 0x0 PUSH2 0x1D67 PUSH1 0x11 DUP4 PUSH2 0x20FC JUMP JUMPDEST SWAP2 POP PUSH32 0x416C72656164792066696E616C697A6564000000000000000000000000000000 PUSH1 0x0 DUP4 ADD MSTORE PUSH1 0x20 DUP3 ADD SWAP1 POP SWAP2 SWAP1 POP JUMP JUMPDEST PUSH1 0x0 PUSH2 0x1DA7 PUSH1 0x13 DUP4 PUSH2 0x20FC JUMP JUMPDEST SWAP2 POP PUSH32 0x496E646578206F7574206F6620626F756E647300000000000000000000000000 PUSH1 0x0 DUP4 ADD MSTORE PUSH1 0x20 DUP3 ADD SWAP1 POP SWAP2 SWAP1 POP JUMP JUMPDEST PUSH2 0x1DE3 DUP2 PUSH2 0x21B3 JUMP JUMPDEST DUP3 MSTORE POP POP JUMP JUMPDEST PUSH1 0x0 PUSH2 0x1DF4 DUP3 PUSH2 0x1D40 JUMP JUMPDEST SWAP2 POP DUP2 SWAP1 POP SWAP2 SWAP1 POP JUMP JUMPDEST PUSH1 0x0 PUSH1 0xA0 DUP3 ADD SWAP1 POP PUSH2 0x1E13 PUSH1 0x0 DUP4 ADD DUP9 PUSH2 0x1A07 JUMP JUMPDEST DUP2 DUP2 SUB PUSH1 0x20 DUP4 ADD MSTORE PUSH2 0x1E25 DUP2 DUP8 PUSH2 0x1A61 JUMP JUMPDEST SWAP1 POP PUSH2 0x1E34 PUSH1 0x40 DUP4 ADD DUP7 PUSH2 0x1A25 JUMP JUMPDEST PUSH2 0x1E41 PUSH1 0x60 DUP4 ADD DUP6 PUSH2 0x1DDA JUMP JUMPDEST PUSH2 0x1E4E PUSH1 0x80 DUP4 ADD DUP5 PUSH2 0x1DDA JUMP JUMPDEST SWAP7 SWAP6 POP POP POP POP POP POP JUMP JUMPDEST PUSH1 0x0 PUSH1 0x80 DUP3 ADD SWAP1 POP PUSH2 0x1E6D PUSH1 0x0 DUP4 ADD DUP8 PUSH2 0x1A16 JUMP JUMPDEST PUSH2 0x1E7A PUSH1 0x20 DUP4 ADD DUP7 PUSH2 0x1A16 JUMP JUMPDEST PUSH2 0x1E87 PUSH1 0x40 DUP4 ADD DUP6 PUSH2 0x1DDA JUMP JUMPDEST PUSH2 0x1E94 PUSH1 0x60 DUP4 ADD DUP5 PUSH2 0x1DDA JUMP JUMPDEST SWAP6 SWAP5 POP POP POP POP POP JUMP JUMPDEST PUSH1 0x0 PUSH1 0xC0 DUP3 ADD SWAP1 POP PUSH2 0x1EB2 PUSH1 0x0 DUP4 ADD DUP10 PUSH2 0x1A16 JUMP JUMPDEST PUSH2 0x1EBF PUSH1 0x20 DUP4 ADD DUP9 PUSH2 0x1DDA JUMP JUMPDEST PUSH2 0x1ECC PUSH1 0x40 DUP4 ADD DUP8 PUSH2 0x1DDA JUMP JUMPDEST PUSH2 0x1ED9 PUSH1 0x60 DUP4 ADD DUP7 PUSH2 0x1A16 JUMP JUMPDEST PUSH2 0x1EE6 PUSH1 0x80 DUP4 ADD DUP6 PUSH2 0x1DDA JUMP JUMPDEST PUSH2 0x1EF3 PUSH1 0xA0 DUP4 ADD DUP5 PUSH2 0x1A25 JUMP JUMPDEST SWAP8 SWAP7 POP POP POP POP POP POP POP JUMP JUMPDEST PUSH1 0x0 PUSH1 0x20 DUP3 ADD SWAP1 POP DUP2 DUP2 SUB PUSH1 0x0 DUP4 ADD MSTORE PUSH2 0x1F19 DUP2 DUP5 DUP7 PUSH2 0x1A34 JUMP JUMPDEST SWAP1 POP SWAP4 SWAP3 POP POP POP JUMP JUMPDEST PUSH1 0x0 PUSH1 0x20 DUP3 ADD SWAP1 POP DUP2 DUP2 SUB PUSH1 0x0 DUP4 ADD MSTORE PUSH2 0x1F3B DUP2 PUSH2 0x1A9A JUMP JUMPDEST SWAP1 POP SWAP2 SWAP1 POP JUMP JUMPDEST PUSH1 0x0 PUSH1 0x20 DUP3 ADD SWAP1 POP DUP2 DUP2 SUB PUSH1 0x0 DUP4 ADD MSTORE PUSH2 0x1F5B DUP2 PUSH2 0x1B00 JUMP JUMPDEST SWAP1 POP SWAP2 SWAP1 POP JUMP JUMPDEST PUSH1 0x0 PUSH1 0x20 DUP3 ADD SWAP1 POP DUP2 DUP2 SUB PUSH1 0x0 DUP4 ADD MSTORE PUSH2 0x1F7B DUP2 PUSH2 0x1B40 JUMP JUMPDEST SWAP1 POP SWAP2 SWAP1 POP JUMP JUMPDEST PUSH1 0x0 PUSH1 0x20 DUP3 ADD SWAP1 POP DUP2 DUP2 SUB PUSH1 0x0 DUP4 ADD MSTORE PUSH2 0x1F9B DUP2 PUSH2 0x1B80 JUMP JUMPDEST SWAP1 POP SWAP2 SWAP1 POP JUMP JUMPDEST PUSH1 0x0 PUSH1 0x20 DUP3 ADD SWAP1 POP DUP2 DUP2 SUB PUSH1 0x0 DUP4 ADD MSTORE PUSH2 0x1FBB DUP2 PUSH2 0x1BC0 JUMP JUMPDEST SWAP1 POP SWAP2 SWAP1 POP JUMP JUMPDEST PUSH1 0x0 PUSH1 0x20 DUP3 ADD SWAP1 POP DUP2 DUP2 SUB PUSH1 0x0 DUP4 ADD MSTORE PUSH2 0x1FDB DUP2 PUSH2 0x1C00 JUMP JUMPDEST SWAP1 POP SWAP2 SWAP1 POP JUMP JUMPDEST PUSH1 0x0 PUSH1 0x20 DUP3 ADD SWAP1 POP DUP2 DUP2 SUB PUSH1 0x0 DUP4 ADD MSTORE PUSH2 0x1FFB DUP2 PUSH2 0x1C40 JUMP JUMPDEST SWAP1 POP SWAP2 SWAP1 POP JUMP JUMPDEST PUSH1 0x0 PUSH1 0x20 DUP3 ADD SWAP1 POP DUP2 DUP2 SUB PUSH1 0x0 DUP4 ADD MSTORE PUSH2 0x201B DUP2 PUSH2 0x1C80 JUMP JUMPDEST SWAP1 POP SWAP2 SWAP1 POP JUMP JUMPDEST PUSH1 0x0 PUSH1 0x20 DUP3 ADD SWAP1 POP DUP2 DUP2 SUB PUSH1 0x0 DUP4 ADD MSTORE PUSH2 0x203B DUP2 PUSH2 0x1CC0 JUMP JUMPDEST SWAP1 POP SWAP2 SWAP1 POP JUMP JUMPDEST PUSH1 0x0 PUSH1 0x20 DUP3 ADD SWAP1 POP DUP2 DUP2 SUB PUSH1 0x0 DUP4 ADD MSTORE PUSH2 0x205B DUP2 PUSH2 0x1D00 JUMP JUMPDEST SWAP1 POP SWAP2 SWAP1 POP JUMP JUMPDEST PUSH1 0x0 PUSH1 0x20 DUP3 ADD SWAP1 POP DUP2 DUP2 SUB PUSH1 0x0 DUP4 ADD MSTORE PUSH2 0x207B DUP2 PUSH2 0x1D5A JUMP JUMPDEST SWAP1 POP SWAP2 SWAP1 POP JUMP JUMPDEST PUSH1 0x0 PUSH1 0x20 DUP3 ADD SWAP1 POP DUP2 DUP2 SUB PUSH1 0x0 DUP4 ADD MSTORE PUSH2 0x209B DUP2 PUSH2 0x1D9A JUMP JUMPDEST SWAP1 POP SWAP2 SWAP1 POP JUMP JUMPDEST PUSH1 0x0 PUSH1 0x20 DUP3 ADD SWAP1 POP PUSH2 0x20B7 PUSH1 0x0 DUP4 ADD DUP5 PUSH2 0x1DDA JUMP JUMPDEST SWAP3 SWAP2 POP POP JUMP JUMPDEST PUSH1 0x0 PUSH1 0x40 DUP3 ADD SWAP1 POP PUSH2 0x20D2 PUSH1 0x0 DUP4 ADD DUP6 PUSH2 0x1DDA JUMP JUMPDEST PUSH2 0x20DF PUSH1 0x20 DUP4 ADD DUP5 PUSH2 0x1DDA JUMP JUMPDEST SWAP4 SWAP3 POP POP POP JUMP JUMPDEST PUSH1 0x0 DUP2 MLOAD SWAP1 POP SWAP2 SWAP1 POP JUMP JUMPDEST PUSH1 0x0 DUP2 SWAP1 POP SWAP3 SWAP2 POP POP JUMP JUMPDEST PUSH1 0x0 DUP3 DUP3 MSTORE PUSH1 0x20 DUP3 ADD SWAP1 POP SWAP3 SWAP2 POP POP JUMP JUMPDEST PUSH1 0x0 PUSH2 0x2118 DUP3 PUSH2 0x21B3 JUMP JUMPDEST SWAP2 POP PUSH2 0x2123 DUP4 PUSH2 0x21B3 JUMP JUMPDEST SWAP3 POP DUP3 PUSH32 0xFFFFFFFFFFFFFFFFFFFFFFFFFFFFFFFFFFFFFFFFFFFFFFFFFFFFFFFFFFFFFFFF SUB DUP3 GT ISZERO PUSH2 0x2158 JUMPI PUSH2 0x2157 PUSH2 0x227A JUMP JUMPDEST JUMPDEST DUP3 DUP3 ADD SWAP1 POP SWAP3 SWAP2 POP POP JUMP JUMPDEST PUSH1 0x0 PUSH2 0x216E DUP3 PUSH2 0x2193 JUMP JUMPDEST SWAP1 POP SWAP2 SWAP1 POP JUMP JUMPDEST PUSH1 0x0 PUSH2 0x2180 DUP3 PUSH2 0x2193 JUMP JUMPDEST SWAP1 POP SWAP2 SWAP1 POP JUMP JUMPDEST PUSH1 0x0 DUP2 ISZERO ISZERO SWAP1 POP SWAP2 SWAP1 POP JUMP JUMPDEST PUSH1 0x0 PUSH20 0xFFFFFFFFFFFFFFFFFFFFFFFFFFFFFFFFFFFFFFFF DUP3 AND SWAP1 POP SWAP2 SWAP1 POP JUMP JUMPDEST PUSH1 0x0 DUP2 SWAP1 POP SWAP2 SWAP1 POP JUMP JUMPDEST DUP3 DUP2 DUP4 CALLDATACOPY PUSH1 0x0 DUP4 DUP4 ADD MSTORE POP POP POP JUMP JUMPDEST PUSH1 0x0 JUMPDEST DUP4 DUP2 LT ISZERO PUSH2 0x21EA JUMPI DUP1 DUP3 ADD MLOAD DUP2 DUP5 ADD MSTORE PUSH1 0x20 DUP2 ADD SWAP1 POP PUSH2 0x21CF JUMP JUMPDEST DUP4 DUP2 GT ISZERO PUSH2 0x21F9 JUMPI PUSH1 0x0 DUP5 DUP5 ADD MSTORE JUMPDEST POP POP POP POP JUMP JUMPDEST PUSH1 0x0 PUSH1 0x2 DUP3 DIV SWAP1 POP PUSH1 0x1 DUP3 AND DUP1 PUSH2 0x2217 JUMPI PUSH1 0x7F DUP3 AND SWAP2 POP JUMPDEST PUSH1 0x20 DUP3 LT DUP2 EQ ISZERO PUSH2 0x222B JUMPI PUSH2 0x222A PUSH2 0x22A9 JUMP JUMPDEST JUMPDEST POP SWAP2 SWAP1 POP JUMP JUMPDEST PUSH1 0x0 PUSH2 0x223C DUP3 PUSH2 0x21B3 JUMP JUMPDEST SWAP2 POP PUSH32 0xFFFFFFFFFFFFFFFFFFFFFFFFFFFFFFFFFFFFFFFFFFFFFFFFFFFFFFFFFFFFFFFF DUP3 EQ ISZERO PUSH2 0x226F JUMPI PUSH2 0x226E PUSH2 0x227A JUMP JUMPDEST JUMPDEST PUSH1 0x1 DUP3 ADD SWAP1 POP SWAP2 SWAP1 POP JUMP JUMPDEST PUSH32 0x4E487B7100000000000000000000000000000000000000000000000000000000 PUSH1 0x0 MSTORE PUSH1 0x11 PUSH1 0x4 MSTORE PUSH1 0x24 PUSH1 0x0 REVERT JUMPDEST PUSH32 0x4E487B7100000000000000000000000000000000000000000000000000000000 PUSH1 0x0 MSTORE PUSH1 0x22 PUSH1 0x4 MSTORE PUSH1 0x24 PUSH1 0x0 REVERT JUMPDEST PUSH1 0x0 PUSH1 0x1F NOT PUSH1 0x1F DUP4 ADD AND SWAP1 POP SWAP2 SWAP1 POP JUMP JUMPDEST PUSH2 0x22F2 DUP2 PUSH2 0x2163 JUMP JUMPDEST DUP2 EQ PUSH2 0x22FD JUMPI PUSH1 0x0 DUP1 REVERT JUMPDEST POP JUMP JUMPDEST PUSH2 0x2309 DUP2 PUSH2 0x21B3 JUMP JUMPDEST DUP2 EQ PUSH2 0x2314 JUMPI PUSH1 0x0 DUP1 REVERT JUMPDEST POP JUMP INVALID LOG2 PUSH5 0x6970667358 0x22 SLT KECCAK256 0x5F SWAP16 SGT SLT CREATE 0xEC 0xA5 STOP 0xC0 PUSH14 0xECEBC43CF59C99C41C3C211659EF 0x4E JUMPI 0xDE SIGNEXTEND PUSH12 0x43C6A64736F6C6343000800 STOP CALLER "
				},
				"gasEstimates": {
					"creation": {
						"codeDepositCost": "1807400",
						"executionCost": "1905",
						"totalCost": "1809305"
					},
					"external": {
						"auctionCount()": "1152",
						"auctions(uint256)": "infinite",
						"bid(uint256)": "infinite",
						"charities(address)": "infinite",
						"createAuction(uint256,uint256)": "infinite",
						"donate(address)": "infinite",
						"donations(uint256)": "infinite",
						"donorDonationCount(address)": "1603",
						"donorTotalDonated(address)": "1581",
						"finalizeAuction(uint256)": "infinite",
						"getCharityMetrics(address)": "infinite",
						"getDonation(uint256)": "infinite",
						"getDonationsCount()": "1167",
						"getDonorMetrics(address)": "infinite",
						"registerCharity(string)": "infinite"
					}
				},
				"methodIdentifiers": {
					"auctionCount()": "2ad71573",
					"auctions(uint256)": "571a26a0",
					"bid(uint256)": "454a2ab3",
					"charities(address)": "2478239a",
					"createAuction(uint256,uint256)": "0121683f",
					"donate(address)": "00362a95",
					"donations(uint256)": "f8626af8",
					"donorDonationCount(address)": "c6121902",
					"donorTotalDonated(address)": "53ba78d9",
					"finalizeAuction(uint256)": "e8083863",
					"getCharityMetrics(address)": "a5b7b135",
					"getDonation(uint256)": "ef07a81f",
					"getDonationsCount()": "c93527d8",
					"getDonorMetrics(address)": "5894d2a3",
					"registerCharity(string)": "99b9b463"
				}
			},
			"storageLayout": {
				"storage": [
					{
						"astId": 40,
						"contract": "contracts/DecentralizedCharity.sol:DecentralizedCharity",
						"label": "charities",
						"offset": 0,
						"slot": "0",
						"type": "t_mapping(t_address,t_struct(Charity)13_storage)"
					},
					{
						"astId": 44,
						"contract": "contracts/DecentralizedCharity.sol:DecentralizedCharity",
						"label": "donations",
						"offset": 0,
						"slot": "1",
						"type": "t_array(t_struct(Donation)22_storage)dyn_storage"
					},
					{
						"astId": 48,
						"contract": "contracts/DecentralizedCharity.sol:DecentralizedCharity",
						"label": "donorTotalDonated",
						"offset": 0,
						"slot": "2",
						"type": "t_mapping(t_address,t_uint256)"
					},
					{
						"astId": 52,
						"contract": "contracts/DecentralizedCharity.sol:DecentralizedCharity",
						"label": "donorDonationCount",
						"offset": 0,
						"slot": "3",
						"type": "t_mapping(t_address,t_uint256)"
					},
					{
						"astId": 57,
						"contract": "contracts/DecentralizedCharity.sol:DecentralizedCharity",
						"label": "auctions",
						"offset": 0,
						"slot": "4",
						"type": "t_mapping(t_uint256,t_struct(Auction)35_storage)"
					},
					{
						"astId": 59,
						"contract": "contracts/DecentralizedCharity.sol:DecentralizedCharity",
						"label": "auctionCount",
						"offset": 0,
						"slot": "5",
						"type": "t_uint256"
					}
				],
				"types": {
					"t_address": {
						"encoding": "inplace",
						"label": "address",
						"numberOfBytes": "20"
					},
					"t_address_payable": {
						"encoding": "inplace",
						"label": "address payable",
						"numberOfBytes": "20"
					},
					"t_array(t_struct(Donation)22_storage)dyn_storage": {
						"base": "t_struct(Donation)22_storage",
						"encoding": "dynamic_array",
						"label": "struct DecentralizedCharity.Donation[]",
						"numberOfBytes": "32"
					},
					"t_bool": {
						"encoding": "inplace",
						"label": "bool",
						"numberOfBytes": "1"
					},
					"t_mapping(t_address,t_struct(Charity)13_storage)": {
						"encoding": "mapping",
						"key": "t_address",
						"label": "mapping(address => struct DecentralizedCharity.Charity)",
						"numberOfBytes": "32",
						"value": "t_struct(Charity)13_storage"
					},
					"t_mapping(t_address,t_uint256)": {
						"encoding": "mapping",
						"key": "t_address",
						"label": "mapping(address => uint256)",
						"numberOfBytes": "32",
						"value": "t_uint256"
					},
					"t_mapping(t_uint256,t_struct(Auction)35_storage)": {
						"encoding": "mapping",
						"key": "t_uint256",
						"label": "mapping(uint256 => struct DecentralizedCharity.Auction)",
						"numberOfBytes": "32",
						"value": "t_struct(Auction)35_storage"
					},
					"t_string_storage": {
						"encoding": "bytes",
						"label": "string",
						"numberOfBytes": "32"
					},
					"t_struct(Auction)35_storage": {
						"encoding": "inplace",
						"label": "struct DecentralizedCharity.Auction",
						"members": [
							{
								"astId": 24,
								"contract": "contracts/DecentralizedCharity.sol:DecentralizedCharity",
								"label": "charity",
								"offset": 0,
								"slot": "0",
								"type": "t_address"
							},
							{
								"astId": 26,
								"contract": "contracts/DecentralizedCharity.sol:DecentralizedCharity",
								"label": "startTime",
								"offset": 0,
								"slot": "1",
								"type": "t_uint256"
							},
							{
								"astId": 28,
								"contract": "contracts/DecentralizedCharity.sol:DecentralizedCharity",
								"label": "endTime",
								"offset": 0,
								"slot": "2",
								"type": "t_uint256"
							},
							{
								"astId": 30,
								"contract": "contracts/DecentralizedCharity.sol:DecentralizedCharity",
								"label": "highestBidder",
								"offset": 0,
								"slot": "3",
								"type": "t_address"
							},
							{
								"astId": 32,
								"contract": "contracts/DecentralizedCharity.sol:DecentralizedCharity",
								"label": "highestBid",
								"offset": 0,
								"slot": "4",
								"type": "t_uint256"
							},
							{
								"astId": 34,
								"contract": "contracts/DecentralizedCharity.sol:DecentralizedCharity",
								"label": "finalized",
								"offset": 0,
								"slot": "5",
								"type": "t_bool"
							}
						],
						"numberOfBytes": "192"
					},
					"t_struct(Charity)13_storage": {
						"encoding": "inplace",
						"label": "struct DecentralizedCharity.Charity",
						"members": [
							{
								"astId": 4,
								"contract": "contracts/DecentralizedCharity.sol:DecentralizedCharity",
								"label": "owner",
								"offset": 0,
								"slot": "0",
								"type": "t_address_payable"
							},
							{
								"astId": 6,
								"contract": "contracts/DecentralizedCharity.sol:DecentralizedCharity",
								"label": "name",
								"offset": 0,
								"slot": "1",
								"type": "t_string_storage"
							},
							{
								"astId": 8,
								"contract": "contracts/DecentralizedCharity.sol:DecentralizedCharity",
								"label": "registered",
								"offset": 0,
								"slot": "2",
								"type": "t_bool"
							},
							{
								"astId": 10,
								"contract": "contracts/DecentralizedCharity.sol:DecentralizedCharity",
								"label": "totalDonations",
								"offset": 0,
								"slot": "3",
								"type": "t_uint256"
							},
							{
								"astId": 12,
								"contract": "contracts/DecentralizedCharity.sol:DecentralizedCharity",
								"label": "donationCount",
								"offset": 0,
								"slot": "4",
								"type": "t_uint256"
							}
						],
						"numberOfBytes": "160"
					},
					"t_struct(Donation)22_storage": {
						"encoding": "inplace",
						"label": "struct DecentralizedCharity.Donation",
						"members": [
							{
								"astId": 15,
								"contract": "contracts/DecentralizedCharity.sol:DecentralizedCharity",
								"label": "donor",
								"offset": 0,
								"slot": "0",
								"type": "t_address"
							},
							{
								"astId": 17,
								"contract": "contracts/DecentralizedCharity.sol:DecentralizedCharity",
								"label": "charity",
								"offset": 0,
								"slot": "1",
								"type": "t_address"
							},
							{
								"astId": 19,
								"contract": "contracts/DecentralizedCharity.sol:DecentralizedCharity",
								"label": "amount",
								"offset": 0,
								"slot": "2",
								"type": "t_uint256"
							},
							{
								"astId": 21,
								"contract": "contracts/DecentralizedCharity.sol:DecentralizedCharity",
								"label": "timestamp",
								"offset": 0,
								"slot": "3",
								"type": "t_uint256"
							}
						],
						"numberOfBytes": "128"
					},
					"t_uint256": {
						"encoding": "inplace",
						"label": "uint256",
						"numberOfBytes": "32"
					}
				}
			},
			"userdoc": {
				"kind": "user",
				"methods": {
					"bid(uint256)": {
						"notice": "Place a bid on an active auction"
					},
					"createAuction(uint256,uint256)": {
						"notice": "Create a timed auction for a registered charity"
					},
					"donate(address)": {
						"notice": "Donate Ether to a registered charity"
					},
					"finalizeAuction(uint256)": {
						"notice": "Finalize an auction and transfer funds to the charity"
					},
					"getCharityMetrics(address)": {
						"notice": "Retrieve metrics for a given charity"
					},
					"getDonation(uint256)": {
						"notice": "Retrieve a donation record by index"
					},
					"getDonationsCount()": {
						"notice": "Get total number of donations recorded"
					},
					"getDonorMetrics(address)": {
						"notice": "Retrieve metrics for a given donor"
					},
					"registerCharity(string)": {
						"notice": "Register the calling address as a charity"
					}
				},
				"notice": "Enables charities to register, receive donations, host timed auctions, and track transparent metrics",
				"version": 1
			}
		}
	}
}