{
  "_format": "hh-sol-artifact-1",
  "contractName": "Charity",
  "sourceName": "contracts/Charity.sol",
  "abi": [
    {
      "anonymous": false,
      "inputs": [
        {
          "indexed": false,
          "internalType": "uint256",
          "name": "auctionId",
          "type": "uint256"
        },
        {
          "indexed": false,
          "internalType": "uint256",
          "name": "startTime",
          "type": "uint256"
        },
        {
          "indexed": false,
          "internalType": "uint256",
          "name": "endTime",
          "type": "uint256"
        }
      ],
      "name": "AuctionCreated",
      "type": "event"
    },
    {
      "anonymous": false,
      "inputs": [
        {
          "indexed": false,
          "internalType": "uint256",
          "name": "auctionId",
          "type": "uint256"
        },
        {
          "indexed": false,
          "internalType": "address",
          "name": "winner",
          "type": "address"
        },
        {
          "indexed": false,
          "internalType": "uint256",
          "name": "amount",
          "type": "uint256"
        }
      ],
      "name": "AuctionEnded",
      "type": "event"
    },
    {
      "anonymous": false,
      "inputs": [
        {
          "indexed": false,
          "internalType": "uint256",
          "name": "auctionId",
          "type": "uint256"
        },
        {
          "indexed": false,
          "internalType": "address",
          "name": "bidder",
          "type": "address"
        },
        {
          "indexed": false,
          "internalType": "uint256",
          "name": "amount",
          "type": "uint256"
        }
      ],
      "name": "Bid",
      "type": "event"
    },
    {
      "anonymous": false,
      "inputs": [
        {
          "indexed": false,
          "internalType": "uint256",
          "name": "campaignId",
          "type": "uint256"
        },
        {
          "indexed": false,
          "internalType": "address",
          "name": "donor",
          "type": "address"
        },
        {
          "indexed": false,
          "internalType": "uint256",
          "name": "amount",
          "type": "uint256"
        }
      ],
      "name": "Donated",
      "type": "event"
    },
    {
      "inputs": [],
      "name": "auctionCount",
      "outputs": [
        {
          "internalType": "uint256",
          "name": "",
          "type": "uint256"
        }
      ],
      "stateMutability": "view",
      "type": "function"
    },
    {
      "inputs": [
        {
          "internalType": "uint256",
          "name": "",
          "type": "uint256"
        }
      ],
      "name": "auctions",
      "outputs": [
        {
          "internalType": "address payable",
          "name": "charity",
          "type": "address"
        },
        {
          "internalType": "uint256",
          "name": "startTime",
          "type": "uint256"
        },
        {
          "internalType": "uint256",
          "name": "endTime",
          "type": "uint256"
        },
        {
          "internalType": "address",
          "name": "highestBidder",
          "type": "address"
        },
        {
          "internalType": "uint256",
          "name": "highestBid",
          "type": "uint256"
        },
        {
          "internalType": "bool",
          "name": "ended",
          "type": "bool"
        }
      ],
      "stateMutability": "view",
      "type": "function"
    },
    {
      "inputs": [
        {
          "internalType": "uint256",
          "name": "_auctionId",
          "type": "uint256"
        }
      ],
      "name": "bid",
      "outputs": [],
      "stateMutability": "payable",
      "type": "function"
    },
    {
      "inputs": [],
      "name": "campaignCount",
      "outputs": [
        {
          "internalType": "uint256",
          "name": "",
          "type": "uint256"
        }
      ],
      "stateMutability": "view",
      "type": "function"
    },
    {
      "inputs": [
        {
          "internalType": "uint256",
          "name": "",
          "type": "uint256"
        }
      ],
      "name": "campaigns",
      "outputs": [
        {
          "internalType": "address payable",
          "name": "charity",
          "type": "address"
        },
        {
          "internalType": "uint256",
          "name": "totalDonations",
          "type": "uint256"
        },
        {
          "internalType": "uint256",
          "name": "donorCount",
          "type": "uint256"
        },
        {
          "internalType": "uint256",
          "name": "highestDonation",
          "type": "uint256"
        }
      ],
      "stateMutability": "view",
      "type": "function"
    },
    {
      "inputs": [
        {
          "internalType": "address payable",
          "name": "_charity",
          "type": "address"
        },
        {
          "internalType": "uint256",
          "name": "durationSeconds",
          "type": "uint256"
        }
      ],
      "name": "createAuction",
      "outputs": [],
      "stateMutability": "nonpayable",
      "type": "function"
    },
    {
      "inputs": [
        {
          "internalType": "address payable",
          "name": "_charity",
          "type": "address"
        }
      ],
      "name": "createCampaign",
      "outputs": [],
      "stateMutability": "nonpayable",
      "type": "function"
    },
    {
      "inputs": [
        {
          "internalType": "uint256",
          "name": "_campaignId",
          "type": "uint256"
        }
      ],
      "name": "donate",
      "outputs": [],
      "stateMutability": "payable",
      "type": "function"
    },
    {
      "inputs": [
        {
          "internalType": "uint256",
          "name": "_auctionId",
          "type": "uint256"
        }
      ],
      "name": "endAuction",
      "outputs": [],
      "stateMutability": "nonpayable",
      "type": "function"
    },
    {
      "inputs": [
        {
          "internalType": "uint256",
          "name": "_campaignId",
          "type": "uint256"
        }
      ],
      "name": "getCampaignMetrics",
      "outputs": [
        {
          "internalType": "uint256",
          "name": "total",
          "type": "uint256"
        },
        {
          "internalType": "uint256",
          "name": "count",
          "type": "uint256"
        },
        {
          "internalType": "uint256",
          "name": "highest",
          "type": "uint256"
        },
        {
          "internalType": "uint256",
          "name": "average",
          "type": "uint256"
        }
      ],
      "stateMutability": "view",
      "type": "function"
    }
  ],
  "bytecode": "0x608060405234801561001057600080fd5b50611174806100206000396000f3fe6080604052600436106100915760003560e01c8063571a26a011610059578063571a26a0146101865780637274e30d146101c8578063b9a2de3a146101f3578063f14faf6f1461021c578063f7e882981461023857610091565b8063141961bc146100965780631bbda727146100d65780632ad7157314610116578063454a2ab3146101415780634b1d270f1461015d575b600080fd5b3480156100a257600080fd5b506100bd60048036038101906100b89190610b40565b610261565b6040516100cd9493929190610bbd565b60405180910390f35b3480156100e257600080fd5b506100fd60048036038101906100f89190610b40565b6102b1565b60405161010d9493929190610c02565b60405180910390f35b34801561012257600080fd5b5061012b610308565b6040516101389190610c47565b60405180910390f35b61015b60048036038101906101569190610b40565b61030e565b005b34801561016957600080fd5b50610184600480360381019061017f9190610c8e565b610500565b005b34801561019257600080fd5b506101ad60048036038101906101a89190610b40565b6105cb565b6040516101bf96959493929190610cf7565b60405180910390f35b3480156101d457600080fd5b506101dd610654565b6040516101ea9190610c47565b60405180910390f35b3480156101ff57600080fd5b5061021a60048036038101906102159190610b40565b61065a565b005b61023660048036038101906102319190610b40565b61080b565b005b34801561024457600080fd5b5061025f600480360381019061025a9190610d58565b610959565b005b60006020528060005260406000206000915090508060000160009054906101000a900473ffffffffffffffffffffffffffffffffffffffff16908060010154908060020154908060030154905084565b60008060008060008060008781526020019081526020016000209050806001015494508060020154935080600301549250600084116102f15760006102fe565b83856102fd9190610df6565b5b9150509193509193565b60035481565b6000600160008381526020019081526020016000209050806001015442101561036c576040517f08c379a000000000000000000000000000000000000000000000000000000000815260040161036390610e84565b60405180910390fd5b806002015442106103b2576040517f08c379a00000000000000000000000000000000000000000000000000000000081526004016103a990610ef0565b60405180910390fd5b806004015434116103f8576040517f08c379a00000000000000000000000000000000000000000000000000000000081526004016103ef90610f5c565b60405180910390fd5b600081600401541115610475578060030160009054906101000a900473ffffffffffffffffffffffffffffffffffffffff1673ffffffffffffffffffffffffffffffffffffffff166108fc82600401549081150290604051600060405180830381858888f19350505050158015610473573d6000803e3d6000fd5b505b338160030160006101000a81548173ffffffffffffffffffffffffffffffffffffffff021916908373ffffffffffffffffffffffffffffffffffffffff1602179055503481600401819055507fdcd726e11f8b5e160f00290f0fe3a1abb547474e53a8e7a8f49a85e7b1ca31998233346040516104f493929190610f7c565b60405180910390a15050565b60405180608001604052808273ffffffffffffffffffffffffffffffffffffffff1681526020016000815260200160008152602001600081525060008060026000815461054c90610fb3565b919050819055815260200190815260200160002060008201518160000160006101000a81548173ffffffffffffffffffffffffffffffffffffffff021916908373ffffffffffffffffffffffffffffffffffffffff16021790555060208201518160010155604082015181600201556060820151816003015590505050565b60016020528060005260406000206000915090508060000160009054906101000a900473ffffffffffffffffffffffffffffffffffffffff16908060010154908060020154908060030160009054906101000a900473ffffffffffffffffffffffffffffffffffffffff16908060040154908060050160009054906101000a900460ff16905086565b60025481565b600060016000838152602001908152602001600020905080600201544210156106b8576040517f08c379a00000000000000000000000000000000000000000000000000000000081526004016106af90611047565b60405180910390fd5b8060050160009054906101000a900460ff161561070a576040517f08c379a000000000000000000000000000000000000000000000000000000000815260040161070190610ef0565b60405180910390fd5b60018160050160006101000a81548160ff0219169083151502179055506000816004015411156107a4578060000160009054906101000a900473ffffffffffffffffffffffffffffffffffffffff1673ffffffffffffffffffffffffffffffffffffffff166108fc82600401549081150290604051600060405180830381858888f193505050501580156107a2573d6000803e3d6000fd5b505b7fd2aa34a4fdbbc6dff6a3e56f46e0f3ae2a31d7785ff3487aa5c95c642acea501828260030160009054906101000a900473ffffffffffffffffffffffffffffffffffffffff1683600401546040516107ff93929190610f7c565b60405180910390a15050565b6000341161084e576040517f08c379a0000000000000000000000000000000000000000000000000000000008152600401610845906110b3565b60405180910390fd5b600080600083815260200190815260200160002090503481600101600082825461087891906110d3565b9250508190555080600201600081548092919061089490610fb3565b919050555080600301543411156108af573481600301819055505b8060000160009054906101000a900473ffffffffffffffffffffffffffffffffffffffff1673ffffffffffffffffffffffffffffffffffffffff166108fc349081150290604051600060405180830381858888f19350505050158015610919573d6000803e3d6000fd5b507f1b606d34afacd55873aba0fd274841a10c63e18455f2dffebad2fc60a36b2c8382333460405161094d93929190610f7c565b60405180910390a15050565b60004290506000828261096c91906110d3565b90506040518060c001604052808573ffffffffffffffffffffffffffffffffffffffff168152602001838152602001828152602001600073ffffffffffffffffffffffffffffffffffffffff1681526020016000815260200160001515815250600160006003600081546109df90610fb3565b919050819055815260200190815260200160002060008201518160000160006101000a81548173ffffffffffffffffffffffffffffffffffffffff021916908373ffffffffffffffffffffffffffffffffffffffff160217905550602082015181600101556040820151816002015560608201518160030160006101000a81548173ffffffffffffffffffffffffffffffffffffffff021916908373ffffffffffffffffffffffffffffffffffffffff1602179055506080820151816004015560a08201518160050160006101000a81548160ff0219169083151502179055509050507fd6eddd1118d71820909c1197aa966dbc15ed6f508554252169cc3d5ccac756ca6003548383604051610af793929190611107565b60405180910390a150505050565b600080fd5b6000819050919050565b610b1d81610b0a565b8114610b2857600080fd5b50565b600081359050610b3a81610b14565b92915050565b600060208284031215610b5657610b55610b05565b5b6000610b6484828501610b2b565b91505092915050565b600073ffffffffffffffffffffffffffffffffffffffff82169050919050565b6000610b9882610b6d565b9050919050565b610ba881610b8d565b82525050565b610bb781610b0a565b82525050565b6000608082019050610bd26000830187610b9f565b610bdf6020830186610bae565b610bec6040830185610bae565b610bf96060830184610bae565b95945050505050565b6000608082019050610c176000830187610bae565b610c246020830186610bae565b610c316040830185610bae565b610c3e6060830184610bae565b95945050505050565b6000602082019050610c5c6000830184610bae565b92915050565b610c6b81610b8d565b8114610c7657600080fd5b50565b600081359050610c8881610c62565b92915050565b600060208284031215610ca457610ca3610b05565b5b6000610cb284828501610c79565b91505092915050565b6000610cc682610b6d565b9050919050565b610cd681610cbb565b82525050565b60008115159050919050565b610cf181610cdc565b82525050565b600060c082019050610d0c6000830189610b9f565b610d196020830188610bae565b610d266040830187610bae565b610d336060830186610ccd565b610d406080830185610bae565b610d4d60a0830184610ce8565b979650505050505050565b60008060408385031215610d6f57610d6e610b05565b5b6000610d7d85828601610c79565b9250506020610d8e85828601610b2b565b9150509250929050565b7f4e487b7100000000000000000000000000000000000000000000000000000000600052601260045260246000fd5b7f4e487b7100000000000000000000000000000000000000000000000000000000600052601160045260246000fd5b6000610e0182610b0a565b9150610e0c83610b0a565b925082610e1c57610e1b610d98565b5b828204905092915050565b600082825260208201905092915050565b7f4e6f742073746172746564000000000000000000000000000000000000000000600082015250565b6000610e6e600b83610e27565b9150610e7982610e38565b602082019050919050565b60006020820190508181036000830152610e9d81610e61565b9050919050565b7f416c726561647920656e64656400000000000000000000000000000000000000600082015250565b6000610eda600d83610e27565b9150610ee582610ea4565b602082019050919050565b60006020820190508181036000830152610f0981610ecd565b9050919050565b7f42696420746f6f206c6f77000000000000000000000000000000000000000000600082015250565b6000610f46600b83610e27565b9150610f5182610f10565b602082019050919050565b60006020820190508181036000830152610f7581610f39565b9050919050565b6000606082019050610f916000830186610bae565b610f9e6020830185610ccd565b610fab6040830184610bae565b949350505050565b6000610fbe82610b0a565b91507fffffffffffffffffffffffffffffffffffffffffffffffffffffffffffffffff8203610ff057610fef610dc7565b5b600182019050919050565b7f4e6f742079657420656e64656400000000000000000000000000000000000000600082015250565b6000611031600d83610e27565b915061103c82610ffb565b602082019050919050565b6000602082019050818103600083015261106081611024565b9050919050565b7f4d7573742073656e642045544800000000000000000000000000000000000000600082015250565b600061109d600d83610e27565b91506110a882611067565b602082019050919050565b600060208201905081810360008301526110cc81611090565b9050919050565b60006110de82610b0a565b91506110e983610b0a565b925082820190508082111561110157611100610dc7565b5b92915050565b600060608201905061111c6000830186610bae565b6111296020830185610bae565b6111366040830184610bae565b94935050505056fea2646970667358221220b788bf5ccb241620b025d9ad8e168f040c345e7478ec2cda544df4c1e569194864736f6c63430008120033",
  "linkReferences": {},
  "deployedLinkReferences": {}
}